{
	"funcoverloading.sol": {
		"Test": {
			"abi": [
				{
					"inputs": [],
					"name": "callSumWithThreeArguments",
					"outputs": [
						{
							"internalType": "uint256",
							"name": "",
							"type": "uint256"
						}
					],
					"stateMutability": "pure",
					"type": "function"
				},
				{
					"inputs": [],
					"name": "callSumWithTwoArguments",
					"outputs": [
						{
							"internalType": "uint256",
							"name": "",
							"type": "uint256"
						}
					],
					"stateMutability": "pure",
					"type": "function"
				},
				{
					"inputs": [
						{
							"internalType": "uint256",
							"name": "a",
							"type": "uint256"
						},
						{
							"internalType": "uint256",
							"name": "b",
							"type": "uint256"
						},
						{
							"internalType": "uint256",
							"name": "c",
							"type": "uint256"
						}
					],
					"name": "getSumThree",
					"outputs": [
						{
							"internalType": "uint256",
							"name": "",
							"type": "uint256"
						}
					],
					"stateMutability": "pure",
					"type": "function"
				},
				{
					"inputs": [
						{
							"internalType": "uint256",
							"name": "a",
							"type": "uint256"
						},
						{
							"internalType": "uint256",
							"name": "b",
							"type": "uint256"
						}
					],
					"name": "getSumTwo",
					"outputs": [
						{
							"internalType": "uint256",
							"name": "",
							"type": "uint256"
						}
					],
					"stateMutability": "pure",
					"type": "function"
				}
			],
			"devdoc": {
				"kind": "dev",
				"methods": {},
				"version": 1
			},
			"evm": {
				"assembly": "    /* \"funcoverloading.sol\":60:721  contract Test {... */\n  mstore(0x40, 0x80)\n  callvalue\n  dup1\n  iszero\n  tag_1\n  jumpi\n  0x00\n  dup1\n  revert\ntag_1:\n  pop\n  dataSize(sub_0)\n  dup1\n  dataOffset(sub_0)\n  0x00\n  codecopy\n  0x00\n  return\nstop\n\nsub_0: assembly {\n        /* \"funcoverloading.sol\":60:721  contract Test {... */\n      mstore(0x40, 0x80)\n      callvalue\n      dup1\n      iszero\n      tag_1\n      jumpi\n      0x00\n      dup1\n      revert\n    tag_1:\n      pop\n      jumpi(tag_2, lt(calldatasize, 0x04))\n      shr(0xe0, calldataload(0x00))\n      dup1\n      0x232f637c\n      eq\n      tag_3\n      jumpi\n      dup1\n      0x4585ba2e\n      eq\n      tag_4\n      jumpi\n      dup1\n      0x46491256\n      eq\n      tag_5\n      jumpi\n      dup1\n      0xd2074110\n      eq\n      tag_6\n      jumpi\n    tag_2:\n      0x00\n      dup1\n      revert\n        /* \"funcoverloading.sol\":132:225  function getSumTwo(uint a, uint b) public pure returns (uint) {... */\n    tag_3:\n      tag_7\n      0x04\n      dup1\n      calldatasize\n      sub\n      dup2\n      add\n      swap1\n      tag_8\n      swap2\n      swap1\n      tag_9\n      jump\t// in\n    tag_8:\n      tag_10\n      jump\t// in\n    tag_7:\n      mload(0x40)\n      tag_11\n      swap2\n      swap1\n      tag_12\n      jump\t// in\n    tag_11:\n      mload(0x40)\n      dup1\n      swap2\n      sub\n      swap1\n      return\n        /* \"funcoverloading.sol\":447:550  function callSumWithTwoArguments() public pure returns (uint) {... */\n    tag_4:\n      tag_13\n      tag_14\n      jump\t// in\n    tag_13:\n      mload(0x40)\n      tag_15\n      swap2\n      swap1\n      tag_12\n      jump\t// in\n    tag_15:\n      mload(0x40)\n      dup1\n      swap2\n      sub\n      swap1\n      return\n        /* \"funcoverloading.sol\":284:391  function getSumThree(uint a, uint b, uint c) public pure returns (uint) {... */\n    tag_5:\n      tag_16\n      0x04\n      dup1\n      calldatasize\n      sub\n      dup2\n      add\n      swap1\n      tag_17\n      swap2\n      swap1\n      tag_18\n      jump\t// in\n    tag_17:\n      tag_19\n      jump\t// in\n    tag_16:\n      mload(0x40)\n      tag_20\n      swap2\n      swap1\n      tag_12\n      jump\t// in\n    tag_20:\n      mload(0x40)\n      dup1\n      swap2\n      sub\n      swap1\n      return\n        /* \"funcoverloading.sol\":608:718  function callSumWithThreeArguments() public pure returns (uint) {... */\n    tag_6:\n      tag_21\n      tag_22\n      jump\t// in\n    tag_21:\n      mload(0x40)\n      tag_23\n      swap2\n      swap1\n      tag_12\n      jump\t// in\n    tag_23:\n      mload(0x40)\n      dup1\n      swap2\n      sub\n      swap1\n      return\n        /* \"funcoverloading.sol\":132:225  function getSumTwo(uint a, uint b) public pure returns (uint) {... */\n    tag_10:\n        /* \"funcoverloading.sol\":188:192  uint */\n      0x00\n        /* \"funcoverloading.sol\":216:217  b */\n      dup2\n        /* \"funcoverloading.sol\":212:213  a */\n      dup4\n        /* \"funcoverloading.sol\":212:217  a + b */\n      tag_25\n      swap2\n      swap1\n      tag_26\n      jump\t// in\n    tag_25:\n        /* \"funcoverloading.sol\":205:217  return a + b */\n      swap1\n      pop\n        /* \"funcoverloading.sol\":132:225  function getSumTwo(uint a, uint b) public pure returns (uint) {... */\n      swap3\n      swap2\n      pop\n      pop\n      jump\t// out\n        /* \"funcoverloading.sol\":447:550  function callSumWithTwoArguments() public pure returns (uint) {... */\n    tag_14:\n        /* \"funcoverloading.sol\":503:507  uint */\n      0x00\n        /* \"funcoverloading.sol\":527:542  getSumTwo(1, 2) */\n      tag_28\n        /* \"funcoverloading.sol\":537:538  1 */\n      0x01\n        /* \"funcoverloading.sol\":540:541  2 */\n      0x02\n        /* \"funcoverloading.sol\":527:536  getSumTwo */\n      tag_10\n        /* \"funcoverloading.sol\":527:542  getSumTwo(1, 2) */\n      jump\t// in\n    tag_28:\n        /* \"funcoverloading.sol\":520:542  return getSumTwo(1, 2) */\n      swap1\n      pop\n        /* \"funcoverloading.sol\":447:550  function callSumWithTwoArguments() public pure returns (uint) {... */\n      swap1\n      jump\t// out\n        /* \"funcoverloading.sol\":284:391  function getSumThree(uint a, uint b, uint c) public pure returns (uint) {... */\n    tag_19:\n        /* \"funcoverloading.sol\":350:354  uint */\n      0x00\n        /* \"funcoverloading.sol\":382:383  c */\n      dup2\n        /* \"funcoverloading.sol\":378:379  b */\n      dup4\n        /* \"funcoverloading.sol\":374:375  a */\n      dup6\n        /* \"funcoverloading.sol\":374:379  a + b */\n      tag_30\n      swap2\n      swap1\n      tag_26\n      jump\t// in\n    tag_30:\n        /* \"funcoverloading.sol\":374:383  a + b + c */\n      tag_31\n      swap2\n      swap1\n      tag_26\n      jump\t// in\n    tag_31:\n        /* \"funcoverloading.sol\":367:383  return a + b + c */\n      swap1\n      pop\n        /* \"funcoverloading.sol\":284:391  function getSumThree(uint a, uint b, uint c) public pure returns (uint) {... */\n      swap4\n      swap3\n      pop\n      pop\n      pop\n      jump\t// out\n        /* \"funcoverloading.sol\":608:718  function callSumWithThreeArguments() public pure returns (uint) {... */\n    tag_22:\n        /* \"funcoverloading.sol\":666:670  uint */\n      0x00\n        /* \"funcoverloading.sol\":690:710  getSumThree(1, 2, 3) */\n      tag_33\n        /* \"funcoverloading.sol\":702:703  1 */\n      0x01\n        /* \"funcoverloading.sol\":705:706  2 */\n      0x02\n        /* \"funcoverloading.sol\":708:709  3 */\n      0x03\n        /* \"funcoverloading.sol\":690:701  getSumThree */\n      tag_19\n        /* \"funcoverloading.sol\":690:710  getSumThree(1, 2, 3) */\n      jump\t// in\n    tag_33:\n        /* \"funcoverloading.sol\":683:710  return getSumThree(1, 2, 3) */\n      swap1\n      pop\n        /* \"funcoverloading.sol\":608:718  function callSumWithThreeArguments() public pure returns (uint) {... */\n      swap1\n      jump\t// out\n        /* \"#utility.yul\":88:205   */\n    tag_35:\n        /* \"#utility.yul\":197:198   */\n      0x00\n        /* \"#utility.yul\":194:195   */\n      dup1\n        /* \"#utility.yul\":187:199   */\n      revert\n        /* \"#utility.yul\":334:411   */\n    tag_37:\n        /* \"#utility.yul\":371:378   */\n      0x00\n        /* \"#utility.yul\":400:405   */\n      dup2\n        /* \"#utility.yul\":389:405   */\n      swap1\n      pop\n        /* \"#utility.yul\":334:411   */\n      swap2\n      swap1\n      pop\n      jump\t// out\n        /* \"#utility.yul\":417:539   */\n    tag_38:\n        /* \"#utility.yul\":490:514   */\n      tag_48\n        /* \"#utility.yul\":508:513   */\n      dup2\n        /* \"#utility.yul\":490:514   */\n      tag_37\n      jump\t// in\n    tag_48:\n        /* \"#utility.yul\":483:488   */\n      dup2\n        /* \"#utility.yul\":480:515   */\n      eq\n        /* \"#utility.yul\":470:533   */\n      tag_49\n      jumpi\n        /* \"#utility.yul\":529:530   */\n      0x00\n        /* \"#utility.yul\":526:527   */\n      dup1\n        /* \"#utility.yul\":519:531   */\n      revert\n        /* \"#utility.yul\":470:533   */\n    tag_49:\n        /* \"#utility.yul\":417:539   */\n      pop\n      jump\t// out\n        /* \"#utility.yul\":545:684   */\n    tag_39:\n        /* \"#utility.yul\":591:596   */\n      0x00\n        /* \"#utility.yul\":629:635   */\n      dup2\n        /* \"#utility.yul\":616:636   */\n      calldataload\n        /* \"#utility.yul\":607:636   */\n      swap1\n      pop\n        /* \"#utility.yul\":645:678   */\n      tag_51\n        /* \"#utility.yul\":672:677   */\n      dup2\n        /* \"#utility.yul\":645:678   */\n      tag_38\n      jump\t// in\n    tag_51:\n        /* \"#utility.yul\":545:684   */\n      swap3\n      swap2\n      pop\n      pop\n      jump\t// out\n        /* \"#utility.yul\":690:1164   */\n    tag_9:\n        /* \"#utility.yul\":758:764   */\n      0x00\n        /* \"#utility.yul\":766:772   */\n      dup1\n        /* \"#utility.yul\":815:817   */\n      0x40\n        /* \"#utility.yul\":803:812   */\n      dup4\n        /* \"#utility.yul\":794:801   */\n      dup6\n        /* \"#utility.yul\":790:813   */\n      sub\n        /* \"#utility.yul\":786:818   */\n      slt\n        /* \"#utility.yul\":783:902   */\n      iszero\n      tag_53\n      jumpi\n        /* \"#utility.yul\":821:900   */\n      tag_54\n      tag_35\n      jump\t// in\n    tag_54:\n        /* \"#utility.yul\":783:902   */\n    tag_53:\n        /* \"#utility.yul\":941:942   */\n      0x00\n        /* \"#utility.yul\":966:1019   */\n      tag_55\n        /* \"#utility.yul\":1011:1018   */\n      dup6\n        /* \"#utility.yul\":1002:1008   */\n      dup3\n        /* \"#utility.yul\":991:1000   */\n      dup7\n        /* \"#utility.yul\":987:1009   */\n      add\n        /* \"#utility.yul\":966:1019   */\n      tag_39\n      jump\t// in\n    tag_55:\n        /* \"#utility.yul\":956:1019   */\n      swap3\n      pop\n        /* \"#utility.yul\":912:1029   */\n      pop\n        /* \"#utility.yul\":1068:1070   */\n      0x20\n        /* \"#utility.yul\":1094:1147   */\n      tag_56\n        /* \"#utility.yul\":1139:1146   */\n      dup6\n        /* \"#utility.yul\":1130:1136   */\n      dup3\n        /* \"#utility.yul\":1119:1128   */\n      dup7\n        /* \"#utility.yul\":1115:1137   */\n      add\n        /* \"#utility.yul\":1094:1147   */\n      tag_39\n      jump\t// in\n    tag_56:\n        /* \"#utility.yul\":1084:1147   */\n      swap2\n      pop\n        /* \"#utility.yul\":1039:1157   */\n      pop\n        /* \"#utility.yul\":690:1164   */\n      swap3\n      pop\n      swap3\n      swap1\n      pop\n      jump\t// out\n        /* \"#utility.yul\":1170:1288   */\n    tag_40:\n        /* \"#utility.yul\":1257:1281   */\n      tag_58\n        /* \"#utility.yul\":1275:1280   */\n      dup2\n        /* \"#utility.yul\":1257:1281   */\n      tag_37\n      jump\t// in\n    tag_58:\n        /* \"#utility.yul\":1252:1255   */\n      dup3\n        /* \"#utility.yul\":1245:1282   */\n      mstore\n        /* \"#utility.yul\":1170:1288   */\n      pop\n      pop\n      jump\t// out\n        /* \"#utility.yul\":1294:1516   */\n    tag_12:\n        /* \"#utility.yul\":1387:1391   */\n      0x00\n        /* \"#utility.yul\":1425:1427   */\n      0x20\n        /* \"#utility.yul\":1414:1423   */\n      dup3\n        /* \"#utility.yul\":1410:1428   */\n      add\n        /* \"#utility.yul\":1402:1428   */\n      swap1\n      pop\n        /* \"#utility.yul\":1438:1509   */\n      tag_60\n        /* \"#utility.yul\":1506:1507   */\n      0x00\n        /* \"#utility.yul\":1495:1504   */\n      dup4\n        /* \"#utility.yul\":1491:1508   */\n      add\n        /* \"#utility.yul\":1482:1488   */\n      dup5\n        /* \"#utility.yul\":1438:1509   */\n      tag_40\n      jump\t// in\n    tag_60:\n        /* \"#utility.yul\":1294:1516   */\n      swap3\n      swap2\n      pop\n      pop\n      jump\t// out\n        /* \"#utility.yul\":1522:2141   */\n    tag_18:\n        /* \"#utility.yul\":1599:1605   */\n      0x00\n        /* \"#utility.yul\":1607:1613   */\n      dup1\n        /* \"#utility.yul\":1615:1621   */\n      0x00\n        /* \"#utility.yul\":1664:1666   */\n      0x60\n        /* \"#utility.yul\":1652:1661   */\n      dup5\n        /* \"#utility.yul\":1643:1650   */\n      dup7\n        /* \"#utility.yul\":1639:1662   */\n      sub\n        /* \"#utility.yul\":1635:1667   */\n      slt\n        /* \"#utility.yul\":1632:1751   */\n      iszero\n      tag_62\n      jumpi\n        /* \"#utility.yul\":1670:1749   */\n      tag_63\n      tag_35\n      jump\t// in\n    tag_63:\n        /* \"#utility.yul\":1632:1751   */\n    tag_62:\n        /* \"#utility.yul\":1790:1791   */\n      0x00\n        /* \"#utility.yul\":1815:1868   */\n      tag_64\n        /* \"#utility.yul\":1860:1867   */\n      dup7\n        /* \"#utility.yul\":1851:1857   */\n      dup3\n        /* \"#utility.yul\":1840:1849   */\n      dup8\n        /* \"#utility.yul\":1836:1858   */\n      add\n        /* \"#utility.yul\":1815:1868   */\n      tag_39\n      jump\t// in\n    tag_64:\n        /* \"#utility.yul\":1805:1868   */\n      swap4\n      pop\n        /* \"#utility.yul\":1761:1878   */\n      pop\n        /* \"#utility.yul\":1917:1919   */\n      0x20\n        /* \"#utility.yul\":1943:1996   */\n      tag_65\n        /* \"#utility.yul\":1988:1995   */\n      dup7\n        /* \"#utility.yul\":1979:1985   */\n      dup3\n        /* \"#utility.yul\":1968:1977   */\n      dup8\n        /* \"#utility.yul\":1964:1986   */\n      add\n        /* \"#utility.yul\":1943:1996   */\n      tag_39\n      jump\t// in\n    tag_65:\n        /* \"#utility.yul\":1933:1996   */\n      swap3\n      pop\n        /* \"#utility.yul\":1888:2006   */\n      pop\n        /* \"#utility.yul\":2045:2047   */\n      0x40\n        /* \"#utility.yul\":2071:2124   */\n      tag_66\n        /* \"#utility.yul\":2116:2123   */\n      dup7\n        /* \"#utility.yul\":2107:2113   */\n      dup3\n        /* \"#utility.yul\":2096:2105   */\n      dup8\n        /* \"#utility.yul\":2092:2114   */\n      add\n        /* \"#utility.yul\":2071:2124   */\n      tag_39\n      jump\t// in\n    tag_66:\n        /* \"#utility.yul\":2061:2124   */\n      swap2\n      pop\n        /* \"#utility.yul\":2016:2134   */\n      pop\n        /* \"#utility.yul\":1522:2141   */\n      swap3\n      pop\n      swap3\n      pop\n      swap3\n      jump\t// out\n        /* \"#utility.yul\":2147:2327   */\n    tag_41:\n        /* \"#utility.yul\":2195:2272   */\n      0x4e487b7100000000000000000000000000000000000000000000000000000000\n        /* \"#utility.yul\":2192:2193   */\n      0x00\n        /* \"#utility.yul\":2185:2273   */\n      mstore\n        /* \"#utility.yul\":2292:2296   */\n      0x11\n        /* \"#utility.yul\":2289:2290   */\n      0x04\n        /* \"#utility.yul\":2282:2297   */\n      mstore\n        /* \"#utility.yul\":2316:2320   */\n      0x24\n        /* \"#utility.yul\":2313:2314   */\n      0x00\n        /* \"#utility.yul\":2306:2321   */\n      revert\n        /* \"#utility.yul\":2333:2524   */\n    tag_26:\n        /* \"#utility.yul\":2373:2376   */\n      0x00\n        /* \"#utility.yul\":2392:2412   */\n      tag_69\n        /* \"#utility.yul\":2410:2411   */\n      dup3\n        /* \"#utility.yul\":2392:2412   */\n      tag_37\n      jump\t// in\n    tag_69:\n        /* \"#utility.yul\":2387:2412   */\n      swap2\n      pop\n        /* \"#utility.yul\":2426:2446   */\n      tag_70\n        /* \"#utility.yul\":2444:2445   */\n      dup4\n        /* \"#utility.yul\":2426:2446   */\n      tag_37\n      jump\t// in\n    tag_70:\n        /* \"#utility.yul\":2421:2446   */\n      swap3\n      pop\n        /* \"#utility.yul\":2469:2470   */\n      dup3\n        /* \"#utility.yul\":2466:2467   */\n      dup3\n        /* \"#utility.yul\":2462:2471   */\n      add\n        /* \"#utility.yul\":2455:2471   */\n      swap1\n      pop\n        /* \"#utility.yul\":2490:2493   */\n      dup1\n        /* \"#utility.yul\":2487:2488   */\n      dup3\n        /* \"#utility.yul\":2484:2494   */\n      gt\n        /* \"#utility.yul\":2481:2517   */\n      iszero\n      tag_71\n      jumpi\n        /* \"#utility.yul\":2497:2515   */\n      tag_72\n      tag_41\n      jump\t// in\n    tag_72:\n        /* \"#utility.yul\":2481:2517   */\n    tag_71:\n        /* \"#utility.yul\":2333:2524   */\n      swap3\n      swap2\n      pop\n      pop\n      jump\t// out\n\n    auxdata: 0xa2646970667358221220f4579bd7e24755e4f7888827abdb9a6a888471adf395b3a8fd30c2786d31eda064736f6c634300081a0033\n}\n",
				"bytecode": {
					"linkReferences": {},
					"object": "6080604052348015600e575f80fd5b506102c98061001c5f395ff3fe608060405234801561000f575f80fd5b506004361061004a575f3560e01c8063232f637c1461004e5780634585ba2e1461007e578063464912561461009c578063d2074110146100cc575b5f80fd5b6100686004803603810190610063919061017d565b6100ea565b60405161007591906101ca565b60405180910390f35b6100866100ff565b60405161009391906101ca565b60405180910390f35b6100b660048036038101906100b191906101e3565b610111565b6040516100c391906101ca565b60405180910390f35b6100d4610132565b6040516100e191906101ca565b60405180910390f35b5f81836100f79190610260565b905092915050565b5f61010c600160026100ea565b905090565b5f81838561011f9190610260565b6101299190610260565b90509392505050565b5f610141600160026003610111565b905090565b5f80fd5b5f819050919050565b61015c8161014a565b8114610166575f80fd5b50565b5f8135905061017781610153565b92915050565b5f806040838503121561019357610192610146565b5b5f6101a085828601610169565b92505060206101b185828601610169565b9150509250929050565b6101c48161014a565b82525050565b5f6020820190506101dd5f8301846101bb565b92915050565b5f805f606084860312156101fa576101f9610146565b5b5f61020786828701610169565b935050602061021886828701610169565b925050604061022986828701610169565b9150509250925092565b7f4e487b71000000000000000000000000000000000000000000000000000000005f52601160045260245ffd5b5f61026a8261014a565b91506102758361014a565b925082820190508082111561028d5761028c610233565b5b9291505056fea2646970667358221220f4579bd7e24755e4f7888827abdb9a6a888471adf395b3a8fd30c2786d31eda064736f6c634300081a0033",
					"opcodes": "PUSH1 0x80 PUSH1 0x40 MSTORE CALLVALUE DUP1 ISZERO PUSH1 0xE JUMPI PUSH0 DUP1 REVERT JUMPDEST POP PUSH2 0x2C9 DUP1 PUSH2 0x1C PUSH0 CODECOPY PUSH0 RETURN INVALID PUSH1 0x80 PUSH1 0x40 MSTORE CALLVALUE DUP1 ISZERO PUSH2 0xF JUMPI PUSH0 DUP1 REVERT JUMPDEST POP PUSH1 0x4 CALLDATASIZE LT PUSH2 0x4A JUMPI PUSH0 CALLDATALOAD PUSH1 0xE0 SHR DUP1 PUSH4 0x232F637C EQ PUSH2 0x4E JUMPI DUP1 PUSH4 0x4585BA2E EQ PUSH2 0x7E JUMPI DUP1 PUSH4 0x46491256 EQ PUSH2 0x9C JUMPI DUP1 PUSH4 0xD2074110 EQ PUSH2 0xCC JUMPI JUMPDEST PUSH0 DUP1 REVERT JUMPDEST PUSH2 0x68 PUSH1 0x4 DUP1 CALLDATASIZE SUB DUP2 ADD SWAP1 PUSH2 0x63 SWAP2 SWAP1 PUSH2 0x17D JUMP JUMPDEST PUSH2 0xEA JUMP JUMPDEST PUSH1 0x40 MLOAD PUSH2 0x75 SWAP2 SWAP1 PUSH2 0x1CA JUMP JUMPDEST PUSH1 0x40 MLOAD DUP1 SWAP2 SUB SWAP1 RETURN JUMPDEST PUSH2 0x86 PUSH2 0xFF JUMP JUMPDEST PUSH1 0x40 MLOAD PUSH2 0x93 SWAP2 SWAP1 PUSH2 0x1CA JUMP JUMPDEST PUSH1 0x40 MLOAD DUP1 SWAP2 SUB SWAP1 RETURN JUMPDEST PUSH2 0xB6 PUSH1 0x4 DUP1 CALLDATASIZE SUB DUP2 ADD SWAP1 PUSH2 0xB1 SWAP2 SWAP1 PUSH2 0x1E3 JUMP JUMPDEST PUSH2 0x111 JUMP JUMPDEST PUSH1 0x40 MLOAD PUSH2 0xC3 SWAP2 SWAP1 PUSH2 0x1CA JUMP JUMPDEST PUSH1 0x40 MLOAD DUP1 SWAP2 SUB SWAP1 RETURN JUMPDEST PUSH2 0xD4 PUSH2 0x132 JUMP JUMPDEST PUSH1 0x40 MLOAD PUSH2 0xE1 SWAP2 SWAP1 PUSH2 0x1CA JUMP JUMPDEST PUSH1 0x40 MLOAD DUP1 SWAP2 SUB SWAP1 RETURN JUMPDEST PUSH0 DUP2 DUP4 PUSH2 0xF7 SWAP2 SWAP1 PUSH2 0x260 JUMP JUMPDEST SWAP1 POP SWAP3 SWAP2 POP POP JUMP JUMPDEST PUSH0 PUSH2 0x10C PUSH1 0x1 PUSH1 0x2 PUSH2 0xEA JUMP JUMPDEST SWAP1 POP SWAP1 JUMP JUMPDEST PUSH0 DUP2 DUP4 DUP6 PUSH2 0x11F SWAP2 SWAP1 PUSH2 0x260 JUMP JUMPDEST PUSH2 0x129 SWAP2 SWAP1 PUSH2 0x260 JUMP JUMPDEST SWAP1 POP SWAP4 SWAP3 POP POP POP JUMP JUMPDEST PUSH0 PUSH2 0x141 PUSH1 0x1 PUSH1 0x2 PUSH1 0x3 PUSH2 0x111 JUMP JUMPDEST SWAP1 POP SWAP1 JUMP JUMPDEST PUSH0 DUP1 REVERT JUMPDEST PUSH0 DUP2 SWAP1 POP SWAP2 SWAP1 POP JUMP JUMPDEST PUSH2 0x15C DUP2 PUSH2 0x14A JUMP JUMPDEST DUP2 EQ PUSH2 0x166 JUMPI PUSH0 DUP1 REVERT JUMPDEST POP JUMP JUMPDEST PUSH0 DUP2 CALLDATALOAD SWAP1 POP PUSH2 0x177 DUP2 PUSH2 0x153 JUMP JUMPDEST SWAP3 SWAP2 POP POP JUMP JUMPDEST PUSH0 DUP1 PUSH1 0x40 DUP4 DUP6 SUB SLT ISZERO PUSH2 0x193 JUMPI PUSH2 0x192 PUSH2 0x146 JUMP JUMPDEST JUMPDEST PUSH0 PUSH2 0x1A0 DUP6 DUP3 DUP7 ADD PUSH2 0x169 JUMP JUMPDEST SWAP3 POP POP PUSH1 0x20 PUSH2 0x1B1 DUP6 DUP3 DUP7 ADD PUSH2 0x169 JUMP JUMPDEST SWAP2 POP POP SWAP3 POP SWAP3 SWAP1 POP JUMP JUMPDEST PUSH2 0x1C4 DUP2 PUSH2 0x14A JUMP JUMPDEST DUP3 MSTORE POP POP JUMP JUMPDEST PUSH0 PUSH1 0x20 DUP3 ADD SWAP1 POP PUSH2 0x1DD PUSH0 DUP4 ADD DUP5 PUSH2 0x1BB JUMP JUMPDEST SWAP3 SWAP2 POP POP JUMP JUMPDEST PUSH0 DUP1 PUSH0 PUSH1 0x60 DUP5 DUP7 SUB SLT ISZERO PUSH2 0x1FA JUMPI PUSH2 0x1F9 PUSH2 0x146 JUMP JUMPDEST JUMPDEST PUSH0 PUSH2 0x207 DUP7 DUP3 DUP8 ADD PUSH2 0x169 JUMP JUMPDEST SWAP4 POP POP PUSH1 0x20 PUSH2 0x218 DUP7 DUP3 DUP8 ADD PUSH2 0x169 JUMP JUMPDEST SWAP3 POP POP PUSH1 0x40 PUSH2 0x229 DUP7 DUP3 DUP8 ADD PUSH2 0x169 JUMP JUMPDEST SWAP2 POP POP SWAP3 POP SWAP3 POP SWAP3 JUMP JUMPDEST PUSH32 0x4E487B7100000000000000000000000000000000000000000000000000000000 PUSH0 MSTORE PUSH1 0x11 PUSH1 0x4 MSTORE PUSH1 0x24 PUSH0 REVERT JUMPDEST PUSH0 PUSH2 0x26A DUP3 PUSH2 0x14A JUMP JUMPDEST SWAP2 POP PUSH2 0x275 DUP4 PUSH2 0x14A JUMP JUMPDEST SWAP3 POP DUP3 DUP3 ADD SWAP1 POP DUP1 DUP3 GT ISZERO PUSH2 0x28D JUMPI PUSH2 0x28C PUSH2 0x233 JUMP JUMPDEST JUMPDEST SWAP3 SWAP2 POP POP JUMP INVALID LOG2 PUSH5 0x6970667358 0x22 SLT KECCAK256 DELEGATECALL JUMPI SWAP12 0xD7 0xE2 SELFBALANCE SSTORE 0xE4 0xF7 DUP9 DUP9 0x27 0xAB 0xDB SWAP11 PUSH11 0x888471ADF395B3A8FD30C2 PUSH25 0x6D31EDA064736F6C634300081A003300000000000000000000 "
				},
				"gasEstimates": {
					"creation": {
						"codeDepositCost": "142600",
						"executionCost": "188",
						"totalCost": "142788"
					},
					"external": {
						"callSumWithThreeArguments()": "infinite",
						"callSumWithTwoArguments()": "infinite",
						"getSumThree(uint256,uint256,uint256)": "infinite",
						"getSumTwo(uint256,uint256)": "infinite"
					}
				},
				"methodIdentifiers": {
					"callSumWithThreeArguments()": "d2074110",
					"callSumWithTwoArguments()": "4585ba2e",
					"getSumThree(uint256,uint256,uint256)": "46491256",
					"getSumTwo(uint256,uint256)": "232f637c"
				}
			},
			"storageLayout": {
				"storage": [],
				"types": null
			},
			"userdoc": {
				"kind": "user",
				"methods": {},
				"version": 1
			}
		}
	}
}