{
	"ifelsestate.sol": {
		"Types": {
			"abi": [
				{
					"inputs": [],
					"name": "decisionMaking",
					"outputs": [],
					"stateMutability": "nonpayable",
					"type": "function"
				},
				{
					"inputs": [],
					"name": "even",
					"outputs": [
						{
							"internalType": "bool",
							"name": "",
							"type": "bool"
						}
					],
					"stateMutability": "view",
					"type": "function"
				},
				{
					"inputs": [],
					"name": "getResult",
					"outputs": [
						{
							"internalType": "bool",
							"name": "",
							"type": "bool"
						}
					],
					"stateMutability": "view",
					"type": "function"
				},
				{
					"inputs": [],
					"name": "i",
					"outputs": [
						{
							"internalType": "uint256",
							"name": "",
							"type": "uint256"
						}
					],
					"stateMutability": "view",
					"type": "function"
				}
			],
			"devdoc": {
				"kind": "dev",
				"methods": {},
				"version": 1
			},
			"evm": {
				"assembly": "    /* \"ifelsestate.sol\":60:518  contract Types {... */\n  mstore(0x40, 0x80)\n    /* \"ifelsestate.sol\":134:136  10 */\n  0x0a\n    /* \"ifelsestate.sol\":118:136  uint public i = 10 */\n  0x00\n  sstore\n    /* \"ifelsestate.sol\":60:518  contract Types {... */\n  callvalue\n  dup1\n  iszero\n  tag_1\n  jumpi\n  0x00\n  dup1\n  revert\ntag_1:\n  pop\n  dataSize(sub_0)\n  dup1\n  dataOffset(sub_0)\n  0x00\n  codecopy\n  0x00\n  return\nstop\n\nsub_0: assembly {\n        /* \"ifelsestate.sol\":60:518  contract Types {... */\n      mstore(0x40, 0x80)\n      callvalue\n      dup1\n      iszero\n      tag_1\n      jumpi\n      0x00\n      dup1\n      revert\n    tag_1:\n      pop\n      jumpi(tag_2, lt(calldatasize, 0x04))\n      shr(0xe0, calldataload(0x00))\n      dup1\n      0x2493305e\n      eq\n      tag_3\n      jumpi\n      dup1\n      0x2863a17d\n      eq\n      tag_4\n      jumpi\n      dup1\n      0xde292789\n      eq\n      tag_5\n      jumpi\n      dup1\n      0xe5aa3d58\n      eq\n      tag_6\n      jumpi\n    tag_2:\n      0x00\n      dup1\n      revert\n        /* \"ifelsestate.sol\":242:392  function decisionMaking() public {... */\n    tag_3:\n      tag_7\n      tag_8\n      jump\t// in\n    tag_7:\n      stop\n        /* \"ifelsestate.sol\":143:159  bool public even */\n    tag_4:\n      tag_9\n      tag_10\n      jump\t// in\n    tag_9:\n      mload(0x40)\n      tag_11\n      swap2\n      swap1\n      tag_12\n      jump\t// in\n    tag_11:\n      mload(0x40)\n      dup1\n      swap2\n      sub\n      swap1\n      return\n        /* \"ifelsestate.sol\":438:515  function getResult() public view returns(bool) {... */\n    tag_5:\n      tag_13\n      tag_14\n      jump\t// in\n    tag_13:\n      mload(0x40)\n      tag_15\n      swap2\n      swap1\n      tag_12\n      jump\t// in\n    tag_15:\n      mload(0x40)\n      dup1\n      swap2\n      sub\n      swap1\n      return\n        /* \"ifelsestate.sol\":118:136  uint public i = 10 */\n    tag_6:\n      tag_16\n      tag_17\n      jump\t// in\n    tag_16:\n      mload(0x40)\n      tag_18\n      swap2\n      swap1\n      tag_19\n      jump\t// in\n    tag_18:\n      mload(0x40)\n      dup1\n      swap2\n      sub\n      swap1\n      return\n        /* \"ifelsestate.sol\":242:392  function decisionMaking() public {... */\n    tag_8:\n        /* \"ifelsestate.sol\":299:300  0 */\n      0x00\n        /* \"ifelsestate.sol\":294:295  2 */\n      0x02\n        /* \"ifelsestate.sol\":290:291  i */\n      sload(0x00)\n        /* \"ifelsestate.sol\":290:295  i % 2 */\n      tag_21\n      swap2\n      swap1\n      tag_22\n      jump\t// in\n    tag_21:\n        /* \"ifelsestate.sol\":290:300  i % 2 == 0 */\n      sub\n        /* \"ifelsestate.sol\":286:385  if (i % 2 == 0) {... */\n      tag_23\n      jumpi\n        /* \"ifelsestate.sol\":324:328  true */\n      0x01\n        /* \"ifelsestate.sol\":317:321  even */\n      dup1\n      0x00\n        /* \"ifelsestate.sol\":317:328  even = true */\n      0x0100\n      exp\n      dup2\n      sload\n      dup2\n      0xff\n      mul\n      not\n      and\n      swap1\n      dup4\n      iszero\n      iszero\n      mul\n      or\n      swap1\n      sstore\n      pop\n        /* \"ifelsestate.sol\":286:385  if (i % 2 == 0) {... */\n      jump(tag_24)\n    tag_23:\n        /* \"ifelsestate.sol\":368:373  false */\n      0x00\n        /* \"ifelsestate.sol\":361:365  even */\n      0x01\n      0x00\n        /* \"ifelsestate.sol\":361:373  even = false */\n      0x0100\n      exp\n      dup2\n      sload\n      dup2\n      0xff\n      mul\n      not\n      and\n      swap1\n      dup4\n      iszero\n      iszero\n      mul\n      or\n      swap1\n      sstore\n      pop\n        /* \"ifelsestate.sol\":286:385  if (i % 2 == 0) {... */\n    tag_24:\n        /* \"ifelsestate.sol\":242:392  function decisionMaking() public {... */\n      jump\t// out\n        /* \"ifelsestate.sol\":143:159  bool public even */\n    tag_10:\n      0x01\n      0x00\n      swap1\n      sload\n      swap1\n      0x0100\n      exp\n      swap1\n      div\n      0xff\n      and\n      dup2\n      jump\t// out\n        /* \"ifelsestate.sol\":438:515  function getResult() public view returns(bool) {... */\n    tag_14:\n        /* \"ifelsestate.sol\":479:483  bool */\n      0x00\n        /* \"ifelsestate.sol\":503:507  even */\n      0x01\n      0x00\n      swap1\n      sload\n      swap1\n      0x0100\n      exp\n      swap1\n      div\n      0xff\n      and\n        /* \"ifelsestate.sol\":496:507  return even */\n      swap1\n      pop\n        /* \"ifelsestate.sol\":438:515  function getResult() public view returns(bool) {... */\n      swap1\n      jump\t// out\n        /* \"ifelsestate.sol\":118:136  uint public i = 10 */\n    tag_17:\n      sload(0x00)\n      dup2\n      jump\t// out\n        /* \"#utility.yul\":7:97   */\n    tag_26:\n        /* \"#utility.yul\":41:48   */\n      0x00\n        /* \"#utility.yul\":84:89   */\n      dup2\n        /* \"#utility.yul\":77:90   */\n      iszero\n        /* \"#utility.yul\":70:91   */\n      iszero\n        /* \"#utility.yul\":59:91   */\n      swap1\n      pop\n        /* \"#utility.yul\":7:97   */\n      swap2\n      swap1\n      pop\n      jump\t// out\n        /* \"#utility.yul\":103:212   */\n    tag_27:\n        /* \"#utility.yul\":184:205   */\n      tag_34\n        /* \"#utility.yul\":199:204   */\n      dup2\n        /* \"#utility.yul\":184:205   */\n      tag_26\n      jump\t// in\n    tag_34:\n        /* \"#utility.yul\":179:182   */\n      dup3\n        /* \"#utility.yul\":172:206   */\n      mstore\n        /* \"#utility.yul\":103:212   */\n      pop\n      pop\n      jump\t// out\n        /* \"#utility.yul\":218:428   */\n    tag_12:\n        /* \"#utility.yul\":305:309   */\n      0x00\n        /* \"#utility.yul\":343:345   */\n      0x20\n        /* \"#utility.yul\":332:341   */\n      dup3\n        /* \"#utility.yul\":328:346   */\n      add\n        /* \"#utility.yul\":320:346   */\n      swap1\n      pop\n        /* \"#utility.yul\":356:421   */\n      tag_36\n        /* \"#utility.yul\":418:419   */\n      0x00\n        /* \"#utility.yul\":407:416   */\n      dup4\n        /* \"#utility.yul\":403:420   */\n      add\n        /* \"#utility.yul\":394:400   */\n      dup5\n        /* \"#utility.yul\":356:421   */\n      tag_27\n      jump\t// in\n    tag_36:\n        /* \"#utility.yul\":218:428   */\n      swap3\n      swap2\n      pop\n      pop\n      jump\t// out\n        /* \"#utility.yul\":434:511   */\n    tag_28:\n        /* \"#utility.yul\":471:478   */\n      0x00\n        /* \"#utility.yul\":500:505   */\n      dup2\n        /* \"#utility.yul\":489:505   */\n      swap1\n      pop\n        /* \"#utility.yul\":434:511   */\n      swap2\n      swap1\n      pop\n      jump\t// out\n        /* \"#utility.yul\":517:635   */\n    tag_29:\n        /* \"#utility.yul\":604:628   */\n      tag_39\n        /* \"#utility.yul\":622:627   */\n      dup2\n        /* \"#utility.yul\":604:628   */\n      tag_28\n      jump\t// in\n    tag_39:\n        /* \"#utility.yul\":599:602   */\n      dup3\n        /* \"#utility.yul\":592:629   */\n      mstore\n        /* \"#utility.yul\":517:635   */\n      pop\n      pop\n      jump\t// out\n        /* \"#utility.yul\":641:863   */\n    tag_19:\n        /* \"#utility.yul\":734:738   */\n      0x00\n        /* \"#utility.yul\":772:774   */\n      0x20\n        /* \"#utility.yul\":761:770   */\n      dup3\n        /* \"#utility.yul\":757:775   */\n      add\n        /* \"#utility.yul\":749:775   */\n      swap1\n      pop\n        /* \"#utility.yul\":785:856   */\n      tag_41\n        /* \"#utility.yul\":853:854   */\n      0x00\n        /* \"#utility.yul\":842:851   */\n      dup4\n        /* \"#utility.yul\":838:855   */\n      add\n        /* \"#utility.yul\":829:835   */\n      dup5\n        /* \"#utility.yul\":785:856   */\n      tag_29\n      jump\t// in\n    tag_41:\n        /* \"#utility.yul\":641:863   */\n      swap3\n      swap2\n      pop\n      pop\n      jump\t// out\n        /* \"#utility.yul\":869:1049   */\n    tag_30:\n        /* \"#utility.yul\":917:994   */\n      0x4e487b7100000000000000000000000000000000000000000000000000000000\n        /* \"#utility.yul\":914:915   */\n      0x00\n        /* \"#utility.yul\":907:995   */\n      mstore\n        /* \"#utility.yul\":1014:1018   */\n      0x12\n        /* \"#utility.yul\":1011:1012   */\n      0x04\n        /* \"#utility.yul\":1004:1019   */\n      mstore\n        /* \"#utility.yul\":1038:1042   */\n      0x24\n        /* \"#utility.yul\":1035:1036   */\n      0x00\n        /* \"#utility.yul\":1028:1043   */\n      revert\n        /* \"#utility.yul\":1055:1231   */\n    tag_22:\n        /* \"#utility.yul\":1087:1088   */\n      0x00\n        /* \"#utility.yul\":1104:1124   */\n      tag_44\n        /* \"#utility.yul\":1122:1123   */\n      dup3\n        /* \"#utility.yul\":1104:1124   */\n      tag_28\n      jump\t// in\n    tag_44:\n        /* \"#utility.yul\":1099:1124   */\n      swap2\n      pop\n        /* \"#utility.yul\":1138:1158   */\n      tag_45\n        /* \"#utility.yul\":1156:1157   */\n      dup4\n        /* \"#utility.yul\":1138:1158   */\n      tag_28\n      jump\t// in\n    tag_45:\n        /* \"#utility.yul\":1133:1158   */\n      swap3\n      pop\n        /* \"#utility.yul\":1177:1178   */\n      dup3\n        /* \"#utility.yul\":1167:1202   */\n      tag_46\n      jumpi\n        /* \"#utility.yul\":1182:1200   */\n      tag_47\n      tag_30\n      jump\t// in\n    tag_47:\n        /* \"#utility.yul\":1167:1202   */\n    tag_46:\n        /* \"#utility.yul\":1223:1224   */\n      dup3\n        /* \"#utility.yul\":1220:1221   */\n      dup3\n        /* \"#utility.yul\":1216:1225   */\n      mod\n        /* \"#utility.yul\":1211:1225   */\n      swap1\n      pop\n        /* \"#utility.yul\":1055:1231   */\n      swap3\n      swap2\n      pop\n      pop\n      jump\t// out\n\n    auxdata: 0xa2646970667358221220cdce04cfbeccab2351899e6c197686a86ea9e5f5d8116ef7e5795bc55fcd8e2464736f6c634300081a0033\n}\n",
				"bytecode": {
					"linkReferences": {},
					"object": "6080604052600a5f553480156012575f80fd5b50610223806100205f395ff3fe608060405234801561000f575f80fd5b506004361061004a575f3560e01c80632493305e1461004e5780632863a17d14610058578063de29278914610076578063e5aa3d5814610094575b5f80fd5b6100566100b2565b005b610060610100565b60405161006d9190610146565b60405180910390f35b61007e610112565b60405161008b9190610146565b60405180910390f35b61009c610127565b6040516100a99190610177565b60405180910390f35b5f60025f546100c191906101bd565b036100e4576001805f6101000a81548160ff0219169083151502179055506100fe565b5f60015f6101000a81548160ff0219169083151502179055505b565b60015f9054906101000a900460ff1681565b5f60015f9054906101000a900460ff16905090565b5f5481565b5f8115159050919050565b6101408161012c565b82525050565b5f6020820190506101595f830184610137565b92915050565b5f819050919050565b6101718161015f565b82525050565b5f60208201905061018a5f830184610168565b92915050565b7f4e487b71000000000000000000000000000000000000000000000000000000005f52601260045260245ffd5b5f6101c78261015f565b91506101d28361015f565b9250826101e2576101e1610190565b5b82820690509291505056fea2646970667358221220cdce04cfbeccab2351899e6c197686a86ea9e5f5d8116ef7e5795bc55fcd8e2464736f6c634300081a0033",
					"opcodes": "PUSH1 0x80 PUSH1 0x40 MSTORE PUSH1 0xA PUSH0 SSTORE CALLVALUE DUP1 ISZERO PUSH1 0x12 JUMPI PUSH0 DUP1 REVERT JUMPDEST POP PUSH2 0x223 DUP1 PUSH2 0x20 PUSH0 CODECOPY PUSH0 RETURN INVALID PUSH1 0x80 PUSH1 0x40 MSTORE CALLVALUE DUP1 ISZERO PUSH2 0xF JUMPI PUSH0 DUP1 REVERT JUMPDEST POP PUSH1 0x4 CALLDATASIZE LT PUSH2 0x4A JUMPI PUSH0 CALLDATALOAD PUSH1 0xE0 SHR DUP1 PUSH4 0x2493305E EQ PUSH2 0x4E JUMPI DUP1 PUSH4 0x2863A17D EQ PUSH2 0x58 JUMPI DUP1 PUSH4 0xDE292789 EQ PUSH2 0x76 JUMPI DUP1 PUSH4 0xE5AA3D58 EQ PUSH2 0x94 JUMPI JUMPDEST PUSH0 DUP1 REVERT JUMPDEST PUSH2 0x56 PUSH2 0xB2 JUMP JUMPDEST STOP JUMPDEST PUSH2 0x60 PUSH2 0x100 JUMP JUMPDEST PUSH1 0x40 MLOAD PUSH2 0x6D SWAP2 SWAP1 PUSH2 0x146 JUMP JUMPDEST PUSH1 0x40 MLOAD DUP1 SWAP2 SUB SWAP1 RETURN JUMPDEST PUSH2 0x7E PUSH2 0x112 JUMP JUMPDEST PUSH1 0x40 MLOAD PUSH2 0x8B SWAP2 SWAP1 PUSH2 0x146 JUMP JUMPDEST PUSH1 0x40 MLOAD DUP1 SWAP2 SUB SWAP1 RETURN JUMPDEST PUSH2 0x9C PUSH2 0x127 JUMP JUMPDEST PUSH1 0x40 MLOAD PUSH2 0xA9 SWAP2 SWAP1 PUSH2 0x177 JUMP JUMPDEST PUSH1 0x40 MLOAD DUP1 SWAP2 SUB SWAP1 RETURN JUMPDEST PUSH0 PUSH1 0x2 PUSH0 SLOAD PUSH2 0xC1 SWAP2 SWAP1 PUSH2 0x1BD JUMP JUMPDEST SUB PUSH2 0xE4 JUMPI PUSH1 0x1 DUP1 PUSH0 PUSH2 0x100 EXP DUP2 SLOAD DUP2 PUSH1 0xFF MUL NOT AND SWAP1 DUP4 ISZERO ISZERO MUL OR SWAP1 SSTORE POP PUSH2 0xFE JUMP JUMPDEST PUSH0 PUSH1 0x1 PUSH0 PUSH2 0x100 EXP DUP2 SLOAD DUP2 PUSH1 0xFF MUL NOT AND SWAP1 DUP4 ISZERO ISZERO MUL OR SWAP1 SSTORE POP JUMPDEST JUMP JUMPDEST PUSH1 0x1 PUSH0 SWAP1 SLOAD SWAP1 PUSH2 0x100 EXP SWAP1 DIV PUSH1 0xFF AND DUP2 JUMP JUMPDEST PUSH0 PUSH1 0x1 PUSH0 SWAP1 SLOAD SWAP1 PUSH2 0x100 EXP SWAP1 DIV PUSH1 0xFF AND SWAP1 POP SWAP1 JUMP JUMPDEST PUSH0 SLOAD DUP2 JUMP JUMPDEST PUSH0 DUP2 ISZERO ISZERO SWAP1 POP SWAP2 SWAP1 POP JUMP JUMPDEST PUSH2 0x140 DUP2 PUSH2 0x12C JUMP JUMPDEST DUP3 MSTORE POP POP JUMP JUMPDEST PUSH0 PUSH1 0x20 DUP3 ADD SWAP1 POP PUSH2 0x159 PUSH0 DUP4 ADD DUP5 PUSH2 0x137 JUMP JUMPDEST SWAP3 SWAP2 POP POP JUMP JUMPDEST PUSH0 DUP2 SWAP1 POP SWAP2 SWAP1 POP JUMP JUMPDEST PUSH2 0x171 DUP2 PUSH2 0x15F JUMP JUMPDEST DUP3 MSTORE POP POP JUMP JUMPDEST PUSH0 PUSH1 0x20 DUP3 ADD SWAP1 POP PUSH2 0x18A PUSH0 DUP4 ADD DUP5 PUSH2 0x168 JUMP JUMPDEST SWAP3 SWAP2 POP POP JUMP JUMPDEST PUSH32 0x4E487B7100000000000000000000000000000000000000000000000000000000 PUSH0 MSTORE PUSH1 0x12 PUSH1 0x4 MSTORE PUSH1 0x24 PUSH0 REVERT JUMPDEST PUSH0 PUSH2 0x1C7 DUP3 PUSH2 0x15F JUMP JUMPDEST SWAP2 POP PUSH2 0x1D2 DUP4 PUSH2 0x15F JUMP JUMPDEST SWAP3 POP DUP3 PUSH2 0x1E2 JUMPI PUSH2 0x1E1 PUSH2 0x190 JUMP JUMPDEST JUMPDEST DUP3 DUP3 MOD SWAP1 POP SWAP3 SWAP2 POP POP JUMP INVALID LOG2 PUSH5 0x6970667358 0x22 SLT KECCAK256 0xCD 0xCE DIV 0xCF 0xBE 0xCC 0xAB 0x23 MLOAD DUP10 SWAP15 PUSH13 0x197686A86EA9E5F5D8116EF7E5 PUSH26 0x5BC55FCD8E2464736F6C634300081A0033000000000000000000 "
				},
				"gasEstimates": {
					"creation": {
						"codeDepositCost": "109400",
						"executionCost": "22262",
						"totalCost": "131662"
					},
					"external": {
						"decisionMaking()": "infinite",
						"even()": "2466",
						"getResult()": "2495",
						"i()": "2468"
					}
				},
				"methodIdentifiers": {
					"decisionMaking()": "2493305e",
					"even()": "2863a17d",
					"getResult()": "de292789",
					"i()": "e5aa3d58"
				}
			},
			"storageLayout": {
				"storage": [
					{
						"astId": 4,
						"contract": "ifelsestate.sol:Types",
						"label": "i",
						"offset": 0,
						"slot": "0",
						"type": "t_uint256"
					},
					{
						"astId": 6,
						"contract": "ifelsestate.sol:Types",
						"label": "even",
						"offset": 0,
						"slot": "1",
						"type": "t_bool"
					}
				],
				"types": {
					"t_bool": {
						"encoding": "inplace",
						"label": "bool",
						"numberOfBytes": "1"
					},
					"t_uint256": {
						"encoding": "inplace",
						"label": "uint256",
						"numberOfBytes": "32"
					}
				}
			},
			"userdoc": {
				"kind": "user",
				"methods": {},
				"version": 1
			}
		}
	}
}