{
	"Arthimeticoperator.sol": {
		"SolidityTest": {
			"abi": [
				{
					"inputs": [],
					"stateMutability": "nonpayable",
					"type": "constructor"
				},
				{
					"inputs": [],
					"name": "a",
					"outputs": [
						{
							"internalType": "uint16",
							"name": "",
							"type": "uint16"
						}
					],
					"stateMutability": "view",
					"type": "function"
				},
				{
					"inputs": [],
					"name": "b",
					"outputs": [
						{
							"internalType": "uint16",
							"name": "",
							"type": "uint16"
						}
					],
					"stateMutability": "view",
					"type": "function"
				},
				{
					"inputs": [],
					"name": "dec",
					"outputs": [
						{
							"internalType": "uint256",
							"name": "",
							"type": "uint256"
						}
					],
					"stateMutability": "view",
					"type": "function"
				},
				{
					"inputs": [],
					"name": "diff",
					"outputs": [
						{
							"internalType": "uint256",
							"name": "",
							"type": "uint256"
						}
					],
					"stateMutability": "view",
					"type": "function"
				},
				{
					"inputs": [],
					"name": "div",
					"outputs": [
						{
							"internalType": "uint256",
							"name": "",
							"type": "uint256"
						}
					],
					"stateMutability": "view",
					"type": "function"
				},
				{
					"inputs": [],
					"name": "inc",
					"outputs": [
						{
							"internalType": "uint256",
							"name": "",
							"type": "uint256"
						}
					],
					"stateMutability": "view",
					"type": "function"
				},
				{
					"inputs": [],
					"name": "mod",
					"outputs": [
						{
							"internalType": "uint256",
							"name": "",
							"type": "uint256"
						}
					],
					"stateMutability": "view",
					"type": "function"
				},
				{
					"inputs": [],
					"name": "mul",
					"outputs": [
						{
							"internalType": "uint256",
							"name": "",
							"type": "uint256"
						}
					],
					"stateMutability": "view",
					"type": "function"
				},
				{
					"inputs": [],
					"name": "sum",
					"outputs": [
						{
							"internalType": "uint256",
							"name": "",
							"type": "uint256"
						}
					],
					"stateMutability": "view",
					"type": "function"
				}
			],
			"devdoc": {
				"kind": "dev",
				"methods": {},
				"version": 1
			},
			"evm": {
				"assembly": "    /* \"Arthimeticoperator.sol\":60:496  contract SolidityTest {... */\n  mstore(0x40, 0x80)\n    /* \"Arthimeticoperator.sol\":115:117  20 */\n  0x14\n    /* \"Arthimeticoperator.sol\":97:117  uint16 public a = 20 */\n  0x00\n  dup1\n  0x0100\n  exp\n  dup2\n  sload\n  dup2\n  0xffff\n  mul\n  not\n  and\n  swap1\n  dup4\n  0xffff\n  and\n  mul\n  or\n  swap1\n  sstore\n  pop\n    /* \"Arthimeticoperator.sol\":142:144  10 */\n  0x0a\n    /* \"Arthimeticoperator.sol\":124:144  uint16 public b = 10 */\n  0x00\n  exp(0x0100, 0x02)\n  dup2\n  sload\n  dup2\n  0xffff\n  mul\n  not\n  and\n  swap1\n  dup4\n  0xffff\n  and\n  mul\n  or\n  swap1\n  sstore\n  pop\n    /* \"Arthimeticoperator.sol\":319:493  constructor() {... */\n  callvalue\n  dup1\n  iszero\n  tag_1\n  jumpi\n  0x00\n  dup1\n  revert\ntag_1:\n  pop\n    /* \"Arthimeticoperator.sol\":354:355  b */\n  0x00\n  0x02\n  swap1\n  sload\n  swap1\n  0x0100\n  exp\n  swap1\n  div\n  0xffff\n  and\n    /* \"Arthimeticoperator.sol\":350:351  a */\n  0x00\n  dup1\n  sload\n  swap1\n  0x0100\n  exp\n  swap1\n  div\n  0xffff\n  and\n    /* \"Arthimeticoperator.sol\":350:355  a + b */\n  tag_4\n  swap2\n  swap1\n  tag_5\n  jump\t// in\ntag_4:\n    /* \"Arthimeticoperator.sol\":344:355  sum = a + b */\n  0xffff\n  and\n    /* \"Arthimeticoperator.sol\":344:347  sum */\n  0x01\n    /* \"Arthimeticoperator.sol\":344:355  sum = a + b */\n  dup2\n  swap1\n  sstore\n  pop\n    /* \"Arthimeticoperator.sol\":377:378  b */\n  0x00\n  0x02\n  swap1\n  sload\n  swap1\n  0x0100\n  exp\n  swap1\n  div\n  0xffff\n  and\n    /* \"Arthimeticoperator.sol\":373:374  a */\n  0x00\n  dup1\n  sload\n  swap1\n  0x0100\n  exp\n  swap1\n  div\n  0xffff\n  and\n    /* \"Arthimeticoperator.sol\":373:378  a - b */\n  tag_6\n  swap2\n  swap1\n  tag_7\n  jump\t// in\ntag_6:\n    /* \"Arthimeticoperator.sol\":366:378  diff = a - b */\n  0xffff\n  and\n    /* \"Arthimeticoperator.sol\":366:370  diff */\n  0x02\n    /* \"Arthimeticoperator.sol\":366:378  diff = a - b */\n  dup2\n  swap1\n  sstore\n  pop\n    /* \"Arthimeticoperator.sol\":399:400  b */\n  0x00\n  0x02\n  swap1\n  sload\n  swap1\n  0x0100\n  exp\n  swap1\n  div\n  0xffff\n  and\n    /* \"Arthimeticoperator.sol\":395:396  a */\n  0x00\n  dup1\n  sload\n  swap1\n  0x0100\n  exp\n  swap1\n  div\n  0xffff\n  and\n    /* \"Arthimeticoperator.sol\":395:400  a * b */\n  tag_8\n  swap2\n  swap1\n  tag_9\n  jump\t// in\ntag_8:\n    /* \"Arthimeticoperator.sol\":389:400  mul = a * b */\n  0xffff\n  and\n    /* \"Arthimeticoperator.sol\":389:392  mul */\n  0x03\n    /* \"Arthimeticoperator.sol\":389:400  mul = a * b */\n  dup2\n  swap1\n  sstore\n  pop\n    /* \"Arthimeticoperator.sol\":421:422  b */\n  0x00\n  0x02\n  swap1\n  sload\n  swap1\n  0x0100\n  exp\n  swap1\n  div\n  0xffff\n  and\n    /* \"Arthimeticoperator.sol\":417:418  a */\n  0x00\n  dup1\n  sload\n  swap1\n  0x0100\n  exp\n  swap1\n  div\n  0xffff\n  and\n    /* \"Arthimeticoperator.sol\":417:422  a / b */\n  tag_10\n  swap2\n  swap1\n  tag_11\n  jump\t// in\ntag_10:\n    /* \"Arthimeticoperator.sol\":411:422  div = a / b */\n  0xffff\n  and\n    /* \"Arthimeticoperator.sol\":411:414  div */\n  0x04\n    /* \"Arthimeticoperator.sol\":411:422  div = a / b */\n  dup2\n  swap1\n  sstore\n  pop\n    /* \"Arthimeticoperator.sol\":443:444  b */\n  0x00\n  0x02\n  swap1\n  sload\n  swap1\n  0x0100\n  exp\n  swap1\n  div\n  0xffff\n  and\n    /* \"Arthimeticoperator.sol\":439:440  a */\n  0x00\n  dup1\n  sload\n  swap1\n  0x0100\n  exp\n  swap1\n  div\n  0xffff\n  and\n    /* \"Arthimeticoperator.sol\":439:444  a % b */\n  tag_12\n  swap2\n  swap1\n  tag_13\n  jump\t// in\ntag_12:\n    /* \"Arthimeticoperator.sol\":433:444  mod = a % b */\n  0xffff\n  and\n    /* \"Arthimeticoperator.sol\":433:436  mod */\n  0x05\n    /* \"Arthimeticoperator.sol\":433:444  mod = a % b */\n  dup2\n  swap1\n  sstore\n  pop\n    /* \"Arthimeticoperator.sol\":463:464  b */\n  0x00\n  0x02\n    /* \"Arthimeticoperator.sol\":461:464  --b */\n  dup2\n  dup2\n  swap1\n  sload\n  swap1\n  0x0100\n  exp\n  swap1\n  div\n  0xffff\n  and\n  tag_14\n  swap1\n  tag_15\n  jump\t// in\ntag_14:\n  swap2\n  swap1\n  0x0100\n  exp\n  dup2\n  sload\n  dup2\n  0xffff\n  mul\n  not\n  and\n  swap1\n  dup4\n  0xffff\n  and\n  mul\n  or\n  swap1\n  sstore\n    /* \"Arthimeticoperator.sol\":455:464  dec = --b */\n  0xffff\n  and\n    /* \"Arthimeticoperator.sol\":455:458  dec */\n  0x06\n    /* \"Arthimeticoperator.sol\":455:464  dec = --b */\n  dup2\n  swap1\n  sstore\n  pop\n    /* \"Arthimeticoperator.sol\":483:484  a */\n  0x00\n  dup1\n    /* \"Arthimeticoperator.sol\":481:484  ++a */\n  dup2\n  dup2\n  swap1\n  sload\n  swap1\n  0x0100\n  exp\n  swap1\n  div\n  0xffff\n  and\n  tag_16\n  swap1\n  tag_17\n  jump\t// in\ntag_16:\n  swap2\n  swap1\n  0x0100\n  exp\n  dup2\n  sload\n  dup2\n  0xffff\n  mul\n  not\n  and\n  swap1\n  dup4\n  0xffff\n  and\n  mul\n  or\n  swap1\n  sstore\n    /* \"Arthimeticoperator.sol\":475:484  inc = ++a */\n  0xffff\n  and\n    /* \"Arthimeticoperator.sol\":475:478  inc */\n  0x07\n    /* \"Arthimeticoperator.sol\":475:484  inc = ++a */\n  dup2\n  swap1\n  sstore\n  pop\n    /* \"Arthimeticoperator.sol\":60:496  contract SolidityTest {... */\n  jump(tag_18)\n    /* \"#utility.yul\":7:96   */\ntag_19:\n    /* \"#utility.yul\":43:50   */\n  0x00\n    /* \"#utility.yul\":83:89   */\n  0xffff\n    /* \"#utility.yul\":76:81   */\n  dup3\n    /* \"#utility.yul\":72:90   */\n  and\n    /* \"#utility.yul\":61:90   */\n  swap1\n  pop\n    /* \"#utility.yul\":7:96   */\n  swap2\n  swap1\n  pop\n  jump\t// out\n    /* \"#utility.yul\":102:282   */\ntag_20:\n    /* \"#utility.yul\":150:227   */\n  0x4e487b7100000000000000000000000000000000000000000000000000000000\n    /* \"#utility.yul\":147:148   */\n  0x00\n    /* \"#utility.yul\":140:228   */\n  mstore\n    /* \"#utility.yul\":247:251   */\n  0x11\n    /* \"#utility.yul\":244:245   */\n  0x04\n    /* \"#utility.yul\":237:252   */\n  mstore\n    /* \"#utility.yul\":271:275   */\n  0x24\n    /* \"#utility.yul\":268:269   */\n  0x00\n    /* \"#utility.yul\":261:276   */\n  revert\n    /* \"#utility.yul\":288:481   */\ntag_5:\n    /* \"#utility.yul\":327:330   */\n  0x00\n    /* \"#utility.yul\":346:365   */\n  tag_26\n    /* \"#utility.yul\":363:364   */\n  dup3\n    /* \"#utility.yul\":346:365   */\n  tag_19\n  jump\t// in\ntag_26:\n    /* \"#utility.yul\":341:365   */\n  swap2\n  pop\n    /* \"#utility.yul\":379:398   */\n  tag_27\n    /* \"#utility.yul\":396:397   */\n  dup4\n    /* \"#utility.yul\":379:398   */\n  tag_19\n  jump\t// in\ntag_27:\n    /* \"#utility.yul\":374:398   */\n  swap3\n  pop\n    /* \"#utility.yul\":421:422   */\n  dup3\n    /* \"#utility.yul\":418:419   */\n  dup3\n    /* \"#utility.yul\":414:423   */\n  add\n    /* \"#utility.yul\":407:423   */\n  swap1\n  pop\n    /* \"#utility.yul\":444:450   */\n  0xffff\n    /* \"#utility.yul\":439:442   */\n  dup2\n    /* \"#utility.yul\":436:451   */\n  gt\n    /* \"#utility.yul\":433:474   */\n  iszero\n  tag_28\n  jumpi\n    /* \"#utility.yul\":454:472   */\n  tag_29\n  tag_20\n  jump\t// in\ntag_29:\n    /* \"#utility.yul\":433:474   */\ntag_28:\n    /* \"#utility.yul\":288:481   */\n  swap3\n  swap2\n  pop\n  pop\n  jump\t// out\n    /* \"#utility.yul\":487:683   */\ntag_7:\n    /* \"#utility.yul\":526:530   */\n  0x00\n    /* \"#utility.yul\":546:565   */\n  tag_31\n    /* \"#utility.yul\":563:564   */\n  dup3\n    /* \"#utility.yul\":546:565   */\n  tag_19\n  jump\t// in\ntag_31:\n    /* \"#utility.yul\":541:565   */\n  swap2\n  pop\n    /* \"#utility.yul\":579:598   */\n  tag_32\n    /* \"#utility.yul\":596:597   */\n  dup4\n    /* \"#utility.yul\":579:598   */\n  tag_19\n  jump\t// in\ntag_32:\n    /* \"#utility.yul\":574:598   */\n  swap3\n  pop\n    /* \"#utility.yul\":622:623   */\n  dup3\n    /* \"#utility.yul\":619:620   */\n  dup3\n    /* \"#utility.yul\":615:624   */\n  sub\n    /* \"#utility.yul\":607:624   */\n  swap1\n  pop\n    /* \"#utility.yul\":646:652   */\n  0xffff\n    /* \"#utility.yul\":640:644   */\n  dup2\n    /* \"#utility.yul\":637:653   */\n  gt\n    /* \"#utility.yul\":634:676   */\n  iszero\n  tag_33\n  jumpi\n    /* \"#utility.yul\":656:674   */\n  tag_34\n  tag_20\n  jump\t// in\ntag_34:\n    /* \"#utility.yul\":634:676   */\ntag_33:\n    /* \"#utility.yul\":487:683   */\n  swap3\n  swap2\n  pop\n  pop\n  jump\t// out\n    /* \"#utility.yul\":689:964   */\ntag_9:\n    /* \"#utility.yul\":728:735   */\n  0x00\n    /* \"#utility.yul\":751:770   */\n  tag_36\n    /* \"#utility.yul\":768:769   */\n  dup3\n    /* \"#utility.yul\":751:770   */\n  tag_19\n  jump\t// in\ntag_36:\n    /* \"#utility.yul\":746:770   */\n  swap2\n  pop\n    /* \"#utility.yul\":784:803   */\n  tag_37\n    /* \"#utility.yul\":801:802   */\n  dup4\n    /* \"#utility.yul\":784:803   */\n  tag_19\n  jump\t// in\ntag_37:\n    /* \"#utility.yul\":779:803   */\n  swap3\n  pop\n    /* \"#utility.yul\":838:839   */\n  dup3\n    /* \"#utility.yul\":835:836   */\n  dup3\n    /* \"#utility.yul\":831:840   */\n  mul\n    /* \"#utility.yul\":860:889   */\n  tag_38\n    /* \"#utility.yul\":877:888   */\n  dup2\n    /* \"#utility.yul\":860:889   */\n  tag_19\n  jump\t// in\ntag_38:\n    /* \"#utility.yul\":849:889   */\n  swap2\n  pop\n    /* \"#utility.yul\":921:932   */\n  dup1\n    /* \"#utility.yul\":912:919   */\n  dup3\n    /* \"#utility.yul\":909:933   */\n  eq\n    /* \"#utility.yul\":899:957   */\n  tag_39\n  jumpi\n    /* \"#utility.yul\":937:955   */\n  tag_40\n  tag_20\n  jump\t// in\ntag_40:\n    /* \"#utility.yul\":899:957   */\ntag_39:\n    /* \"#utility.yul\":736:964   */\n  pop\n    /* \"#utility.yul\":689:964   */\n  swap3\n  swap2\n  pop\n  pop\n  jump\t// out\n    /* \"#utility.yul\":970:1150   */\ntag_21:\n    /* \"#utility.yul\":1018:1095   */\n  0x4e487b7100000000000000000000000000000000000000000000000000000000\n    /* \"#utility.yul\":1015:1016   */\n  0x00\n    /* \"#utility.yul\":1008:1096   */\n  mstore\n    /* \"#utility.yul\":1115:1119   */\n  0x12\n    /* \"#utility.yul\":1112:1113   */\n  0x04\n    /* \"#utility.yul\":1105:1120   */\n  mstore\n    /* \"#utility.yul\":1139:1143   */\n  0x24\n    /* \"#utility.yul\":1136:1137   */\n  0x00\n    /* \"#utility.yul\":1129:1144   */\n  revert\n    /* \"#utility.yul\":1156:1338   */\ntag_11:\n    /* \"#utility.yul\":1195:1196   */\n  0x00\n    /* \"#utility.yul\":1212:1231   */\n  tag_43\n    /* \"#utility.yul\":1229:1230   */\n  dup3\n    /* \"#utility.yul\":1212:1231   */\n  tag_19\n  jump\t// in\ntag_43:\n    /* \"#utility.yul\":1207:1231   */\n  swap2\n  pop\n    /* \"#utility.yul\":1245:1264   */\n  tag_44\n    /* \"#utility.yul\":1262:1263   */\n  dup4\n    /* \"#utility.yul\":1245:1264   */\n  tag_19\n  jump\t// in\ntag_44:\n    /* \"#utility.yul\":1240:1264   */\n  swap3\n  pop\n    /* \"#utility.yul\":1283:1284   */\n  dup3\n    /* \"#utility.yul\":1273:1308   */\n  tag_45\n  jumpi\n    /* \"#utility.yul\":1288:1306   */\n  tag_46\n  tag_21\n  jump\t// in\ntag_46:\n    /* \"#utility.yul\":1273:1308   */\ntag_45:\n    /* \"#utility.yul\":1330:1331   */\n  dup3\n    /* \"#utility.yul\":1327:1328   */\n  dup3\n    /* \"#utility.yul\":1323:1332   */\n  div\n    /* \"#utility.yul\":1318:1332   */\n  swap1\n  pop\n    /* \"#utility.yul\":1156:1338   */\n  swap3\n  swap2\n  pop\n  pop\n  jump\t// out\n    /* \"#utility.yul\":1344:1517   */\ntag_13:\n    /* \"#utility.yul\":1375:1376   */\n  0x00\n    /* \"#utility.yul\":1392:1411   */\n  tag_48\n    /* \"#utility.yul\":1409:1410   */\n  dup3\n    /* \"#utility.yul\":1392:1411   */\n  tag_19\n  jump\t// in\ntag_48:\n    /* \"#utility.yul\":1387:1411   */\n  swap2\n  pop\n    /* \"#utility.yul\":1425:1444   */\n  tag_49\n    /* \"#utility.yul\":1442:1443   */\n  dup4\n    /* \"#utility.yul\":1425:1444   */\n  tag_19\n  jump\t// in\ntag_49:\n    /* \"#utility.yul\":1420:1444   */\n  swap3\n  pop\n    /* \"#utility.yul\":1463:1464   */\n  dup3\n    /* \"#utility.yul\":1453:1488   */\n  tag_50\n  jumpi\n    /* \"#utility.yul\":1468:1486   */\n  tag_51\n  tag_21\n  jump\t// in\ntag_51:\n    /* \"#utility.yul\":1453:1488   */\ntag_50:\n    /* \"#utility.yul\":1509:1510   */\n  dup3\n    /* \"#utility.yul\":1506:1507   */\n  dup3\n    /* \"#utility.yul\":1502:1511   */\n  mod\n    /* \"#utility.yul\":1497:1511   */\n  swap1\n  pop\n    /* \"#utility.yul\":1344:1517   */\n  swap3\n  swap2\n  pop\n  pop\n  jump\t// out\n    /* \"#utility.yul\":1523:1692   */\ntag_15:\n    /* \"#utility.yul\":1561:1564   */\n  0x00\n    /* \"#utility.yul\":1584:1607   */\n  tag_53\n    /* \"#utility.yul\":1601:1606   */\n  dup3\n    /* \"#utility.yul\":1584:1607   */\n  tag_19\n  jump\t// in\ntag_53:\n    /* \"#utility.yul\":1575:1607   */\n  swap2\n  pop\n    /* \"#utility.yul\":1629:1633   */\n  0x00\n    /* \"#utility.yul\":1622:1627   */\n  dup3\n    /* \"#utility.yul\":1619:1634   */\n  sub\n    /* \"#utility.yul\":1616:1657   */\n  tag_54\n  jumpi\n    /* \"#utility.yul\":1637:1655   */\n  tag_55\n  tag_20\n  jump\t// in\ntag_55:\n    /* \"#utility.yul\":1616:1657   */\ntag_54:\n    /* \"#utility.yul\":1684:1685   */\n  0x01\n    /* \"#utility.yul\":1677:1682   */\n  dup3\n    /* \"#utility.yul\":1673:1686   */\n  sub\n    /* \"#utility.yul\":1666:1686   */\n  swap1\n  pop\n    /* \"#utility.yul\":1523:1692   */\n  swap2\n  swap1\n  pop\n  jump\t// out\n    /* \"#utility.yul\":1698:1869   */\ntag_17:\n    /* \"#utility.yul\":1736:1739   */\n  0x00\n    /* \"#utility.yul\":1759:1782   */\n  tag_57\n    /* \"#utility.yul\":1776:1781   */\n  dup3\n    /* \"#utility.yul\":1759:1782   */\n  tag_19\n  jump\t// in\ntag_57:\n    /* \"#utility.yul\":1750:1782   */\n  swap2\n  pop\n    /* \"#utility.yul\":1804:1810   */\n  0xffff\n    /* \"#utility.yul\":1797:1802   */\n  dup3\n    /* \"#utility.yul\":1794:1811   */\n  sub\n    /* \"#utility.yul\":1791:1834   */\n  tag_58\n  jumpi\n    /* \"#utility.yul\":1814:1832   */\n  tag_59\n  tag_20\n  jump\t// in\ntag_59:\n    /* \"#utility.yul\":1791:1834   */\ntag_58:\n    /* \"#utility.yul\":1861:1862   */\n  0x01\n    /* \"#utility.yul\":1854:1859   */\n  dup3\n    /* \"#utility.yul\":1850:1863   */\n  add\n    /* \"#utility.yul\":1843:1863   */\n  swap1\n  pop\n    /* \"#utility.yul\":1698:1869   */\n  swap2\n  swap1\n  pop\n  jump\t// out\n    /* \"Arthimeticoperator.sol\":60:496  contract SolidityTest {... */\ntag_18:\n  dataSize(sub_0)\n  dup1\n  dataOffset(sub_0)\n  0x00\n  codecopy\n  0x00\n  return\nstop\n\nsub_0: assembly {\n        /* \"Arthimeticoperator.sol\":60:496  contract SolidityTest {... */\n      mstore(0x40, 0x80)\n      callvalue\n      dup1\n      iszero\n      tag_1\n      jumpi\n      0x00\n      dup1\n      revert\n    tag_1:\n      pop\n      jumpi(tag_2, lt(calldatasize, 0x04))\n      shr(0xe0, calldataload(0x00))\n      dup1\n      0x58931c46\n      gt\n      tag_12\n      jumpi\n      dup1\n      0x58931c46\n      eq\n      tag_7\n      jumpi\n      dup1\n      0x853255cc\n      eq\n      tag_8\n      jumpi\n      dup1\n      0xa0d7afb7\n      eq\n      tag_9\n      jumpi\n      dup1\n      0xb3bcfa82\n      eq\n      tag_10\n      jumpi\n      dup1\n      0xf9fa48c3\n      eq\n      tag_11\n      jumpi\n      jump(tag_2)\n    tag_12:\n      dup1\n      0x0dbe671f\n      eq\n      tag_3\n      jumpi\n      dup1\n      0x2986e054\n      eq\n      tag_4\n      jumpi\n      dup1\n      0x371303c0\n      eq\n      tag_5\n      jumpi\n      dup1\n      0x4df7e3d0\n      eq\n      tag_6\n      jumpi\n    tag_2:\n      0x00\n      dup1\n      revert\n        /* \"Arthimeticoperator.sol\":97:117  uint16 public a = 20 */\n    tag_3:\n      tag_13\n      tag_14\n      jump\t// in\n    tag_13:\n      mload(0x40)\n      tag_15\n      swap2\n      swap1\n      tag_16\n      jump\t// in\n    tag_15:\n      mload(0x40)\n      dup1\n      swap2\n      sub\n      swap1\n      return\n        /* \"Arthimeticoperator.sol\":245:260  uint public mod */\n    tag_4:\n      tag_17\n      tag_18\n      jump\t// in\n    tag_17:\n      mload(0x40)\n      tag_19\n      swap2\n      swap1\n      tag_20\n      jump\t// in\n    tag_19:\n      mload(0x40)\n      dup1\n      swap2\n      sub\n      swap1\n      return\n        /* \"Arthimeticoperator.sol\":289:304  uint public inc */\n    tag_5:\n      tag_21\n      tag_22\n      jump\t// in\n    tag_21:\n      mload(0x40)\n      tag_23\n      swap2\n      swap1\n      tag_20\n      jump\t// in\n    tag_23:\n      mload(0x40)\n      dup1\n      swap2\n      sub\n      swap1\n      return\n        /* \"Arthimeticoperator.sol\":124:144  uint16 public b = 10 */\n    tag_6:\n      tag_24\n      tag_25\n      jump\t// in\n    tag_24:\n      mload(0x40)\n      tag_26\n      swap2\n      swap1\n      tag_16\n      jump\t// in\n    tag_26:\n      mload(0x40)\n      dup1\n      swap2\n      sub\n      swap1\n      return\n        /* \"Arthimeticoperator.sol\":201:216  uint public mul */\n    tag_7:\n      tag_27\n      tag_28\n      jump\t// in\n    tag_27:\n      mload(0x40)\n      tag_29\n      swap2\n      swap1\n      tag_20\n      jump\t// in\n    tag_29:\n      mload(0x40)\n      dup1\n      swap2\n      sub\n      swap1\n      return\n        /* \"Arthimeticoperator.sol\":156:171  uint public sum */\n    tag_8:\n      tag_30\n      tag_31\n      jump\t// in\n    tag_30:\n      mload(0x40)\n      tag_32\n      swap2\n      swap1\n      tag_20\n      jump\t// in\n    tag_32:\n      mload(0x40)\n      dup1\n      swap2\n      sub\n      swap1\n      return\n        /* \"Arthimeticoperator.sol\":178:194  uint public diff */\n    tag_9:\n      tag_33\n      tag_34\n      jump\t// in\n    tag_33:\n      mload(0x40)\n      tag_35\n      swap2\n      swap1\n      tag_20\n      jump\t// in\n    tag_35:\n      mload(0x40)\n      dup1\n      swap2\n      sub\n      swap1\n      return\n        /* \"Arthimeticoperator.sol\":267:282  uint public dec */\n    tag_10:\n      tag_36\n      tag_37\n      jump\t// in\n    tag_36:\n      mload(0x40)\n      tag_38\n      swap2\n      swap1\n      tag_20\n      jump\t// in\n    tag_38:\n      mload(0x40)\n      dup1\n      swap2\n      sub\n      swap1\n      return\n        /* \"Arthimeticoperator.sol\":223:238  uint public div */\n    tag_11:\n      tag_39\n      tag_40\n      jump\t// in\n    tag_39:\n      mload(0x40)\n      tag_41\n      swap2\n      swap1\n      tag_20\n      jump\t// in\n    tag_41:\n      mload(0x40)\n      dup1\n      swap2\n      sub\n      swap1\n      return\n        /* \"Arthimeticoperator.sol\":97:117  uint16 public a = 20 */\n    tag_14:\n      0x00\n      dup1\n      sload\n      swap1\n      0x0100\n      exp\n      swap1\n      div\n      0xffff\n      and\n      dup2\n      jump\t// out\n        /* \"Arthimeticoperator.sol\":245:260  uint public mod */\n    tag_18:\n      sload(0x05)\n      dup2\n      jump\t// out\n        /* \"Arthimeticoperator.sol\":289:304  uint public inc */\n    tag_22:\n      sload(0x07)\n      dup2\n      jump\t// out\n        /* \"Arthimeticoperator.sol\":124:144  uint16 public b = 10 */\n    tag_25:\n      0x00\n      0x02\n      swap1\n      sload\n      swap1\n      0x0100\n      exp\n      swap1\n      div\n      0xffff\n      and\n      dup2\n      jump\t// out\n        /* \"Arthimeticoperator.sol\":201:216  uint public mul */\n    tag_28:\n      sload(0x03)\n      dup2\n      jump\t// out\n        /* \"Arthimeticoperator.sol\":156:171  uint public sum */\n    tag_31:\n      sload(0x01)\n      dup2\n      jump\t// out\n        /* \"Arthimeticoperator.sol\":178:194  uint public diff */\n    tag_34:\n      sload(0x02)\n      dup2\n      jump\t// out\n        /* \"Arthimeticoperator.sol\":267:282  uint public dec */\n    tag_37:\n      sload(0x06)\n      dup2\n      jump\t// out\n        /* \"Arthimeticoperator.sol\":223:238  uint public div */\n    tag_40:\n      sload(0x04)\n      dup2\n      jump\t// out\n        /* \"#utility.yul\":7:96   */\n    tag_42:\n        /* \"#utility.yul\":43:50   */\n      0x00\n        /* \"#utility.yul\":83:89   */\n      0xffff\n        /* \"#utility.yul\":76:81   */\n      dup3\n        /* \"#utility.yul\":72:90   */\n      and\n        /* \"#utility.yul\":61:90   */\n      swap1\n      pop\n        /* \"#utility.yul\":7:96   */\n      swap2\n      swap1\n      pop\n      jump\t// out\n        /* \"#utility.yul\":102:217   */\n    tag_43:\n        /* \"#utility.yul\":187:210   */\n      tag_49\n        /* \"#utility.yul\":204:209   */\n      dup2\n        /* \"#utility.yul\":187:210   */\n      tag_42\n      jump\t// in\n    tag_49:\n        /* \"#utility.yul\":182:185   */\n      dup3\n        /* \"#utility.yul\":175:211   */\n      mstore\n        /* \"#utility.yul\":102:217   */\n      pop\n      pop\n      jump\t// out\n        /* \"#utility.yul\":223:441   */\n    tag_16:\n        /* \"#utility.yul\":314:318   */\n      0x00\n        /* \"#utility.yul\":352:354   */\n      0x20\n        /* \"#utility.yul\":341:350   */\n      dup3\n        /* \"#utility.yul\":337:355   */\n      add\n        /* \"#utility.yul\":329:355   */\n      swap1\n      pop\n        /* \"#utility.yul\":365:434   */\n      tag_51\n        /* \"#utility.yul\":431:432   */\n      0x00\n        /* \"#utility.yul\":420:429   */\n      dup4\n        /* \"#utility.yul\":416:433   */\n      add\n        /* \"#utility.yul\":407:413   */\n      dup5\n        /* \"#utility.yul\":365:434   */\n      tag_43\n      jump\t// in\n    tag_51:\n        /* \"#utility.yul\":223:441   */\n      swap3\n      swap2\n      pop\n      pop\n      jump\t// out\n        /* \"#utility.yul\":447:524   */\n    tag_44:\n        /* \"#utility.yul\":484:491   */\n      0x00\n        /* \"#utility.yul\":513:518   */\n      dup2\n        /* \"#utility.yul\":502:518   */\n      swap1\n      pop\n        /* \"#utility.yul\":447:524   */\n      swap2\n      swap1\n      pop\n      jump\t// out\n        /* \"#utility.yul\":530:648   */\n    tag_45:\n        /* \"#utility.yul\":617:641   */\n      tag_54\n        /* \"#utility.yul\":635:640   */\n      dup2\n        /* \"#utility.yul\":617:641   */\n      tag_44\n      jump\t// in\n    tag_54:\n        /* \"#utility.yul\":612:615   */\n      dup3\n        /* \"#utility.yul\":605:642   */\n      mstore\n        /* \"#utility.yul\":530:648   */\n      pop\n      pop\n      jump\t// out\n        /* \"#utility.yul\":654:876   */\n    tag_20:\n        /* \"#utility.yul\":747:751   */\n      0x00\n        /* \"#utility.yul\":785:787   */\n      0x20\n        /* \"#utility.yul\":774:783   */\n      dup3\n        /* \"#utility.yul\":770:788   */\n      add\n        /* \"#utility.yul\":762:788   */\n      swap1\n      pop\n        /* \"#utility.yul\":798:869   */\n      tag_56\n        /* \"#utility.yul\":866:867   */\n      0x00\n        /* \"#utility.yul\":855:864   */\n      dup4\n        /* \"#utility.yul\":851:868   */\n      add\n        /* \"#utility.yul\":842:848   */\n      dup5\n        /* \"#utility.yul\":798:869   */\n      tag_45\n      jump\t// in\n    tag_56:\n        /* \"#utility.yul\":654:876   */\n      swap3\n      swap2\n      pop\n      pop\n      jump\t// out\n\n    auxdata: 0xa26469706673582212203b81a195e88b1e586b83eae446685d55dc80dfdf77bf17f4d14fd44a4f09b81664736f6c634300081a0033\n}\n",
				"bytecode": {
					"linkReferences": {},
					"object": "608060405260145f806101000a81548161ffff021916908361ffff160217905550600a5f60026101000a81548161ffff021916908361ffff160217905550348015610048575f80fd5b505f60029054906101000a900461ffff165f8054906101000a900461ffff1661007191906101fd565b61ffff166001819055505f60029054906101000a900461ffff165f8054906101000a900461ffff166100a39190610232565b61ffff166002819055505f60029054906101000a900461ffff165f8054906101000a900461ffff166100d59190610267565b61ffff166003819055505f60029054906101000a900461ffff165f8054906101000a900461ffff1661010791906102d0565b61ffff166004819055505f60029054906101000a900461ffff165f8054906101000a900461ffff166101399190610300565b61ffff166005819055505f600281819054906101000a900461ffff1661015e90610330565b91906101000a81548161ffff021916908361ffff160217905561ffff166006819055505f8081819054906101000a900461ffff1661019b90610357565b91906101000a81548161ffff021916908361ffff160217905561ffff16600781905550610380565b5f61ffff82169050919050565b7f4e487b71000000000000000000000000000000000000000000000000000000005f52601160045260245ffd5b5f610207826101c3565b9150610212836101c3565b9250828201905061ffff81111561022c5761022b6101d0565b5b92915050565b5f61023c826101c3565b9150610247836101c3565b9250828203905061ffff811115610261576102606101d0565b5b92915050565b5f610271826101c3565b915061027c836101c3565b925082820261028a816101c3565b915080821461029c5761029b6101d0565b5b5092915050565b7f4e487b71000000000000000000000000000000000000000000000000000000005f52601260045260245ffd5b5f6102da826101c3565b91506102e5836101c3565b9250826102f5576102f46102a3565b5b828204905092915050565b5f61030a826101c3565b9150610315836101c3565b925082610325576103246102a3565b5b828206905092915050565b5f61033a826101c3565b91505f820361034c5761034b6101d0565b5b600182039050919050565b5f610361826101c3565b915061ffff8203610375576103746101d0565b5b600182019050919050565b61028d8061038d5f395ff3fe608060405234801561000f575f80fd5b5060043610610091575f3560e01c806358931c461161006457806358931c461461010d578063853255cc1461012b578063a0d7afb714610149578063b3bcfa8214610167578063f9fa48c31461018557610091565b80630dbe671f146100955780632986e054146100b3578063371303c0146100d15780634df7e3d0146100ef575b5f80fd5b61009d6101a3565b6040516100aa919061020d565b60405180910390f35b6100bb6101b4565b6040516100c8919061023e565b60405180910390f35b6100d96101ba565b6040516100e6919061023e565b60405180910390f35b6100f76101c0565b604051610104919061020d565b60405180910390f35b6101156101d3565b604051610122919061023e565b60405180910390f35b6101336101d9565b604051610140919061023e565b60405180910390f35b6101516101df565b60405161015e919061023e565b60405180910390f35b61016f6101e5565b60405161017c919061023e565b60405180910390f35b61018d6101eb565b60405161019a919061023e565b60405180910390f35b5f8054906101000a900461ffff1681565b60055481565b60075481565b5f60029054906101000a900461ffff1681565b60035481565b60015481565b60025481565b60065481565b60045481565b5f61ffff82169050919050565b610207816101f1565b82525050565b5f6020820190506102205f8301846101fe565b92915050565b5f819050919050565b61023881610226565b82525050565b5f6020820190506102515f83018461022f565b9291505056fea26469706673582212203b81a195e88b1e586b83eae446685d55dc80dfdf77bf17f4d14fd44a4f09b81664736f6c634300081a0033",
					"opcodes": "PUSH1 0x80 PUSH1 0x40 MSTORE PUSH1 0x14 PUSH0 DUP1 PUSH2 0x100 EXP DUP2 SLOAD DUP2 PUSH2 0xFFFF MUL NOT AND SWAP1 DUP4 PUSH2 0xFFFF AND MUL OR SWAP1 SSTORE POP PUSH1 0xA PUSH0 PUSH1 0x2 PUSH2 0x100 EXP DUP2 SLOAD DUP2 PUSH2 0xFFFF MUL NOT AND SWAP1 DUP4 PUSH2 0xFFFF AND MUL OR SWAP1 SSTORE POP CALLVALUE DUP1 ISZERO PUSH2 0x48 JUMPI PUSH0 DUP1 REVERT JUMPDEST POP PUSH0 PUSH1 0x2 SWAP1 SLOAD SWAP1 PUSH2 0x100 EXP SWAP1 DIV PUSH2 0xFFFF AND PUSH0 DUP1 SLOAD SWAP1 PUSH2 0x100 EXP SWAP1 DIV PUSH2 0xFFFF AND PUSH2 0x71 SWAP2 SWAP1 PUSH2 0x1FD JUMP JUMPDEST PUSH2 0xFFFF AND PUSH1 0x1 DUP2 SWAP1 SSTORE POP PUSH0 PUSH1 0x2 SWAP1 SLOAD SWAP1 PUSH2 0x100 EXP SWAP1 DIV PUSH2 0xFFFF AND PUSH0 DUP1 SLOAD SWAP1 PUSH2 0x100 EXP SWAP1 DIV PUSH2 0xFFFF AND PUSH2 0xA3 SWAP2 SWAP1 PUSH2 0x232 JUMP JUMPDEST PUSH2 0xFFFF AND PUSH1 0x2 DUP2 SWAP1 SSTORE POP PUSH0 PUSH1 0x2 SWAP1 SLOAD SWAP1 PUSH2 0x100 EXP SWAP1 DIV PUSH2 0xFFFF AND PUSH0 DUP1 SLOAD SWAP1 PUSH2 0x100 EXP SWAP1 DIV PUSH2 0xFFFF AND PUSH2 0xD5 SWAP2 SWAP1 PUSH2 0x267 JUMP JUMPDEST PUSH2 0xFFFF AND PUSH1 0x3 DUP2 SWAP1 SSTORE POP PUSH0 PUSH1 0x2 SWAP1 SLOAD SWAP1 PUSH2 0x100 EXP SWAP1 DIV PUSH2 0xFFFF AND PUSH0 DUP1 SLOAD SWAP1 PUSH2 0x100 EXP SWAP1 DIV PUSH2 0xFFFF AND PUSH2 0x107 SWAP2 SWAP1 PUSH2 0x2D0 JUMP JUMPDEST PUSH2 0xFFFF AND PUSH1 0x4 DUP2 SWAP1 SSTORE POP PUSH0 PUSH1 0x2 SWAP1 SLOAD SWAP1 PUSH2 0x100 EXP SWAP1 DIV PUSH2 0xFFFF AND PUSH0 DUP1 SLOAD SWAP1 PUSH2 0x100 EXP SWAP1 DIV PUSH2 0xFFFF AND PUSH2 0x139 SWAP2 SWAP1 PUSH2 0x300 JUMP JUMPDEST PUSH2 0xFFFF AND PUSH1 0x5 DUP2 SWAP1 SSTORE POP PUSH0 PUSH1 0x2 DUP2 DUP2 SWAP1 SLOAD SWAP1 PUSH2 0x100 EXP SWAP1 DIV PUSH2 0xFFFF AND PUSH2 0x15E SWAP1 PUSH2 0x330 JUMP JUMPDEST SWAP2 SWAP1 PUSH2 0x100 EXP DUP2 SLOAD DUP2 PUSH2 0xFFFF MUL NOT AND SWAP1 DUP4 PUSH2 0xFFFF AND MUL OR SWAP1 SSTORE PUSH2 0xFFFF AND PUSH1 0x6 DUP2 SWAP1 SSTORE POP PUSH0 DUP1 DUP2 DUP2 SWAP1 SLOAD SWAP1 PUSH2 0x100 EXP SWAP1 DIV PUSH2 0xFFFF AND PUSH2 0x19B SWAP1 PUSH2 0x357 JUMP JUMPDEST SWAP2 SWAP1 PUSH2 0x100 EXP DUP2 SLOAD DUP2 PUSH2 0xFFFF MUL NOT AND SWAP1 DUP4 PUSH2 0xFFFF AND MUL OR SWAP1 SSTORE PUSH2 0xFFFF AND PUSH1 0x7 DUP2 SWAP1 SSTORE POP PUSH2 0x380 JUMP JUMPDEST PUSH0 PUSH2 0xFFFF DUP3 AND SWAP1 POP SWAP2 SWAP1 POP JUMP JUMPDEST PUSH32 0x4E487B7100000000000000000000000000000000000000000000000000000000 PUSH0 MSTORE PUSH1 0x11 PUSH1 0x4 MSTORE PUSH1 0x24 PUSH0 REVERT JUMPDEST PUSH0 PUSH2 0x207 DUP3 PUSH2 0x1C3 JUMP JUMPDEST SWAP2 POP PUSH2 0x212 DUP4 PUSH2 0x1C3 JUMP JUMPDEST SWAP3 POP DUP3 DUP3 ADD SWAP1 POP PUSH2 0xFFFF DUP2 GT ISZERO PUSH2 0x22C JUMPI PUSH2 0x22B PUSH2 0x1D0 JUMP JUMPDEST JUMPDEST SWAP3 SWAP2 POP POP JUMP JUMPDEST PUSH0 PUSH2 0x23C DUP3 PUSH2 0x1C3 JUMP JUMPDEST SWAP2 POP PUSH2 0x247 DUP4 PUSH2 0x1C3 JUMP JUMPDEST SWAP3 POP DUP3 DUP3 SUB SWAP1 POP PUSH2 0xFFFF DUP2 GT ISZERO PUSH2 0x261 JUMPI PUSH2 0x260 PUSH2 0x1D0 JUMP JUMPDEST JUMPDEST SWAP3 SWAP2 POP POP JUMP JUMPDEST PUSH0 PUSH2 0x271 DUP3 PUSH2 0x1C3 JUMP JUMPDEST SWAP2 POP PUSH2 0x27C DUP4 PUSH2 0x1C3 JUMP JUMPDEST SWAP3 POP DUP3 DUP3 MUL PUSH2 0x28A DUP2 PUSH2 0x1C3 JUMP JUMPDEST SWAP2 POP DUP1 DUP3 EQ PUSH2 0x29C JUMPI PUSH2 0x29B PUSH2 0x1D0 JUMP JUMPDEST JUMPDEST POP SWAP3 SWAP2 POP POP JUMP JUMPDEST PUSH32 0x4E487B7100000000000000000000000000000000000000000000000000000000 PUSH0 MSTORE PUSH1 0x12 PUSH1 0x4 MSTORE PUSH1 0x24 PUSH0 REVERT JUMPDEST PUSH0 PUSH2 0x2DA DUP3 PUSH2 0x1C3 JUMP JUMPDEST SWAP2 POP PUSH2 0x2E5 DUP4 PUSH2 0x1C3 JUMP JUMPDEST SWAP3 POP DUP3 PUSH2 0x2F5 JUMPI PUSH2 0x2F4 PUSH2 0x2A3 JUMP JUMPDEST JUMPDEST DUP3 DUP3 DIV SWAP1 POP SWAP3 SWAP2 POP POP JUMP JUMPDEST PUSH0 PUSH2 0x30A DUP3 PUSH2 0x1C3 JUMP JUMPDEST SWAP2 POP PUSH2 0x315 DUP4 PUSH2 0x1C3 JUMP JUMPDEST SWAP3 POP DUP3 PUSH2 0x325 JUMPI PUSH2 0x324 PUSH2 0x2A3 JUMP JUMPDEST JUMPDEST DUP3 DUP3 MOD SWAP1 POP SWAP3 SWAP2 POP POP JUMP JUMPDEST PUSH0 PUSH2 0x33A DUP3 PUSH2 0x1C3 JUMP JUMPDEST SWAP2 POP PUSH0 DUP3 SUB PUSH2 0x34C JUMPI PUSH2 0x34B PUSH2 0x1D0 JUMP JUMPDEST JUMPDEST PUSH1 0x1 DUP3 SUB SWAP1 POP SWAP2 SWAP1 POP JUMP JUMPDEST PUSH0 PUSH2 0x361 DUP3 PUSH2 0x1C3 JUMP JUMPDEST SWAP2 POP PUSH2 0xFFFF DUP3 SUB PUSH2 0x375 JUMPI PUSH2 0x374 PUSH2 0x1D0 JUMP JUMPDEST JUMPDEST PUSH1 0x1 DUP3 ADD SWAP1 POP SWAP2 SWAP1 POP JUMP JUMPDEST PUSH2 0x28D DUP1 PUSH2 0x38D PUSH0 CODECOPY PUSH0 RETURN INVALID PUSH1 0x80 PUSH1 0x40 MSTORE CALLVALUE DUP1 ISZERO PUSH2 0xF JUMPI PUSH0 DUP1 REVERT JUMPDEST POP PUSH1 0x4 CALLDATASIZE LT PUSH2 0x91 JUMPI PUSH0 CALLDATALOAD PUSH1 0xE0 SHR DUP1 PUSH4 0x58931C46 GT PUSH2 0x64 JUMPI DUP1 PUSH4 0x58931C46 EQ PUSH2 0x10D JUMPI DUP1 PUSH4 0x853255CC EQ PUSH2 0x12B JUMPI DUP1 PUSH4 0xA0D7AFB7 EQ PUSH2 0x149 JUMPI DUP1 PUSH4 0xB3BCFA82 EQ PUSH2 0x167 JUMPI DUP1 PUSH4 0xF9FA48C3 EQ PUSH2 0x185 JUMPI PUSH2 0x91 JUMP JUMPDEST DUP1 PUSH4 0xDBE671F EQ PUSH2 0x95 JUMPI DUP1 PUSH4 0x2986E054 EQ PUSH2 0xB3 JUMPI DUP1 PUSH4 0x371303C0 EQ PUSH2 0xD1 JUMPI DUP1 PUSH4 0x4DF7E3D0 EQ PUSH2 0xEF JUMPI JUMPDEST PUSH0 DUP1 REVERT JUMPDEST PUSH2 0x9D PUSH2 0x1A3 JUMP JUMPDEST PUSH1 0x40 MLOAD PUSH2 0xAA SWAP2 SWAP1 PUSH2 0x20D JUMP JUMPDEST PUSH1 0x40 MLOAD DUP1 SWAP2 SUB SWAP1 RETURN JUMPDEST PUSH2 0xBB PUSH2 0x1B4 JUMP JUMPDEST PUSH1 0x40 MLOAD PUSH2 0xC8 SWAP2 SWAP1 PUSH2 0x23E JUMP JUMPDEST PUSH1 0x40 MLOAD DUP1 SWAP2 SUB SWAP1 RETURN JUMPDEST PUSH2 0xD9 PUSH2 0x1BA JUMP JUMPDEST PUSH1 0x40 MLOAD PUSH2 0xE6 SWAP2 SWAP1 PUSH2 0x23E JUMP JUMPDEST PUSH1 0x40 MLOAD DUP1 SWAP2 SUB SWAP1 RETURN JUMPDEST PUSH2 0xF7 PUSH2 0x1C0 JUMP JUMPDEST PUSH1 0x40 MLOAD PUSH2 0x104 SWAP2 SWAP1 PUSH2 0x20D JUMP JUMPDEST PUSH1 0x40 MLOAD DUP1 SWAP2 SUB SWAP1 RETURN JUMPDEST PUSH2 0x115 PUSH2 0x1D3 JUMP JUMPDEST PUSH1 0x40 MLOAD PUSH2 0x122 SWAP2 SWAP1 PUSH2 0x23E JUMP JUMPDEST PUSH1 0x40 MLOAD DUP1 SWAP2 SUB SWAP1 RETURN JUMPDEST PUSH2 0x133 PUSH2 0x1D9 JUMP JUMPDEST PUSH1 0x40 MLOAD PUSH2 0x140 SWAP2 SWAP1 PUSH2 0x23E JUMP JUMPDEST PUSH1 0x40 MLOAD DUP1 SWAP2 SUB SWAP1 RETURN JUMPDEST PUSH2 0x151 PUSH2 0x1DF JUMP JUMPDEST PUSH1 0x40 MLOAD PUSH2 0x15E SWAP2 SWAP1 PUSH2 0x23E JUMP JUMPDEST PUSH1 0x40 MLOAD DUP1 SWAP2 SUB SWAP1 RETURN JUMPDEST PUSH2 0x16F PUSH2 0x1E5 JUMP JUMPDEST PUSH1 0x40 MLOAD PUSH2 0x17C SWAP2 SWAP1 PUSH2 0x23E JUMP JUMPDEST PUSH1 0x40 MLOAD DUP1 SWAP2 SUB SWAP1 RETURN JUMPDEST PUSH2 0x18D PUSH2 0x1EB JUMP JUMPDEST PUSH1 0x40 MLOAD PUSH2 0x19A SWAP2 SWAP1 PUSH2 0x23E JUMP JUMPDEST PUSH1 0x40 MLOAD DUP1 SWAP2 SUB SWAP1 RETURN JUMPDEST PUSH0 DUP1 SLOAD SWAP1 PUSH2 0x100 EXP SWAP1 DIV PUSH2 0xFFFF AND DUP2 JUMP JUMPDEST PUSH1 0x5 SLOAD DUP2 JUMP JUMPDEST PUSH1 0x7 SLOAD DUP2 JUMP JUMPDEST PUSH0 PUSH1 0x2 SWAP1 SLOAD SWAP1 PUSH2 0x100 EXP SWAP1 DIV PUSH2 0xFFFF AND DUP2 JUMP JUMPDEST PUSH1 0x3 SLOAD DUP2 JUMP JUMPDEST PUSH1 0x1 SLOAD DUP2 JUMP JUMPDEST PUSH1 0x2 SLOAD DUP2 JUMP JUMPDEST PUSH1 0x6 SLOAD DUP2 JUMP JUMPDEST PUSH1 0x4 SLOAD DUP2 JUMP JUMPDEST PUSH0 PUSH2 0xFFFF DUP3 AND SWAP1 POP SWAP2 SWAP1 POP JUMP JUMPDEST PUSH2 0x207 DUP2 PUSH2 0x1F1 JUMP JUMPDEST DUP3 MSTORE POP POP JUMP JUMPDEST PUSH0 PUSH1 0x20 DUP3 ADD SWAP1 POP PUSH2 0x220 PUSH0 DUP4 ADD DUP5 PUSH2 0x1FE JUMP JUMPDEST SWAP3 SWAP2 POP POP JUMP JUMPDEST PUSH0 DUP2 SWAP1 POP SWAP2 SWAP1 POP JUMP JUMPDEST PUSH2 0x238 DUP2 PUSH2 0x226 JUMP JUMPDEST DUP3 MSTORE POP POP JUMP JUMPDEST PUSH0 PUSH1 0x20 DUP3 ADD SWAP1 POP PUSH2 0x251 PUSH0 DUP4 ADD DUP5 PUSH2 0x22F JUMP JUMPDEST SWAP3 SWAP2 POP POP JUMP INVALID LOG2 PUSH5 0x6970667358 0x22 SLT KECCAK256 EXTCODESIZE DUP2 LOG1 SWAP6 0xE8 DUP12 0x1E PC PUSH12 0x83EAE446685D55DC80DFDF77 0xBF OR DELEGATECALL 0xD1 0x4F 0xD4 BLOBBASEFEE 0x4F MULMOD 0xB8 AND PUSH5 0x736F6C6343 STOP ADDMOD BYTE STOP CALLER "
				},
				"gasEstimates": {
					"creation": {
						"codeDepositCost": "130600",
						"executionCost": "infinite",
						"totalCost": "infinite"
					},
					"external": {
						"a()": "2464",
						"b()": "2583",
						"dec()": "2491",
						"diff()": "2469",
						"div()": "2513",
						"inc()": "2470",
						"mod()": "2448",
						"mul()": "2425",
						"sum()": "2447"
					}
				},
				"methodIdentifiers": {
					"a()": "0dbe671f",
					"b()": "4df7e3d0",
					"dec()": "b3bcfa82",
					"diff()": "a0d7afb7",
					"div()": "f9fa48c3",
					"inc()": "371303c0",
					"mod()": "2986e054",
					"mul()": "58931c46",
					"sum()": "853255cc"
				}
			},
			"storageLayout": {
				"storage": [
					{
						"astId": 4,
						"contract": "Arthimeticoperator.sol:SolidityTest",
						"label": "a",
						"offset": 0,
						"slot": "0",
						"type": "t_uint16"
					},
					{
						"astId": 7,
						"contract": "Arthimeticoperator.sol:SolidityTest",
						"label": "b",
						"offset": 2,
						"slot": "0",
						"type": "t_uint16"
					},
					{
						"astId": 9,
						"contract": "Arthimeticoperator.sol:SolidityTest",
						"label": "sum",
						"offset": 0,
						"slot": "1",
						"type": "t_uint256"
					},
					{
						"astId": 11,
						"contract": "Arthimeticoperator.sol:SolidityTest",
						"label": "diff",
						"offset": 0,
						"slot": "2",
						"type": "t_uint256"
					},
					{
						"astId": 13,
						"contract": "Arthimeticoperator.sol:SolidityTest",
						"label": "mul",
						"offset": 0,
						"slot": "3",
						"type": "t_uint256"
					},
					{
						"astId": 15,
						"contract": "Arthimeticoperator.sol:SolidityTest",
						"label": "div",
						"offset": 0,
						"slot": "4",
						"type": "t_uint256"
					},
					{
						"astId": 17,
						"contract": "Arthimeticoperator.sol:SolidityTest",
						"label": "mod",
						"offset": 0,
						"slot": "5",
						"type": "t_uint256"
					},
					{
						"astId": 19,
						"contract": "Arthimeticoperator.sol:SolidityTest",
						"label": "dec",
						"offset": 0,
						"slot": "6",
						"type": "t_uint256"
					},
					{
						"astId": 21,
						"contract": "Arthimeticoperator.sol:SolidityTest",
						"label": "inc",
						"offset": 0,
						"slot": "7",
						"type": "t_uint256"
					}
				],
				"types": {
					"t_uint16": {
						"encoding": "inplace",
						"label": "uint16",
						"numberOfBytes": "2"
					},
					"t_uint256": {
						"encoding": "inplace",
						"label": "uint256",
						"numberOfBytes": "32"
					}
				}
			},
			"userdoc": {
				"kind": "user",
				"methods": {},
				"version": 1
			}
		}
	}
}