{
	"mathsfunc.sol": {
		"Test": {
			"abi": [
				{
					"inputs": [],
					"name": "callAddMod",
					"outputs": [
						{
							"internalType": "uint256",
							"name": "",
							"type": "uint256"
						}
					],
					"stateMutability": "pure",
					"type": "function"
				},
				{
					"inputs": [],
					"name": "callMulMod",
					"outputs": [
						{
							"internalType": "uint256",
							"name": "",
							"type": "uint256"
						}
					],
					"stateMutability": "pure",
					"type": "function"
				}
			],
			"devdoc": {
				"kind": "dev",
				"methods": {},
				"version": 1
			},
			"evm": {
				"assembly": "    /* \"mathsfunc.sol\":60:435  contract Test {... */\n  mstore(0x40, 0x80)\n  callvalue\n  dup1\n  iszero\n  tag_1\n  jumpi\n  0x00\n  dup1\n  revert\ntag_1:\n  pop\n  dataSize(sub_0)\n  dup1\n  dataOffset(sub_0)\n  0x00\n  codecopy\n  0x00\n  return\nstop\n\nsub_0: assembly {\n        /* \"mathsfunc.sol\":60:435  contract Test {... */\n      mstore(0x40, 0x80)\n      callvalue\n      dup1\n      iszero\n      tag_1\n      jumpi\n      0x00\n      dup1\n      revert\n    tag_1:\n      pop\n      jumpi(tag_2, lt(calldatasize, 0x04))\n      shr(0xe0, calldataload(0x00))\n      dup1\n      0xaa4e8744\n      eq\n      tag_3\n      jumpi\n      dup1\n      0xf9b41691\n      eq\n      tag_4\n      jumpi\n    tag_2:\n      0x00\n      dup1\n      revert\n        /* \"mathsfunc.sol\":314:432  function callMulMod() public pure returns (uint) {... */\n    tag_3:\n      tag_5\n      tag_6\n      jump\t// in\n    tag_5:\n      mload(0x40)\n      tag_7\n      swap2\n      swap1\n      tag_8\n      jump\t// in\n    tag_7:\n      mload(0x40)\n      dup1\n      swap2\n      sub\n      swap1\n      return\n        /* \"mathsfunc.sol\":133:250  function callAddMod() public pure returns (uint) {... */\n    tag_4:\n      tag_9\n      tag_10\n      jump\t// in\n    tag_9:\n      mload(0x40)\n      tag_11\n      swap2\n      swap1\n      tag_8\n      jump\t// in\n    tag_11:\n      mload(0x40)\n      dup1\n      swap2\n      sub\n      swap1\n      return\n        /* \"mathsfunc.sol\":314:432  function callMulMod() public pure returns (uint) {... */\n    tag_6:\n        /* \"mathsfunc.sol\":357:361  uint */\n      0x00\n        /* \"mathsfunc.sol\":394:395  3 */\n      0x03\n        /* \"mathsfunc.sol\":381:396  mulmod(4, 5, 3) */\n      dup1\n      tag_13\n      jumpi\n      tag_14\n      tag_15\n      jump\t// in\n    tag_14:\n    tag_13:\n        /* \"mathsfunc.sol\":391:392  5 */\n      0x05\n        /* \"mathsfunc.sol\":388:389  4 */\n      0x04\n        /* \"mathsfunc.sol\":381:396  mulmod(4, 5, 3) */\n      mulmod\n        /* \"mathsfunc.sol\":374:396  return mulmod(4, 5, 3) */\n      swap1\n      pop\n        /* \"mathsfunc.sol\":314:432  function callMulMod() public pure returns (uint) {... */\n      swap1\n      jump\t// out\n        /* \"mathsfunc.sol\":133:250  function callAddMod() public pure returns (uint) {... */\n    tag_10:\n        /* \"mathsfunc.sol\":176:180  uint */\n      0x00\n        /* \"mathsfunc.sol\":213:214  3 */\n      0x03\n        /* \"mathsfunc.sol\":200:215  addmod(4, 5, 3) */\n      dup1\n      tag_17\n      jumpi\n      tag_18\n      tag_15\n      jump\t// in\n    tag_18:\n    tag_17:\n        /* \"mathsfunc.sol\":210:211  5 */\n      0x05\n        /* \"mathsfunc.sol\":207:208  4 */\n      0x04\n        /* \"mathsfunc.sol\":200:215  addmod(4, 5, 3) */\n      addmod\n        /* \"mathsfunc.sol\":193:215  return addmod(4, 5, 3) */\n      swap1\n      pop\n        /* \"mathsfunc.sol\":133:250  function callAddMod() public pure returns (uint) {... */\n      swap1\n      jump\t// out\n        /* \"#utility.yul\":7:84   */\n    tag_19:\n        /* \"#utility.yul\":44:51   */\n      0x00\n        /* \"#utility.yul\":73:78   */\n      dup2\n        /* \"#utility.yul\":62:78   */\n      swap1\n      pop\n        /* \"#utility.yul\":7:84   */\n      swap2\n      swap1\n      pop\n      jump\t// out\n        /* \"#utility.yul\":90:208   */\n    tag_20:\n        /* \"#utility.yul\":177:201   */\n      tag_24\n        /* \"#utility.yul\":195:200   */\n      dup2\n        /* \"#utility.yul\":177:201   */\n      tag_19\n      jump\t// in\n    tag_24:\n        /* \"#utility.yul\":172:175   */\n      dup3\n        /* \"#utility.yul\":165:202   */\n      mstore\n        /* \"#utility.yul\":90:208   */\n      pop\n      pop\n      jump\t// out\n        /* \"#utility.yul\":214:436   */\n    tag_8:\n        /* \"#utility.yul\":307:311   */\n      0x00\n        /* \"#utility.yul\":345:347   */\n      0x20\n        /* \"#utility.yul\":334:343   */\n      dup3\n        /* \"#utility.yul\":330:348   */\n      add\n        /* \"#utility.yul\":322:348   */\n      swap1\n      pop\n        /* \"#utility.yul\":358:429   */\n      tag_26\n        /* \"#utility.yul\":426:427   */\n      0x00\n        /* \"#utility.yul\":415:424   */\n      dup4\n        /* \"#utility.yul\":411:428   */\n      add\n        /* \"#utility.yul\":402:408   */\n      dup5\n        /* \"#utility.yul\":358:429   */\n      tag_20\n      jump\t// in\n    tag_26:\n        /* \"#utility.yul\":214:436   */\n      swap3\n      swap2\n      pop\n      pop\n      jump\t// out\n        /* \"#utility.yul\":442:622   */\n    tag_15:\n        /* \"#utility.yul\":490:567   */\n      0x4e487b7100000000000000000000000000000000000000000000000000000000\n        /* \"#utility.yul\":487:488   */\n      0x00\n        /* \"#utility.yul\":480:568   */\n      mstore\n        /* \"#utility.yul\":587:591   */\n      0x12\n        /* \"#utility.yul\":584:585   */\n      0x04\n        /* \"#utility.yul\":577:592   */\n      mstore\n        /* \"#utility.yul\":611:615   */\n      0x24\n        /* \"#utility.yul\":608:609   */\n      0x00\n        /* \"#utility.yul\":601:616   */\n      revert\n\n    auxdata: 0xa264697066735822122045ef89cc53b7f80c050c4ebcc8d2761bfdc453ed4fd94eaa82a0c2f8ae65720364736f6c634300081a0033\n}\n",
				"bytecode": {
					"linkReferences": {},
					"object": "6080604052348015600e575f80fd5b506101288061001c5f395ff3fe6080604052348015600e575f80fd5b50600436106030575f3560e01c8063aa4e8744146034578063f9b4169114604e575b5f80fd5b603a6068565b6040516045919060ae565b60405180910390f35b60546080565b604051605f919060ae565b60405180910390f35b5f600380607657607560c5565b5b6005600409905090565b5f600380608e57608d60c5565b5b6005600408905090565b5f819050919050565b60a8816098565b82525050565b5f60208201905060bf5f83018460a1565b92915050565b7f4e487b71000000000000000000000000000000000000000000000000000000005f52601260045260245ffdfea264697066735822122045ef89cc53b7f80c050c4ebcc8d2761bfdc453ed4fd94eaa82a0c2f8ae65720364736f6c634300081a0033",
					"opcodes": "PUSH1 0x80 PUSH1 0x40 MSTORE CALLVALUE DUP1 ISZERO PUSH1 0xE JUMPI PUSH0 DUP1 REVERT JUMPDEST POP PUSH2 0x128 DUP1 PUSH2 0x1C PUSH0 CODECOPY PUSH0 RETURN INVALID PUSH1 0x80 PUSH1 0x40 MSTORE CALLVALUE DUP1 ISZERO PUSH1 0xE JUMPI PUSH0 DUP1 REVERT JUMPDEST POP PUSH1 0x4 CALLDATASIZE LT PUSH1 0x30 JUMPI PUSH0 CALLDATALOAD PUSH1 0xE0 SHR DUP1 PUSH4 0xAA4E8744 EQ PUSH1 0x34 JUMPI DUP1 PUSH4 0xF9B41691 EQ PUSH1 0x4E JUMPI JUMPDEST PUSH0 DUP1 REVERT JUMPDEST PUSH1 0x3A PUSH1 0x68 JUMP JUMPDEST PUSH1 0x40 MLOAD PUSH1 0x45 SWAP2 SWAP1 PUSH1 0xAE JUMP JUMPDEST PUSH1 0x40 MLOAD DUP1 SWAP2 SUB SWAP1 RETURN JUMPDEST PUSH1 0x54 PUSH1 0x80 JUMP JUMPDEST PUSH1 0x40 MLOAD PUSH1 0x5F SWAP2 SWAP1 PUSH1 0xAE JUMP JUMPDEST PUSH1 0x40 MLOAD DUP1 SWAP2 SUB SWAP1 RETURN JUMPDEST PUSH0 PUSH1 0x3 DUP1 PUSH1 0x76 JUMPI PUSH1 0x75 PUSH1 0xC5 JUMP JUMPDEST JUMPDEST PUSH1 0x5 PUSH1 0x4 MULMOD SWAP1 POP SWAP1 JUMP JUMPDEST PUSH0 PUSH1 0x3 DUP1 PUSH1 0x8E JUMPI PUSH1 0x8D PUSH1 0xC5 JUMP JUMPDEST JUMPDEST PUSH1 0x5 PUSH1 0x4 ADDMOD SWAP1 POP SWAP1 JUMP JUMPDEST PUSH0 DUP2 SWAP1 POP SWAP2 SWAP1 POP JUMP JUMPDEST PUSH1 0xA8 DUP2 PUSH1 0x98 JUMP JUMPDEST DUP3 MSTORE POP POP JUMP JUMPDEST PUSH0 PUSH1 0x20 DUP3 ADD SWAP1 POP PUSH1 0xBF PUSH0 DUP4 ADD DUP5 PUSH1 0xA1 JUMP JUMPDEST SWAP3 SWAP2 POP POP JUMP JUMPDEST PUSH32 0x4E487B7100000000000000000000000000000000000000000000000000000000 PUSH0 MSTORE PUSH1 0x12 PUSH1 0x4 MSTORE PUSH1 0x24 PUSH0 REVERT INVALID LOG2 PUSH5 0x6970667358 0x22 SLT KECCAK256 GASLIMIT 0xEF DUP10 0xCC MSTORE8 0xB7 0xF8 0xC SDIV 0xC 0x4E 0xBC 0xC8 0xD2 PUSH23 0x1BFDC453ED4FD94EAA82A0C2F8AE65720364736F6C6343 STOP ADDMOD BYTE STOP CALLER "
				},
				"gasEstimates": {
					"creation": {
						"codeDepositCost": "59200",
						"executionCost": "109",
						"totalCost": "59309"
					},
					"external": {
						"callAddMod()": "363",
						"callMulMod()": "341"
					}
				},
				"methodIdentifiers": {
					"callAddMod()": "f9b41691",
					"callMulMod()": "aa4e8744"
				}
			},
			"storageLayout": {
				"storage": [],
				"types": null
			},
			"userdoc": {
				"kind": "user",
				"methods": {},
				"version": 1
			}
		}
	}
}