{
	"errorhandling(revertstat).sol": {
		"RevertStatement": {
			"abi": [
				{
					"inputs": [
						{
							"internalType": "uint256",
							"name": "_num1",
							"type": "uint256"
						},
						{
							"internalType": "uint256",
							"name": "_num2",
							"type": "uint256"
						}
					],
					"name": "checkOverflow",
					"outputs": [
						{
							"internalType": "string",
							"name": "",
							"type": "string"
						},
						{
							"internalType": "uint256",
							"name": "",
							"type": "uint256"
						}
					],
					"stateMutability": "pure",
					"type": "function"
				}
			],
			"devdoc": {
				"kind": "dev",
				"methods": {},
				"version": 1
			},
			"evm": {
				"assembly": "    /* \"errorhandling(revertstat).sol\":60:500  contract RevertStatement {... */\n  mstore(0x40, 0x80)\n  callvalue\n  dup1\n  iszero\n  tag_1\n  jumpi\n  0x00\n  dup1\n  revert\ntag_1:\n  pop\n  dataSize(sub_0)\n  dup1\n  dataOffset(sub_0)\n  0x00\n  codecopy\n  0x00\n  return\nstop\n\nsub_0: assembly {\n        /* \"errorhandling(revertstat).sol\":60:500  contract RevertStatement {... */\n      mstore(0x40, 0x80)\n      callvalue\n      dup1\n      iszero\n      tag_1\n      jumpi\n      0x00\n      dup1\n      revert\n    tag_1:\n      pop\n      jumpi(tag_2, lt(calldatasize, 0x04))\n      shr(0xe0, calldataload(0x00))\n      dup1\n      0xd6956970\n      eq\n      tag_3\n      jumpi\n    tag_2:\n      0x00\n      dup1\n      revert\n        /* \"errorhandling(revertstat).sol\":141:497  function checkOverflow(uint _num1, uint _num2) public pure returns (string memory, uint) {... */\n    tag_3:\n      tag_4\n      0x04\n      dup1\n      calldatasize\n      sub\n      dup2\n      add\n      swap1\n      tag_5\n      swap2\n      swap1\n      tag_6\n      jump\t// in\n    tag_5:\n      tag_7\n      jump\t// in\n    tag_4:\n      mload(0x40)\n      tag_8\n      swap3\n      swap2\n      swap1\n      tag_9\n      jump\t// in\n    tag_8:\n      mload(0x40)\n      dup1\n      swap2\n      sub\n      swap1\n      return\n    tag_7:\n        /* \"errorhandling(revertstat).sol\":209:222  string memory */\n      0x60\n        /* \"errorhandling(revertstat).sol\":224:228  uint */\n      0x00\n        /* \"errorhandling(revertstat).sol\":241:249  uint sum */\n      dup1\n        /* \"errorhandling(revertstat).sol\":260:265  _num2 */\n      dup4\n        /* \"errorhandling(revertstat).sol\":252:257  _num1 */\n      dup6\n        /* \"errorhandling(revertstat).sol\":252:265  _num1 + _num2 */\n      tag_11\n      swap2\n      swap1\n      tag_12\n      jump\t// in\n    tag_11:\n        /* \"errorhandling(revertstat).sol\":241:265  uint sum = _num1 + _num2 */\n      swap1\n      pop\n        /* \"errorhandling(revertstat).sol\":374:377  255 */\n      0xff\n        /* \"errorhandling(revertstat).sol\":368:371  sum */\n      dup2\n        /* \"errorhandling(revertstat).sol\":368:377  sum > 255 */\n      gt\n        /* \"errorhandling(revertstat).sol\":364:490  if (sum > 255) {... */\n      iszero\n      tag_13\n      jumpi\n        /* \"errorhandling(revertstat).sol\":394:418  revert(\"Overflow Exist\") */\n      mload(0x40)\n      0x08c379a000000000000000000000000000000000000000000000000000000000\n      dup2\n      mstore\n      0x04\n      add\n      tag_14\n      swap1\n      tag_15\n      jump\t// in\n    tag_14:\n      mload(0x40)\n      dup1\n      swap2\n      sub\n      swap1\n      revert\n        /* \"errorhandling(revertstat).sol\":364:490  if (sum > 255) {... */\n    tag_13:\n        /* \"errorhandling(revertstat).sol\":474:477  sum */\n      dup1\n        /* \"errorhandling(revertstat).sol\":451:478  return (\"No Overflow\", sum) */\n      mload(0x40)\n      dup1\n      0x40\n      add\n      0x40\n      mstore\n      dup1\n      0x0b\n      dup2\n      mstore\n      0x20\n      add\n      0x4e6f204f766572666c6f77000000000000000000000000000000000000000000\n      dup2\n      mstore\n      pop\n      swap1\n      swap3\n      pop\n      swap3\n      pop\n      pop\n        /* \"errorhandling(revertstat).sol\":141:497  function checkOverflow(uint _num1, uint _num2) public pure returns (string memory, uint) {... */\n      swap3\n      pop\n      swap3\n      swap1\n      pop\n      jump\t// out\n        /* \"#utility.yul\":88:205   */\n    tag_18:\n        /* \"#utility.yul\":197:198   */\n      0x00\n        /* \"#utility.yul\":194:195   */\n      dup1\n        /* \"#utility.yul\":187:199   */\n      revert\n        /* \"#utility.yul\":334:411   */\n    tag_20:\n        /* \"#utility.yul\":371:378   */\n      0x00\n        /* \"#utility.yul\":400:405   */\n      dup2\n        /* \"#utility.yul\":389:405   */\n      swap1\n      pop\n        /* \"#utility.yul\":334:411   */\n      swap2\n      swap1\n      pop\n      jump\t// out\n        /* \"#utility.yul\":417:539   */\n    tag_21:\n        /* \"#utility.yul\":490:514   */\n      tag_38\n        /* \"#utility.yul\":508:513   */\n      dup2\n        /* \"#utility.yul\":490:514   */\n      tag_20\n      jump\t// in\n    tag_38:\n        /* \"#utility.yul\":483:488   */\n      dup2\n        /* \"#utility.yul\":480:515   */\n      eq\n        /* \"#utility.yul\":470:533   */\n      tag_39\n      jumpi\n        /* \"#utility.yul\":529:530   */\n      0x00\n        /* \"#utility.yul\":526:527   */\n      dup1\n        /* \"#utility.yul\":519:531   */\n      revert\n        /* \"#utility.yul\":470:533   */\n    tag_39:\n        /* \"#utility.yul\":417:539   */\n      pop\n      jump\t// out\n        /* \"#utility.yul\":545:684   */\n    tag_22:\n        /* \"#utility.yul\":591:596   */\n      0x00\n        /* \"#utility.yul\":629:635   */\n      dup2\n        /* \"#utility.yul\":616:636   */\n      calldataload\n        /* \"#utility.yul\":607:636   */\n      swap1\n      pop\n        /* \"#utility.yul\":645:678   */\n      tag_41\n        /* \"#utility.yul\":672:677   */\n      dup2\n        /* \"#utility.yul\":645:678   */\n      tag_21\n      jump\t// in\n    tag_41:\n        /* \"#utility.yul\":545:684   */\n      swap3\n      swap2\n      pop\n      pop\n      jump\t// out\n        /* \"#utility.yul\":690:1164   */\n    tag_6:\n        /* \"#utility.yul\":758:764   */\n      0x00\n        /* \"#utility.yul\":766:772   */\n      dup1\n        /* \"#utility.yul\":815:817   */\n      0x40\n        /* \"#utility.yul\":803:812   */\n      dup4\n        /* \"#utility.yul\":794:801   */\n      dup6\n        /* \"#utility.yul\":790:813   */\n      sub\n        /* \"#utility.yul\":786:818   */\n      slt\n        /* \"#utility.yul\":783:902   */\n      iszero\n      tag_43\n      jumpi\n        /* \"#utility.yul\":821:900   */\n      tag_44\n      tag_18\n      jump\t// in\n    tag_44:\n        /* \"#utility.yul\":783:902   */\n    tag_43:\n        /* \"#utility.yul\":941:942   */\n      0x00\n        /* \"#utility.yul\":966:1019   */\n      tag_45\n        /* \"#utility.yul\":1011:1018   */\n      dup6\n        /* \"#utility.yul\":1002:1008   */\n      dup3\n        /* \"#utility.yul\":991:1000   */\n      dup7\n        /* \"#utility.yul\":987:1009   */\n      add\n        /* \"#utility.yul\":966:1019   */\n      tag_22\n      jump\t// in\n    tag_45:\n        /* \"#utility.yul\":956:1019   */\n      swap3\n      pop\n        /* \"#utility.yul\":912:1029   */\n      pop\n        /* \"#utility.yul\":1068:1070   */\n      0x20\n        /* \"#utility.yul\":1094:1147   */\n      tag_46\n        /* \"#utility.yul\":1139:1146   */\n      dup6\n        /* \"#utility.yul\":1130:1136   */\n      dup3\n        /* \"#utility.yul\":1119:1128   */\n      dup7\n        /* \"#utility.yul\":1115:1137   */\n      add\n        /* \"#utility.yul\":1094:1147   */\n      tag_22\n      jump\t// in\n    tag_46:\n        /* \"#utility.yul\":1084:1147   */\n      swap2\n      pop\n        /* \"#utility.yul\":1039:1157   */\n      pop\n        /* \"#utility.yul\":690:1164   */\n      swap3\n      pop\n      swap3\n      swap1\n      pop\n      jump\t// out\n        /* \"#utility.yul\":1170:1269   */\n    tag_23:\n        /* \"#utility.yul\":1222:1228   */\n      0x00\n        /* \"#utility.yul\":1256:1261   */\n      dup2\n        /* \"#utility.yul\":1250:1262   */\n      mload\n        /* \"#utility.yul\":1240:1262   */\n      swap1\n      pop\n        /* \"#utility.yul\":1170:1269   */\n      swap2\n      swap1\n      pop\n      jump\t// out\n        /* \"#utility.yul\":1275:1444   */\n    tag_24:\n        /* \"#utility.yul\":1359:1370   */\n      0x00\n        /* \"#utility.yul\":1393:1399   */\n      dup3\n        /* \"#utility.yul\":1388:1391   */\n      dup3\n        /* \"#utility.yul\":1381:1400   */\n      mstore\n        /* \"#utility.yul\":1433:1437   */\n      0x20\n        /* \"#utility.yul\":1428:1431   */\n      dup3\n        /* \"#utility.yul\":1424:1438   */\n      add\n        /* \"#utility.yul\":1409:1438   */\n      swap1\n      pop\n        /* \"#utility.yul\":1275:1444   */\n      swap3\n      swap2\n      pop\n      pop\n      jump\t// out\n        /* \"#utility.yul\":1450:1589   */\n    tag_25:\n        /* \"#utility.yul\":1539:1545   */\n      dup3\n        /* \"#utility.yul\":1534:1537   */\n      dup2\n        /* \"#utility.yul\":1529:1532   */\n      dup4\n        /* \"#utility.yul\":1523:1546   */\n      mcopy\n        /* \"#utility.yul\":1580:1581   */\n      0x00\n        /* \"#utility.yul\":1571:1577   */\n      dup4\n        /* \"#utility.yul\":1566:1569   */\n      dup4\n        /* \"#utility.yul\":1562:1578   */\n      add\n        /* \"#utility.yul\":1555:1582   */\n      mstore\n        /* \"#utility.yul\":1450:1589   */\n      pop\n      pop\n      pop\n      jump\t// out\n        /* \"#utility.yul\":1595:1697   */\n    tag_26:\n        /* \"#utility.yul\":1636:1642   */\n      0x00\n        /* \"#utility.yul\":1687:1689   */\n      0x1f\n        /* \"#utility.yul\":1683:1690   */\n      not\n        /* \"#utility.yul\":1678:1680   */\n      0x1f\n        /* \"#utility.yul\":1671:1676   */\n      dup4\n        /* \"#utility.yul\":1667:1681   */\n      add\n        /* \"#utility.yul\":1663:1691   */\n      and\n        /* \"#utility.yul\":1653:1691   */\n      swap1\n      pop\n        /* \"#utility.yul\":1595:1697   */\n      swap2\n      swap1\n      pop\n      jump\t// out\n        /* \"#utility.yul\":1703:2080   */\n    tag_27:\n        /* \"#utility.yul\":1791:1794   */\n      0x00\n        /* \"#utility.yul\":1819:1858   */\n      tag_52\n        /* \"#utility.yul\":1852:1857   */\n      dup3\n        /* \"#utility.yul\":1819:1858   */\n      tag_23\n      jump\t// in\n    tag_52:\n        /* \"#utility.yul\":1874:1945   */\n      tag_53\n        /* \"#utility.yul\":1938:1944   */\n      dup2\n        /* \"#utility.yul\":1933:1936   */\n      dup6\n        /* \"#utility.yul\":1874:1945   */\n      tag_24\n      jump\t// in\n    tag_53:\n        /* \"#utility.yul\":1867:1945   */\n      swap4\n      pop\n        /* \"#utility.yul\":1954:2019   */\n      tag_54\n        /* \"#utility.yul\":2012:2018   */\n      dup2\n        /* \"#utility.yul\":2007:2010   */\n      dup6\n        /* \"#utility.yul\":2000:2004   */\n      0x20\n        /* \"#utility.yul\":1993:1998   */\n      dup7\n        /* \"#utility.yul\":1989:2005   */\n      add\n        /* \"#utility.yul\":1954:2019   */\n      tag_25\n      jump\t// in\n    tag_54:\n        /* \"#utility.yul\":2044:2073   */\n      tag_55\n        /* \"#utility.yul\":2066:2072   */\n      dup2\n        /* \"#utility.yul\":2044:2073   */\n      tag_26\n      jump\t// in\n    tag_55:\n        /* \"#utility.yul\":2039:2042   */\n      dup5\n        /* \"#utility.yul\":2035:2074   */\n      add\n        /* \"#utility.yul\":2028:2074   */\n      swap2\n      pop\n        /* \"#utility.yul\":1795:2080   */\n      pop\n        /* \"#utility.yul\":1703:2080   */\n      swap3\n      swap2\n      pop\n      pop\n      jump\t// out\n        /* \"#utility.yul\":2086:2204   */\n    tag_28:\n        /* \"#utility.yul\":2173:2197   */\n      tag_57\n        /* \"#utility.yul\":2191:2196   */\n      dup2\n        /* \"#utility.yul\":2173:2197   */\n      tag_20\n      jump\t// in\n    tag_57:\n        /* \"#utility.yul\":2168:2171   */\n      dup3\n        /* \"#utility.yul\":2161:2198   */\n      mstore\n        /* \"#utility.yul\":2086:2204   */\n      pop\n      pop\n      jump\t// out\n        /* \"#utility.yul\":2210:2633   */\n    tag_9:\n        /* \"#utility.yul\":2351:2355   */\n      0x00\n        /* \"#utility.yul\":2389:2391   */\n      0x40\n        /* \"#utility.yul\":2378:2387   */\n      dup3\n        /* \"#utility.yul\":2374:2392   */\n      add\n        /* \"#utility.yul\":2366:2392   */\n      swap1\n      pop\n        /* \"#utility.yul\":2438:2447   */\n      dup2\n        /* \"#utility.yul\":2432:2436   */\n      dup2\n        /* \"#utility.yul\":2428:2448   */\n      sub\n        /* \"#utility.yul\":2424:2425   */\n      0x00\n        /* \"#utility.yul\":2413:2422   */\n      dup4\n        /* \"#utility.yul\":2409:2426   */\n      add\n        /* \"#utility.yul\":2402:2449   */\n      mstore\n        /* \"#utility.yul\":2466:2544   */\n      tag_59\n        /* \"#utility.yul\":2539:2543   */\n      dup2\n        /* \"#utility.yul\":2530:2536   */\n      dup6\n        /* \"#utility.yul\":2466:2544   */\n      tag_27\n      jump\t// in\n    tag_59:\n        /* \"#utility.yul\":2458:2544   */\n      swap1\n      pop\n        /* \"#utility.yul\":2554:2626   */\n      tag_60\n        /* \"#utility.yul\":2622:2624   */\n      0x20\n        /* \"#utility.yul\":2611:2620   */\n      dup4\n        /* \"#utility.yul\":2607:2625   */\n      add\n        /* \"#utility.yul\":2598:2604   */\n      dup5\n        /* \"#utility.yul\":2554:2626   */\n      tag_28\n      jump\t// in\n    tag_60:\n        /* \"#utility.yul\":2210:2633   */\n      swap4\n      swap3\n      pop\n      pop\n      pop\n      jump\t// out\n        /* \"#utility.yul\":2639:2819   */\n    tag_29:\n        /* \"#utility.yul\":2687:2764   */\n      0x4e487b7100000000000000000000000000000000000000000000000000000000\n        /* \"#utility.yul\":2684:2685   */\n      0x00\n        /* \"#utility.yul\":2677:2765   */\n      mstore\n        /* \"#utility.yul\":2784:2788   */\n      0x11\n        /* \"#utility.yul\":2781:2782   */\n      0x04\n        /* \"#utility.yul\":2774:2789   */\n      mstore\n        /* \"#utility.yul\":2808:2812   */\n      0x24\n        /* \"#utility.yul\":2805:2806   */\n      0x00\n        /* \"#utility.yul\":2798:2813   */\n      revert\n        /* \"#utility.yul\":2825:3016   */\n    tag_12:\n        /* \"#utility.yul\":2865:2868   */\n      0x00\n        /* \"#utility.yul\":2884:2904   */\n      tag_63\n        /* \"#utility.yul\":2902:2903   */\n      dup3\n        /* \"#utility.yul\":2884:2904   */\n      tag_20\n      jump\t// in\n    tag_63:\n        /* \"#utility.yul\":2879:2904   */\n      swap2\n      pop\n        /* \"#utility.yul\":2918:2938   */\n      tag_64\n        /* \"#utility.yul\":2936:2937   */\n      dup4\n        /* \"#utility.yul\":2918:2938   */\n      tag_20\n      jump\t// in\n    tag_64:\n        /* \"#utility.yul\":2913:2938   */\n      swap3\n      pop\n        /* \"#utility.yul\":2961:2962   */\n      dup3\n        /* \"#utility.yul\":2958:2959   */\n      dup3\n        /* \"#utility.yul\":2954:2963   */\n      add\n        /* \"#utility.yul\":2947:2963   */\n      swap1\n      pop\n        /* \"#utility.yul\":2982:2985   */\n      dup1\n        /* \"#utility.yul\":2979:2980   */\n      dup3\n        /* \"#utility.yul\":2976:2986   */\n      gt\n        /* \"#utility.yul\":2973:3009   */\n      iszero\n      tag_65\n      jumpi\n        /* \"#utility.yul\":2989:3007   */\n      tag_66\n      tag_29\n      jump\t// in\n    tag_66:\n        /* \"#utility.yul\":2973:3009   */\n    tag_65:\n        /* \"#utility.yul\":2825:3016   */\n      swap3\n      swap2\n      pop\n      pop\n      jump\t// out\n        /* \"#utility.yul\":3022:3186   */\n    tag_30:\n        /* \"#utility.yul\":3162:3178   */\n      0x4f766572666c6f77204578697374000000000000000000000000000000000000\n        /* \"#utility.yul\":3158:3159   */\n      0x00\n        /* \"#utility.yul\":3150:3156   */\n      dup3\n        /* \"#utility.yul\":3146:3160   */\n      add\n        /* \"#utility.yul\":3139:3179   */\n      mstore\n        /* \"#utility.yul\":3022:3186   */\n      pop\n      jump\t// out\n        /* \"#utility.yul\":3192:3558   */\n    tag_31:\n        /* \"#utility.yul\":3334:3337   */\n      0x00\n        /* \"#utility.yul\":3355:3422   */\n      tag_69\n        /* \"#utility.yul\":3419:3421   */\n      0x0e\n        /* \"#utility.yul\":3414:3417   */\n      dup4\n        /* \"#utility.yul\":3355:3422   */\n      tag_24\n      jump\t// in\n    tag_69:\n        /* \"#utility.yul\":3348:3422   */\n      swap2\n      pop\n        /* \"#utility.yul\":3431:3524   */\n      tag_70\n        /* \"#utility.yul\":3520:3523   */\n      dup3\n        /* \"#utility.yul\":3431:3524   */\n      tag_30\n      jump\t// in\n    tag_70:\n        /* \"#utility.yul\":3549:3551   */\n      0x20\n        /* \"#utility.yul\":3544:3547   */\n      dup3\n        /* \"#utility.yul\":3540:3552   */\n      add\n        /* \"#utility.yul\":3533:3552   */\n      swap1\n      pop\n        /* \"#utility.yul\":3192:3558   */\n      swap2\n      swap1\n      pop\n      jump\t// out\n        /* \"#utility.yul\":3564:3983   */\n    tag_15:\n        /* \"#utility.yul\":3730:3734   */\n      0x00\n        /* \"#utility.yul\":3768:3770   */\n      0x20\n        /* \"#utility.yul\":3757:3766   */\n      dup3\n        /* \"#utility.yul\":3753:3771   */\n      add\n        /* \"#utility.yul\":3745:3771   */\n      swap1\n      pop\n        /* \"#utility.yul\":3817:3826   */\n      dup2\n        /* \"#utility.yul\":3811:3815   */\n      dup2\n        /* \"#utility.yul\":3807:3827   */\n      sub\n        /* \"#utility.yul\":3803:3804   */\n      0x00\n        /* \"#utility.yul\":3792:3801   */\n      dup4\n        /* \"#utility.yul\":3788:3805   */\n      add\n        /* \"#utility.yul\":3781:3828   */\n      mstore\n        /* \"#utility.yul\":3845:3976   */\n      tag_72\n        /* \"#utility.yul\":3971:3975   */\n      dup2\n        /* \"#utility.yul\":3845:3976   */\n      tag_31\n      jump\t// in\n    tag_72:\n        /* \"#utility.yul\":3837:3976   */\n      swap1\n      pop\n        /* \"#utility.yul\":3564:3983   */\n      swap2\n      swap1\n      pop\n      jump\t// out\n\n    auxdata: 0xa2646970667358221220fcf3b2ff0535f19333de6c829959d26cf8c85efaf02ce23cb2924cb764f3b8f064736f6c634300081a0033\n}\n",
				"bytecode": {
					"linkReferences": {},
					"object": "6080604052348015600e575f80fd5b506103188061001c5f395ff3fe608060405234801561000f575f80fd5b5060043610610029575f3560e01c8063d69569701461002d575b5f80fd5b6100476004803603810190610042919061012f565b61005e565b6040516100559291906101ec565b60405180910390f35b60605f80838561006e9190610247565b905060ff8111156100b4576040517f08c379a00000000000000000000000000000000000000000000000000000000081526004016100ab906102c4565b60405180910390fd5b806040518060400160405280600b81526020017f4e6f204f766572666c6f770000000000000000000000000000000000000000008152509092509250509250929050565b5f80fd5b5f819050919050565b61010e816100fc565b8114610118575f80fd5b50565b5f8135905061012981610105565b92915050565b5f8060408385031215610145576101446100f8565b5b5f6101528582860161011b565b92505060206101638582860161011b565b9150509250929050565b5f81519050919050565b5f82825260208201905092915050565b8281835e5f83830152505050565b5f601f19601f8301169050919050565b5f6101af8261016d565b6101b98185610177565b93506101c9818560208601610187565b6101d281610195565b840191505092915050565b6101e6816100fc565b82525050565b5f6040820190508181035f83015261020481856101a5565b905061021360208301846101dd565b9392505050565b7f4e487b71000000000000000000000000000000000000000000000000000000005f52601160045260245ffd5b5f610251826100fc565b915061025c836100fc565b92508282019050808211156102745761027361021a565b5b92915050565b7f4f766572666c6f772045786973740000000000000000000000000000000000005f82015250565b5f6102ae600e83610177565b91506102b98261027a565b602082019050919050565b5f6020820190508181035f8301526102db816102a2565b905091905056fea2646970667358221220fcf3b2ff0535f19333de6c829959d26cf8c85efaf02ce23cb2924cb764f3b8f064736f6c634300081a0033",
					"opcodes": "PUSH1 0x80 PUSH1 0x40 MSTORE CALLVALUE DUP1 ISZERO PUSH1 0xE JUMPI PUSH0 DUP1 REVERT JUMPDEST POP PUSH2 0x318 DUP1 PUSH2 0x1C PUSH0 CODECOPY PUSH0 RETURN INVALID PUSH1 0x80 PUSH1 0x40 MSTORE CALLVALUE DUP1 ISZERO PUSH2 0xF JUMPI PUSH0 DUP1 REVERT JUMPDEST POP PUSH1 0x4 CALLDATASIZE LT PUSH2 0x29 JUMPI PUSH0 CALLDATALOAD PUSH1 0xE0 SHR DUP1 PUSH4 0xD6956970 EQ PUSH2 0x2D JUMPI JUMPDEST PUSH0 DUP1 REVERT JUMPDEST PUSH2 0x47 PUSH1 0x4 DUP1 CALLDATASIZE SUB DUP2 ADD SWAP1 PUSH2 0x42 SWAP2 SWAP1 PUSH2 0x12F JUMP JUMPDEST PUSH2 0x5E JUMP JUMPDEST PUSH1 0x40 MLOAD PUSH2 0x55 SWAP3 SWAP2 SWAP1 PUSH2 0x1EC JUMP JUMPDEST PUSH1 0x40 MLOAD DUP1 SWAP2 SUB SWAP1 RETURN JUMPDEST PUSH1 0x60 PUSH0 DUP1 DUP4 DUP6 PUSH2 0x6E SWAP2 SWAP1 PUSH2 0x247 JUMP JUMPDEST SWAP1 POP PUSH1 0xFF DUP2 GT ISZERO PUSH2 0xB4 JUMPI PUSH1 0x40 MLOAD PUSH32 0x8C379A000000000000000000000000000000000000000000000000000000000 DUP2 MSTORE PUSH1 0x4 ADD PUSH2 0xAB SWAP1 PUSH2 0x2C4 JUMP JUMPDEST PUSH1 0x40 MLOAD DUP1 SWAP2 SUB SWAP1 REVERT JUMPDEST DUP1 PUSH1 0x40 MLOAD DUP1 PUSH1 0x40 ADD PUSH1 0x40 MSTORE DUP1 PUSH1 0xB DUP2 MSTORE PUSH1 0x20 ADD PUSH32 0x4E6F204F766572666C6F77000000000000000000000000000000000000000000 DUP2 MSTORE POP SWAP1 SWAP3 POP SWAP3 POP POP SWAP3 POP SWAP3 SWAP1 POP JUMP JUMPDEST PUSH0 DUP1 REVERT JUMPDEST PUSH0 DUP2 SWAP1 POP SWAP2 SWAP1 POP JUMP JUMPDEST PUSH2 0x10E DUP2 PUSH2 0xFC JUMP JUMPDEST DUP2 EQ PUSH2 0x118 JUMPI PUSH0 DUP1 REVERT JUMPDEST POP JUMP JUMPDEST PUSH0 DUP2 CALLDATALOAD SWAP1 POP PUSH2 0x129 DUP2 PUSH2 0x105 JUMP JUMPDEST SWAP3 SWAP2 POP POP JUMP JUMPDEST PUSH0 DUP1 PUSH1 0x40 DUP4 DUP6 SUB SLT ISZERO PUSH2 0x145 JUMPI PUSH2 0x144 PUSH2 0xF8 JUMP JUMPDEST JUMPDEST PUSH0 PUSH2 0x152 DUP6 DUP3 DUP7 ADD PUSH2 0x11B JUMP JUMPDEST SWAP3 POP POP PUSH1 0x20 PUSH2 0x163 DUP6 DUP3 DUP7 ADD PUSH2 0x11B JUMP JUMPDEST SWAP2 POP POP SWAP3 POP SWAP3 SWAP1 POP JUMP JUMPDEST PUSH0 DUP2 MLOAD SWAP1 POP SWAP2 SWAP1 POP JUMP JUMPDEST PUSH0 DUP3 DUP3 MSTORE PUSH1 0x20 DUP3 ADD SWAP1 POP SWAP3 SWAP2 POP POP JUMP JUMPDEST DUP3 DUP2 DUP4 MCOPY PUSH0 DUP4 DUP4 ADD MSTORE POP POP POP JUMP JUMPDEST PUSH0 PUSH1 0x1F NOT PUSH1 0x1F DUP4 ADD AND SWAP1 POP SWAP2 SWAP1 POP JUMP JUMPDEST PUSH0 PUSH2 0x1AF DUP3 PUSH2 0x16D JUMP JUMPDEST PUSH2 0x1B9 DUP2 DUP6 PUSH2 0x177 JUMP JUMPDEST SWAP4 POP PUSH2 0x1C9 DUP2 DUP6 PUSH1 0x20 DUP7 ADD PUSH2 0x187 JUMP JUMPDEST PUSH2 0x1D2 DUP2 PUSH2 0x195 JUMP JUMPDEST DUP5 ADD SWAP2 POP POP SWAP3 SWAP2 POP POP JUMP JUMPDEST PUSH2 0x1E6 DUP2 PUSH2 0xFC JUMP JUMPDEST DUP3 MSTORE POP POP JUMP JUMPDEST PUSH0 PUSH1 0x40 DUP3 ADD SWAP1 POP DUP2 DUP2 SUB PUSH0 DUP4 ADD MSTORE PUSH2 0x204 DUP2 DUP6 PUSH2 0x1A5 JUMP JUMPDEST SWAP1 POP PUSH2 0x213 PUSH1 0x20 DUP4 ADD DUP5 PUSH2 0x1DD JUMP JUMPDEST SWAP4 SWAP3 POP POP POP JUMP JUMPDEST PUSH32 0x4E487B7100000000000000000000000000000000000000000000000000000000 PUSH0 MSTORE PUSH1 0x11 PUSH1 0x4 MSTORE PUSH1 0x24 PUSH0 REVERT JUMPDEST PUSH0 PUSH2 0x251 DUP3 PUSH2 0xFC JUMP JUMPDEST SWAP2 POP PUSH2 0x25C DUP4 PUSH2 0xFC JUMP JUMPDEST SWAP3 POP DUP3 DUP3 ADD SWAP1 POP DUP1 DUP3 GT ISZERO PUSH2 0x274 JUMPI PUSH2 0x273 PUSH2 0x21A JUMP JUMPDEST JUMPDEST SWAP3 SWAP2 POP POP JUMP JUMPDEST PUSH32 0x4F766572666C6F77204578697374000000000000000000000000000000000000 PUSH0 DUP3 ADD MSTORE POP JUMP JUMPDEST PUSH0 PUSH2 0x2AE PUSH1 0xE DUP4 PUSH2 0x177 JUMP JUMPDEST SWAP2 POP PUSH2 0x2B9 DUP3 PUSH2 0x27A JUMP JUMPDEST PUSH1 0x20 DUP3 ADD SWAP1 POP SWAP2 SWAP1 POP JUMP JUMPDEST PUSH0 PUSH1 0x20 DUP3 ADD SWAP1 POP DUP2 DUP2 SUB PUSH0 DUP4 ADD MSTORE PUSH2 0x2DB DUP2 PUSH2 0x2A2 JUMP JUMPDEST SWAP1 POP SWAP2 SWAP1 POP JUMP INVALID LOG2 PUSH5 0x6970667358 0x22 SLT KECCAK256 0xFC RETURN 0xB2 SELFDESTRUCT SDIV CALLDATALOAD CALL SWAP4 CALLER 0xDE PUSH13 0x829959D26CF8C85EFAF02CE23C 0xB2 SWAP3 0x4C 0xB7 PUSH5 0xF3B8F06473 PUSH16 0x6C634300081A00330000000000000000 "
				},
				"gasEstimates": {
					"creation": {
						"codeDepositCost": "158400",
						"executionCost": "200",
						"totalCost": "158600"
					},
					"external": {
						"checkOverflow(uint256,uint256)": "infinite"
					}
				},
				"methodIdentifiers": {
					"checkOverflow(uint256,uint256)": "d6956970"
				}
			},
			"storageLayout": {
				"storage": [],
				"types": null
			},
			"userdoc": {
				"kind": "user",
				"methods": {},
				"version": 1
			}
		}
	}
}