{
	"cryptofunc.sol": {
		"Test": {
			"abi": [
				{
					"inputs": [],
					"name": "callKeccak256",
					"outputs": [
						{
							"internalType": "bytes32",
							"name": "result",
							"type": "bytes32"
						}
					],
					"stateMutability": "pure",
					"type": "function"
				},
				{
					"inputs": [],
					"name": "callSha256",
					"outputs": [
						{
							"internalType": "bytes32",
							"name": "result",
							"type": "bytes32"
						}
					],
					"stateMutability": "pure",
					"type": "function"
				}
			],
			"devdoc": {
				"kind": "dev",
				"methods": {},
				"version": 1
			},
			"evm": {
				"assembly": "    /* \"cryptofunc.sol\":60:427  contract Test {... */\n  mstore(0x40, 0x80)\n  callvalue\n  dup1\n  iszero\n  tag_1\n  jumpi\n  0x00\n  dup1\n  revert\ntag_1:\n  pop\n  dataSize(sub_0)\n  dup1\n  dataOffset(sub_0)\n  0x00\n  codecopy\n  0x00\n  return\nstop\n\nsub_0: assembly {\n        /* \"cryptofunc.sol\":60:427  contract Test {... */\n      mstore(0x40, 0x80)\n      callvalue\n      dup1\n      iszero\n      tag_1\n      jumpi\n      0x00\n      dup1\n      revert\n    tag_1:\n      pop\n      jumpi(tag_2, lt(calldatasize, 0x04))\n      shr(0xe0, calldataload(0x00))\n      dup1\n      0x01c74044\n      eq\n      tag_3\n      jumpi\n      dup1\n      0x5b4aa3ee\n      eq\n      tag_4\n      jumpi\n    tag_2:\n      0x00\n      dup1\n      revert\n        /* \"cryptofunc.sol\":127:247  function callSha256() public pure returns (bytes32 result) {... */\n    tag_3:\n      tag_5\n      tag_6\n      jump\t// in\n    tag_5:\n      mload(0x40)\n      tag_7\n      swap2\n      swap1\n      tag_8\n      jump\t// in\n    tag_7:\n      mload(0x40)\n      dup1\n      swap2\n      sub\n      swap1\n      return\n        /* \"cryptofunc.sol\":298:424  function callKeccak256() public pure returns (bytes32 result) {... */\n    tag_4:\n      tag_9\n      tag_10\n      jump\t// in\n    tag_9:\n      mload(0x40)\n      tag_11\n      swap2\n      swap1\n      tag_8\n      jump\t// in\n    tag_11:\n      mload(0x40)\n      dup1\n      swap2\n      sub\n      swap1\n      return\n        /* \"cryptofunc.sol\":127:247  function callSha256() public pure returns (bytes32 result) {... */\n    tag_6:\n        /* \"cryptofunc.sol\":170:184  bytes32 result */\n      0x00\n        /* \"cryptofunc.sol\":204:239  sha256(abi.encodePacked(\"ronaldo\")) */\n      0x02\n        /* \"cryptofunc.sol\":211:238  abi.encodePacked(\"ronaldo\") */\n      add(0x20, mload(0x40))\n      tag_13\n      swap1\n      tag_14\n      jump\t// in\n    tag_13:\n      mload(0x40)\n      0x20\n      dup2\n      dup4\n      sub\n      sub\n      dup2\n      mstore\n      swap1\n      0x40\n      mstore\n        /* \"cryptofunc.sol\":204:239  sha256(abi.encodePacked(\"ronaldo\")) */\n      mload(0x40)\n      tag_15\n      swap2\n      swap1\n      tag_16\n      jump\t// in\n    tag_15:\n      0x20\n      mload(0x40)\n      dup1\n      dup4\n      sub\n      dup2\n      dup6\n      gas\n      staticcall\n      iszero\n      dup1\n      iszero\n      tag_18\n      jumpi\n      returndatasize\n      0x00\n      dup1\n      returndatacopy\n      revert(0x00, returndatasize)\n    tag_18:\n      pop\n      pop\n      pop\n      mload(0x40)\n      returndatasize\n      not(0x1f)\n      0x1f\n      dup3\n      add\n      and\n      dup3\n      add\n      dup1\n      0x40\n      mstore\n      pop\n      dup2\n      add\n      swap1\n      tag_19\n      swap2\n      swap1\n      tag_20\n      jump\t// in\n    tag_19:\n        /* \"cryptofunc.sol\":197:239  return sha256(abi.encodePacked(\"ronaldo\")) */\n      swap1\n      pop\n        /* \"cryptofunc.sol\":127:247  function callSha256() public pure returns (bytes32 result) {... */\n      swap1\n      jump\t// out\n        /* \"cryptofunc.sol\":298:424  function callKeccak256() public pure returns (bytes32 result) {... */\n    tag_10:\n        /* \"cryptofunc.sol\":344:358  bytes32 result */\n      0x00\n        /* \"cryptofunc.sol\":388:415  abi.encodePacked(\"ronaldo\") */\n      add(0x20, mload(0x40))\n      tag_22\n      swap1\n      tag_14\n      jump\t// in\n    tag_22:\n      mload(0x40)\n      0x20\n      dup2\n      dup4\n      sub\n      sub\n      dup2\n      mstore\n      swap1\n      0x40\n      mstore\n        /* \"cryptofunc.sol\":378:416  keccak256(abi.encodePacked(\"ronaldo\")) */\n      dup1\n      mload\n      swap1\n      0x20\n      add\n      keccak256\n        /* \"cryptofunc.sol\":371:416  return keccak256(abi.encodePacked(\"ronaldo\")) */\n      swap1\n      pop\n        /* \"cryptofunc.sol\":298:424  function callKeccak256() public pure returns (bytes32 result) {... */\n      swap1\n      jump\t// out\n        /* \"#utility.yul\":7:84   */\n    tag_23:\n        /* \"#utility.yul\":44:51   */\n      0x00\n        /* \"#utility.yul\":73:78   */\n      dup2\n        /* \"#utility.yul\":62:78   */\n      swap1\n      pop\n        /* \"#utility.yul\":7:84   */\n      swap2\n      swap1\n      pop\n      jump\t// out\n        /* \"#utility.yul\":90:208   */\n    tag_24:\n        /* \"#utility.yul\":177:201   */\n      tag_40\n        /* \"#utility.yul\":195:200   */\n      dup2\n        /* \"#utility.yul\":177:201   */\n      tag_23\n      jump\t// in\n    tag_40:\n        /* \"#utility.yul\":172:175   */\n      dup3\n        /* \"#utility.yul\":165:202   */\n      mstore\n        /* \"#utility.yul\":90:208   */\n      pop\n      pop\n      jump\t// out\n        /* \"#utility.yul\":214:436   */\n    tag_8:\n        /* \"#utility.yul\":307:311   */\n      0x00\n        /* \"#utility.yul\":345:347   */\n      0x20\n        /* \"#utility.yul\":334:343   */\n      dup3\n        /* \"#utility.yul\":330:348   */\n      add\n        /* \"#utility.yul\":322:348   */\n      swap1\n      pop\n        /* \"#utility.yul\":358:429   */\n      tag_42\n        /* \"#utility.yul\":426:427   */\n      0x00\n        /* \"#utility.yul\":415:424   */\n      dup4\n        /* \"#utility.yul\":411:428   */\n      add\n        /* \"#utility.yul\":402:408   */\n      dup5\n        /* \"#utility.yul\":358:429   */\n      tag_24\n      jump\t// in\n    tag_42:\n        /* \"#utility.yul\":214:436   */\n      swap3\n      swap2\n      pop\n      pop\n      jump\t// out\n        /* \"#utility.yul\":442:590   */\n    tag_25:\n        /* \"#utility.yul\":544:555   */\n      0x00\n        /* \"#utility.yul\":581:584   */\n      dup2\n        /* \"#utility.yul\":566:584   */\n      swap1\n      pop\n        /* \"#utility.yul\":442:590   */\n      swap3\n      swap2\n      pop\n      pop\n      jump\t// out\n        /* \"#utility.yul\":596:753   */\n    tag_26:\n        /* \"#utility.yul\":736:745   */\n      0x726f6e616c646f00000000000000000000000000000000000000000000000000\n        /* \"#utility.yul\":732:733   */\n      0x00\n        /* \"#utility.yul\":724:730   */\n      dup3\n        /* \"#utility.yul\":720:734   */\n      add\n        /* \"#utility.yul\":713:746   */\n      mstore\n        /* \"#utility.yul\":596:753   */\n      pop\n      jump\t// out\n        /* \"#utility.yul\":759:1159   */\n    tag_27:\n        /* \"#utility.yul\":919:922   */\n      0x00\n        /* \"#utility.yul\":940:1024   */\n      tag_46\n        /* \"#utility.yul\":1022:1023   */\n      0x07\n        /* \"#utility.yul\":1017:1020   */\n      dup4\n        /* \"#utility.yul\":940:1024   */\n      tag_25\n      jump\t// in\n    tag_46:\n        /* \"#utility.yul\":933:1024   */\n      swap2\n      pop\n        /* \"#utility.yul\":1033:1126   */\n      tag_47\n        /* \"#utility.yul\":1122:1125   */\n      dup3\n        /* \"#utility.yul\":1033:1126   */\n      tag_26\n      jump\t// in\n    tag_47:\n        /* \"#utility.yul\":1151:1152   */\n      0x07\n        /* \"#utility.yul\":1146:1149   */\n      dup3\n        /* \"#utility.yul\":1142:1153   */\n      add\n        /* \"#utility.yul\":1135:1153   */\n      swap1\n      pop\n        /* \"#utility.yul\":759:1159   */\n      swap2\n      swap1\n      pop\n      jump\t// out\n        /* \"#utility.yul\":1165:1546   */\n    tag_14:\n        /* \"#utility.yul\":1350:1353   */\n      0x00\n        /* \"#utility.yul\":1372:1520   */\n      tag_49\n        /* \"#utility.yul\":1516:1519   */\n      dup3\n        /* \"#utility.yul\":1372:1520   */\n      tag_27\n      jump\t// in\n    tag_49:\n        /* \"#utility.yul\":1365:1520   */\n      swap2\n      pop\n        /* \"#utility.yul\":1537:1540   */\n      dup2\n        /* \"#utility.yul\":1530:1540   */\n      swap1\n      pop\n        /* \"#utility.yul\":1165:1546   */\n      swap2\n      swap1\n      pop\n      jump\t// out\n        /* \"#utility.yul\":1552:1650   */\n    tag_28:\n        /* \"#utility.yul\":1603:1609   */\n      0x00\n        /* \"#utility.yul\":1637:1642   */\n      dup2\n        /* \"#utility.yul\":1631:1643   */\n      mload\n        /* \"#utility.yul\":1621:1643   */\n      swap1\n      pop\n        /* \"#utility.yul\":1552:1650   */\n      swap2\n      swap1\n      pop\n      jump\t// out\n        /* \"#utility.yul\":1656:1803   */\n    tag_29:\n        /* \"#utility.yul\":1757:1768   */\n      0x00\n        /* \"#utility.yul\":1794:1797   */\n      dup2\n        /* \"#utility.yul\":1779:1797   */\n      swap1\n      pop\n        /* \"#utility.yul\":1656:1803   */\n      swap3\n      swap2\n      pop\n      pop\n      jump\t// out\n        /* \"#utility.yul\":1809:1948   */\n    tag_30:\n        /* \"#utility.yul\":1898:1904   */\n      dup3\n        /* \"#utility.yul\":1893:1896   */\n      dup2\n        /* \"#utility.yul\":1888:1891   */\n      dup4\n        /* \"#utility.yul\":1882:1905   */\n      mcopy\n        /* \"#utility.yul\":1939:1940   */\n      0x00\n        /* \"#utility.yul\":1930:1936   */\n      dup4\n        /* \"#utility.yul\":1925:1928   */\n      dup4\n        /* \"#utility.yul\":1921:1937   */\n      add\n        /* \"#utility.yul\":1914:1941   */\n      mstore\n        /* \"#utility.yul\":1809:1948   */\n      pop\n      pop\n      pop\n      jump\t// out\n        /* \"#utility.yul\":1954:2340   */\n    tag_31:\n        /* \"#utility.yul\":2058:2061   */\n      0x00\n        /* \"#utility.yul\":2086:2124   */\n      tag_54\n        /* \"#utility.yul\":2118:2123   */\n      dup3\n        /* \"#utility.yul\":2086:2124   */\n      tag_28\n      jump\t// in\n    tag_54:\n        /* \"#utility.yul\":2140:2228   */\n      tag_55\n        /* \"#utility.yul\":2221:2227   */\n      dup2\n        /* \"#utility.yul\":2216:2219   */\n      dup6\n        /* \"#utility.yul\":2140:2228   */\n      tag_29\n      jump\t// in\n    tag_55:\n        /* \"#utility.yul\":2133:2228   */\n      swap4\n      pop\n        /* \"#utility.yul\":2237:2302   */\n      tag_56\n        /* \"#utility.yul\":2295:2301   */\n      dup2\n        /* \"#utility.yul\":2290:2293   */\n      dup6\n        /* \"#utility.yul\":2283:2287   */\n      0x20\n        /* \"#utility.yul\":2276:2281   */\n      dup7\n        /* \"#utility.yul\":2272:2288   */\n      add\n        /* \"#utility.yul\":2237:2302   */\n      tag_30\n      jump\t// in\n    tag_56:\n        /* \"#utility.yul\":2327:2333   */\n      dup1\n        /* \"#utility.yul\":2322:2325   */\n      dup5\n        /* \"#utility.yul\":2318:2334   */\n      add\n        /* \"#utility.yul\":2311:2334   */\n      swap2\n      pop\n        /* \"#utility.yul\":2062:2340   */\n      pop\n        /* \"#utility.yul\":1954:2340   */\n      swap3\n      swap2\n      pop\n      pop\n      jump\t// out\n        /* \"#utility.yul\":2346:2617   */\n    tag_16:\n        /* \"#utility.yul\":2476:2479   */\n      0x00\n        /* \"#utility.yul\":2498:2591   */\n      tag_58\n        /* \"#utility.yul\":2587:2590   */\n      dup3\n        /* \"#utility.yul\":2578:2584   */\n      dup5\n        /* \"#utility.yul\":2498:2591   */\n      tag_31\n      jump\t// in\n    tag_58:\n        /* \"#utility.yul\":2491:2591   */\n      swap2\n      pop\n        /* \"#utility.yul\":2608:2611   */\n      dup2\n        /* \"#utility.yul\":2601:2611   */\n      swap1\n      pop\n        /* \"#utility.yul\":2346:2617   */\n      swap3\n      swap2\n      pop\n      pop\n      jump\t// out\n        /* \"#utility.yul\":2704:2821   */\n    tag_33:\n        /* \"#utility.yul\":2813:2814   */\n      0x00\n        /* \"#utility.yul\":2810:2811   */\n      dup1\n        /* \"#utility.yul\":2803:2815   */\n      revert\n        /* \"#utility.yul\":2950:3072   */\n    tag_35:\n        /* \"#utility.yul\":3023:3047   */\n      tag_63\n        /* \"#utility.yul\":3041:3046   */\n      dup2\n        /* \"#utility.yul\":3023:3047   */\n      tag_23\n      jump\t// in\n    tag_63:\n        /* \"#utility.yul\":3016:3021   */\n      dup2\n        /* \"#utility.yul\":3013:3048   */\n      eq\n        /* \"#utility.yul\":3003:3066   */\n      tag_64\n      jumpi\n        /* \"#utility.yul\":3062:3063   */\n      0x00\n        /* \"#utility.yul\":3059:3060   */\n      dup1\n        /* \"#utility.yul\":3052:3064   */\n      revert\n        /* \"#utility.yul\":3003:3066   */\n    tag_64:\n        /* \"#utility.yul\":2950:3072   */\n      pop\n      jump\t// out\n        /* \"#utility.yul\":3078:3221   */\n    tag_36:\n        /* \"#utility.yul\":3135:3140   */\n      0x00\n        /* \"#utility.yul\":3166:3172   */\n      dup2\n        /* \"#utility.yul\":3160:3173   */\n      mload\n        /* \"#utility.yul\":3151:3173   */\n      swap1\n      pop\n        /* \"#utility.yul\":3182:3215   */\n      tag_66\n        /* \"#utility.yul\":3209:3214   */\n      dup2\n        /* \"#utility.yul\":3182:3215   */\n      tag_35\n      jump\t// in\n    tag_66:\n        /* \"#utility.yul\":3078:3221   */\n      swap3\n      swap2\n      pop\n      pop\n      jump\t// out\n        /* \"#utility.yul\":3227:3578   */\n    tag_20:\n        /* \"#utility.yul\":3297:3303   */\n      0x00\n        /* \"#utility.yul\":3346:3348   */\n      0x20\n        /* \"#utility.yul\":3334:3343   */\n      dup3\n        /* \"#utility.yul\":3325:3332   */\n      dup5\n        /* \"#utility.yul\":3321:3344   */\n      sub\n        /* \"#utility.yul\":3317:3349   */\n      slt\n        /* \"#utility.yul\":3314:3433   */\n      iszero\n      tag_68\n      jumpi\n        /* \"#utility.yul\":3352:3431   */\n      tag_69\n      tag_33\n      jump\t// in\n    tag_69:\n        /* \"#utility.yul\":3314:3433   */\n    tag_68:\n        /* \"#utility.yul\":3472:3473   */\n      0x00\n        /* \"#utility.yul\":3497:3561   */\n      tag_70\n        /* \"#utility.yul\":3553:3560   */\n      dup5\n        /* \"#utility.yul\":3544:3550   */\n      dup3\n        /* \"#utility.yul\":3533:3542   */\n      dup6\n        /* \"#utility.yul\":3529:3551   */\n      add\n        /* \"#utility.yul\":3497:3561   */\n      tag_36\n      jump\t// in\n    tag_70:\n        /* \"#utility.yul\":3487:3561   */\n      swap2\n      pop\n        /* \"#utility.yul\":3443:3571   */\n      pop\n        /* \"#utility.yul\":3227:3578   */\n      swap3\n      swap2\n      pop\n      pop\n      jump\t// out\n\n    auxdata: 0xa2646970667358221220f5ca23369f8e07a7d467c681b42a4119dd7be1fef0d060b56829f1a087556dbf64736f6c634300081a0033\n}\n",
				"bytecode": {
					"linkReferences": {},
					"object": "6080604052348015600e575f80fd5b506102a08061001c5f395ff3fe608060405234801561000f575f80fd5b5060043610610034575f3560e01c806301c74044146100385780635b4aa3ee14610056575b5f80fd5b610040610074565b60405161004d9190610128565b60405180910390f35b61005e6100e5565b60405161006b9190610128565b60405180910390f35b5f600260405160200161008690610195565b6040516020818303038152906040526040516100a291906101fb565b602060405180830381855afa1580156100bd573d5f803e3d5ffd5b5050506040513d601f19601f820116820180604052508101906100e0919061023f565b905090565b5f6040516020016100f590610195565b60405160208183030381529060405280519060200120905090565b5f819050919050565b61012281610110565b82525050565b5f60208201905061013b5f830184610119565b92915050565b5f81905092915050565b7f726f6e616c646f000000000000000000000000000000000000000000000000005f82015250565b5f61017f600783610141565b915061018a8261014b565b600782019050919050565b5f61019f82610173565b9150819050919050565b5f81519050919050565b5f81905092915050565b8281835e5f83830152505050565b5f6101d5826101a9565b6101df81856101b3565b93506101ef8185602086016101bd565b80840191505092915050565b5f61020682846101cb565b915081905092915050565b5f80fd5b61021e81610110565b8114610228575f80fd5b50565b5f8151905061023981610215565b92915050565b5f6020828403121561025457610253610211565b5b5f6102618482850161022b565b9150509291505056fea2646970667358221220f5ca23369f8e07a7d467c681b42a4119dd7be1fef0d060b56829f1a087556dbf64736f6c634300081a0033",
					"opcodes": "PUSH1 0x80 PUSH1 0x40 MSTORE CALLVALUE DUP1 ISZERO PUSH1 0xE JUMPI PUSH0 DUP1 REVERT JUMPDEST POP PUSH2 0x2A0 DUP1 PUSH2 0x1C PUSH0 CODECOPY PUSH0 RETURN INVALID PUSH1 0x80 PUSH1 0x40 MSTORE CALLVALUE DUP1 ISZERO PUSH2 0xF JUMPI PUSH0 DUP1 REVERT JUMPDEST POP PUSH1 0x4 CALLDATASIZE LT PUSH2 0x34 JUMPI PUSH0 CALLDATALOAD PUSH1 0xE0 SHR DUP1 PUSH4 0x1C74044 EQ PUSH2 0x38 JUMPI DUP1 PUSH4 0x5B4AA3EE EQ PUSH2 0x56 JUMPI JUMPDEST PUSH0 DUP1 REVERT JUMPDEST PUSH2 0x40 PUSH2 0x74 JUMP JUMPDEST PUSH1 0x40 MLOAD PUSH2 0x4D SWAP2 SWAP1 PUSH2 0x128 JUMP JUMPDEST PUSH1 0x40 MLOAD DUP1 SWAP2 SUB SWAP1 RETURN JUMPDEST PUSH2 0x5E PUSH2 0xE5 JUMP JUMPDEST PUSH1 0x40 MLOAD PUSH2 0x6B SWAP2 SWAP1 PUSH2 0x128 JUMP JUMPDEST PUSH1 0x40 MLOAD DUP1 SWAP2 SUB SWAP1 RETURN JUMPDEST PUSH0 PUSH1 0x2 PUSH1 0x40 MLOAD PUSH1 0x20 ADD PUSH2 0x86 SWAP1 PUSH2 0x195 JUMP JUMPDEST PUSH1 0x40 MLOAD PUSH1 0x20 DUP2 DUP4 SUB SUB DUP2 MSTORE SWAP1 PUSH1 0x40 MSTORE PUSH1 0x40 MLOAD PUSH2 0xA2 SWAP2 SWAP1 PUSH2 0x1FB JUMP JUMPDEST PUSH1 0x20 PUSH1 0x40 MLOAD DUP1 DUP4 SUB DUP2 DUP6 GAS STATICCALL ISZERO DUP1 ISZERO PUSH2 0xBD JUMPI RETURNDATASIZE PUSH0 DUP1 RETURNDATACOPY RETURNDATASIZE PUSH0 REVERT JUMPDEST POP POP POP PUSH1 0x40 MLOAD RETURNDATASIZE PUSH1 0x1F NOT PUSH1 0x1F DUP3 ADD AND DUP3 ADD DUP1 PUSH1 0x40 MSTORE POP DUP2 ADD SWAP1 PUSH2 0xE0 SWAP2 SWAP1 PUSH2 0x23F JUMP JUMPDEST SWAP1 POP SWAP1 JUMP JUMPDEST PUSH0 PUSH1 0x40 MLOAD PUSH1 0x20 ADD PUSH2 0xF5 SWAP1 PUSH2 0x195 JUMP JUMPDEST PUSH1 0x40 MLOAD PUSH1 0x20 DUP2 DUP4 SUB SUB DUP2 MSTORE SWAP1 PUSH1 0x40 MSTORE DUP1 MLOAD SWAP1 PUSH1 0x20 ADD KECCAK256 SWAP1 POP SWAP1 JUMP JUMPDEST PUSH0 DUP2 SWAP1 POP SWAP2 SWAP1 POP JUMP JUMPDEST PUSH2 0x122 DUP2 PUSH2 0x110 JUMP JUMPDEST DUP3 MSTORE POP POP JUMP JUMPDEST PUSH0 PUSH1 0x20 DUP3 ADD SWAP1 POP PUSH2 0x13B PUSH0 DUP4 ADD DUP5 PUSH2 0x119 JUMP JUMPDEST SWAP3 SWAP2 POP POP JUMP JUMPDEST PUSH0 DUP2 SWAP1 POP SWAP3 SWAP2 POP POP JUMP JUMPDEST PUSH32 0x726F6E616C646F00000000000000000000000000000000000000000000000000 PUSH0 DUP3 ADD MSTORE POP JUMP JUMPDEST PUSH0 PUSH2 0x17F PUSH1 0x7 DUP4 PUSH2 0x141 JUMP JUMPDEST SWAP2 POP PUSH2 0x18A DUP3 PUSH2 0x14B JUMP JUMPDEST PUSH1 0x7 DUP3 ADD SWAP1 POP SWAP2 SWAP1 POP JUMP JUMPDEST PUSH0 PUSH2 0x19F DUP3 PUSH2 0x173 JUMP JUMPDEST SWAP2 POP DUP2 SWAP1 POP SWAP2 SWAP1 POP JUMP JUMPDEST PUSH0 DUP2 MLOAD SWAP1 POP SWAP2 SWAP1 POP JUMP JUMPDEST PUSH0 DUP2 SWAP1 POP SWAP3 SWAP2 POP POP JUMP JUMPDEST DUP3 DUP2 DUP4 MCOPY PUSH0 DUP4 DUP4 ADD MSTORE POP POP POP JUMP JUMPDEST PUSH0 PUSH2 0x1D5 DUP3 PUSH2 0x1A9 JUMP JUMPDEST PUSH2 0x1DF DUP2 DUP6 PUSH2 0x1B3 JUMP JUMPDEST SWAP4 POP PUSH2 0x1EF DUP2 DUP6 PUSH1 0x20 DUP7 ADD PUSH2 0x1BD JUMP JUMPDEST DUP1 DUP5 ADD SWAP2 POP POP SWAP3 SWAP2 POP POP JUMP JUMPDEST PUSH0 PUSH2 0x206 DUP3 DUP5 PUSH2 0x1CB JUMP JUMPDEST SWAP2 POP DUP2 SWAP1 POP SWAP3 SWAP2 POP POP JUMP JUMPDEST PUSH0 DUP1 REVERT JUMPDEST PUSH2 0x21E DUP2 PUSH2 0x110 JUMP JUMPDEST DUP2 EQ PUSH2 0x228 JUMPI PUSH0 DUP1 REVERT JUMPDEST POP JUMP JUMPDEST PUSH0 DUP2 MLOAD SWAP1 POP PUSH2 0x239 DUP2 PUSH2 0x215 JUMP JUMPDEST SWAP3 SWAP2 POP POP JUMP JUMPDEST PUSH0 PUSH1 0x20 DUP3 DUP5 SUB SLT ISZERO PUSH2 0x254 JUMPI PUSH2 0x253 PUSH2 0x211 JUMP JUMPDEST JUMPDEST PUSH0 PUSH2 0x261 DUP5 DUP3 DUP6 ADD PUSH2 0x22B JUMP JUMPDEST SWAP2 POP POP SWAP3 SWAP2 POP POP JUMP INVALID LOG2 PUSH5 0x6970667358 0x22 SLT KECCAK256 CREATE2 0xCA 0x23 CALLDATASIZE SWAP16 DUP15 SMOD 0xA7 0xD4 PUSH8 0xC681B42A4119DD7B 0xE1 INVALID CREATE 0xD0 PUSH1 0xB5 PUSH9 0x29F1A087556DBF6473 PUSH16 0x6C634300081A00330000000000000000 "
				},
				"gasEstimates": {
					"creation": {
						"codeDepositCost": "134400",
						"executionCost": "175",
						"totalCost": "134575"
					},
					"external": {
						"callKeccak256()": "633",
						"callSha256()": "infinite"
					}
				},
				"methodIdentifiers": {
					"callKeccak256()": "5b4aa3ee",
					"callSha256()": "01c74044"
				}
			},
			"storageLayout": {
				"storage": [],
				"types": null
			},
			"userdoc": {
				"kind": "user",
				"methods": {},
				"version": 1
			}
		}
	}
}