{
	"assertstatement2.sol": {
		"assertStatement": {
			"abi": [
				{
					"inputs": [
						{
							"internalType": "uint8",
							"name": "sum",
							"type": "uint8"
						}
					],
					"name": "checkOverflow",
					"outputs": [],
					"stateMutability": "nonpayable",
					"type": "function"
				},
				{
					"inputs": [],
					"name": "getResult",
					"outputs": [
						{
							"internalType": "string",
							"name": "",
							"type": "string"
						}
					],
					"stateMutability": "view",
					"type": "function"
				}
			],
			"devdoc": {
				"kind": "dev",
				"methods": {},
				"version": 1
			},
			"evm": {
				"assembly": "    /* \"assertstatement2.sol\":58:374  contract assertStatement {... */\n  mstore(0x40, 0x80)\n  callvalue\n  dup1\n  iszero\n  tag_1\n  jumpi\n  0x00\n  dup1\n  revert\ntag_1:\n  pop\n  dataSize(sub_0)\n  dup1\n  dataOffset(sub_0)\n  0x00\n  codecopy\n  0x00\n  return\nstop\n\nsub_0: assembly {\n        /* \"assertstatement2.sol\":58:374  contract assertStatement {... */\n      mstore(0x40, 0x80)\n      callvalue\n      dup1\n      iszero\n      tag_1\n      jumpi\n      0x00\n      dup1\n      revert\n    tag_1:\n      pop\n      jumpi(tag_2, lt(calldatasize, 0x04))\n      shr(0xe0, calldataload(0x00))\n      dup1\n      0xa05e4df0\n      eq\n      tag_3\n      jumpi\n      dup1\n      0xde292789\n      eq\n      tag_4\n      jumpi\n    tag_2:\n      0x00\n      dup1\n      revert\n        /* \"assertstatement2.sol\":104:194  function checkOverflow(uint8 sum) public {... */\n    tag_3:\n      tag_5\n      0x04\n      dup1\n      calldatasize\n      sub\n      dup2\n      add\n      swap1\n      tag_6\n      swap2\n      swap1\n      tag_7\n      jump\t// in\n    tag_6:\n      tag_8\n      jump\t// in\n    tag_5:\n      stop\n        /* \"assertstatement2.sol\":198:371  function getResult() public view returns(string memory) {... */\n    tag_4:\n      tag_9\n      tag_10\n      jump\t// in\n    tag_9:\n      mload(0x40)\n      tag_11\n      swap2\n      swap1\n      tag_12\n      jump\t// in\n    tag_11:\n      mload(0x40)\n      dup1\n      swap2\n      sub\n      swap1\n      return\n        /* \"assertstatement2.sol\":104:194  function checkOverflow(uint8 sum) public {... */\n    tag_8:\n        /* \"assertstatement2.sol\":166:169  255 */\n      0xff\n        /* \"assertstatement2.sol\":159:162  sum */\n      dup2\n        /* \"assertstatement2.sol\":159:169  sum <= 255 */\n      0xff\n      and\n      gt\n      iszero\n        /* \"assertstatement2.sol\":152:170  assert(sum <= 255) */\n      tag_14\n      jumpi\n      tag_15\n      tag_16\n      jump\t// in\n    tag_15:\n    tag_14:\n        /* \"assertstatement2.sol\":186:190  true */\n      0x01\n        /* \"assertstatement2.sol\":177:183  result */\n      0x00\n      dup1\n        /* \"assertstatement2.sol\":177:190  result = true */\n      0x0100\n      exp\n      dup2\n      sload\n      dup2\n      0xff\n      mul\n      not\n      and\n      swap1\n      dup4\n      iszero\n      iszero\n      mul\n      or\n      swap1\n      sstore\n      pop\n        /* \"assertstatement2.sol\":104:194  function checkOverflow(uint8 sum) public {... */\n      pop\n      jump\t// out\n        /* \"assertstatement2.sol\":198:371  function getResult() public view returns(string memory) {... */\n    tag_10:\n        /* \"assertstatement2.sol\":239:252  string memory */\n      0x60\n        /* \"assertstatement2.sol\":274:278  true */\n      0x01\n        /* \"assertstatement2.sol\":264:278  result == true */\n      iszero\n      iszero\n        /* \"assertstatement2.sol\":264:270  result */\n      0x00\n      dup1\n      sload\n      swap1\n      0x0100\n      exp\n      swap1\n      div\n      0xff\n      and\n        /* \"assertstatement2.sol\":264:278  result == true */\n      iszero\n      iszero\n      sub\n        /* \"assertstatement2.sol\":261:368  if(result == true) {... */\n      tag_18\n      jumpi\n        /* \"assertstatement2.sol\":291:311  return \"No Overflow\" */\n      mload(0x40)\n      dup1\n      0x40\n      add\n      0x40\n      mstore\n      dup1\n      0x0b\n      dup2\n      mstore\n      0x20\n      add\n      0x4e6f204f766572666c6f77000000000000000000000000000000000000000000\n      dup2\n      mstore\n      pop\n      swap1\n      pop\n      jump(tag_17)\n        /* \"assertstatement2.sol\":261:368  if(result == true) {... */\n    tag_18:\n        /* \"assertstatement2.sol\":336:360  return \"Overflow exists\" */\n      mload(0x40)\n      dup1\n      0x40\n      add\n      0x40\n      mstore\n      dup1\n      0x0f\n      dup2\n      mstore\n      0x20\n      add\n      0x4f766572666c6f77206578697374730000000000000000000000000000000000\n      dup2\n      mstore\n      pop\n      swap1\n      pop\n        /* \"assertstatement2.sol\":198:371  function getResult() public view returns(string memory) {... */\n    tag_17:\n      swap1\n      jump\t// out\n        /* \"#utility.yul\":88:205   */\n    tag_21:\n        /* \"#utility.yul\":197:198   */\n      0x00\n        /* \"#utility.yul\":194:195   */\n      dup1\n        /* \"#utility.yul\":187:199   */\n      revert\n        /* \"#utility.yul\":334:420   */\n    tag_23:\n        /* \"#utility.yul\":369:376   */\n      0x00\n        /* \"#utility.yul\":409:413   */\n      0xff\n        /* \"#utility.yul\":402:407   */\n      dup3\n        /* \"#utility.yul\":398:414   */\n      and\n        /* \"#utility.yul\":387:414   */\n      swap1\n      pop\n        /* \"#utility.yul\":334:420   */\n      swap2\n      swap1\n      pop\n      jump\t// out\n        /* \"#utility.yul\":426:544   */\n    tag_24:\n        /* \"#utility.yul\":497:519   */\n      tag_37\n        /* \"#utility.yul\":513:518   */\n      dup2\n        /* \"#utility.yul\":497:519   */\n      tag_23\n      jump\t// in\n    tag_37:\n        /* \"#utility.yul\":490:495   */\n      dup2\n        /* \"#utility.yul\":487:520   */\n      eq\n        /* \"#utility.yul\":477:538   */\n      tag_38\n      jumpi\n        /* \"#utility.yul\":534:535   */\n      0x00\n        /* \"#utility.yul\":531:532   */\n      dup1\n        /* \"#utility.yul\":524:536   */\n      revert\n        /* \"#utility.yul\":477:538   */\n    tag_38:\n        /* \"#utility.yul\":426:544   */\n      pop\n      jump\t// out\n        /* \"#utility.yul\":550:685   */\n    tag_25:\n        /* \"#utility.yul\":594:599   */\n      0x00\n        /* \"#utility.yul\":632:638   */\n      dup2\n        /* \"#utility.yul\":619:639   */\n      calldataload\n        /* \"#utility.yul\":610:639   */\n      swap1\n      pop\n        /* \"#utility.yul\":648:679   */\n      tag_40\n        /* \"#utility.yul\":673:678   */\n      dup2\n        /* \"#utility.yul\":648:679   */\n      tag_24\n      jump\t// in\n    tag_40:\n        /* \"#utility.yul\":550:685   */\n      swap3\n      swap2\n      pop\n      pop\n      jump\t// out\n        /* \"#utility.yul\":691:1016   */\n    tag_7:\n        /* \"#utility.yul\":748:754   */\n      0x00\n        /* \"#utility.yul\":797:799   */\n      0x20\n        /* \"#utility.yul\":785:794   */\n      dup3\n        /* \"#utility.yul\":776:783   */\n      dup5\n        /* \"#utility.yul\":772:795   */\n      sub\n        /* \"#utility.yul\":768:800   */\n      slt\n        /* \"#utility.yul\":765:884   */\n      iszero\n      tag_42\n      jumpi\n        /* \"#utility.yul\":803:882   */\n      tag_43\n      tag_21\n      jump\t// in\n    tag_43:\n        /* \"#utility.yul\":765:884   */\n    tag_42:\n        /* \"#utility.yul\":923:924   */\n      0x00\n        /* \"#utility.yul\":948:999   */\n      tag_44\n        /* \"#utility.yul\":991:998   */\n      dup5\n        /* \"#utility.yul\":982:988   */\n      dup3\n        /* \"#utility.yul\":971:980   */\n      dup6\n        /* \"#utility.yul\":967:989   */\n      add\n        /* \"#utility.yul\":948:999   */\n      tag_25\n      jump\t// in\n    tag_44:\n        /* \"#utility.yul\":938:999   */\n      swap2\n      pop\n        /* \"#utility.yul\":894:1009   */\n      pop\n        /* \"#utility.yul\":691:1016   */\n      swap3\n      swap2\n      pop\n      pop\n      jump\t// out\n        /* \"#utility.yul\":1022:1121   */\n    tag_26:\n        /* \"#utility.yul\":1074:1080   */\n      0x00\n        /* \"#utility.yul\":1108:1113   */\n      dup2\n        /* \"#utility.yul\":1102:1114   */\n      mload\n        /* \"#utility.yul\":1092:1114   */\n      swap1\n      pop\n        /* \"#utility.yul\":1022:1121   */\n      swap2\n      swap1\n      pop\n      jump\t// out\n        /* \"#utility.yul\":1127:1296   */\n    tag_27:\n        /* \"#utility.yul\":1211:1222   */\n      0x00\n        /* \"#utility.yul\":1245:1251   */\n      dup3\n        /* \"#utility.yul\":1240:1243   */\n      dup3\n        /* \"#utility.yul\":1233:1252   */\n      mstore\n        /* \"#utility.yul\":1285:1289   */\n      0x20\n        /* \"#utility.yul\":1280:1283   */\n      dup3\n        /* \"#utility.yul\":1276:1290   */\n      add\n        /* \"#utility.yul\":1261:1290   */\n      swap1\n      pop\n        /* \"#utility.yul\":1127:1296   */\n      swap3\n      swap2\n      pop\n      pop\n      jump\t// out\n        /* \"#utility.yul\":1302:1441   */\n    tag_28:\n        /* \"#utility.yul\":1391:1397   */\n      dup3\n        /* \"#utility.yul\":1386:1389   */\n      dup2\n        /* \"#utility.yul\":1381:1384   */\n      dup4\n        /* \"#utility.yul\":1375:1398   */\n      mcopy\n        /* \"#utility.yul\":1432:1433   */\n      0x00\n        /* \"#utility.yul\":1423:1429   */\n      dup4\n        /* \"#utility.yul\":1418:1421   */\n      dup4\n        /* \"#utility.yul\":1414:1430   */\n      add\n        /* \"#utility.yul\":1407:1434   */\n      mstore\n        /* \"#utility.yul\":1302:1441   */\n      pop\n      pop\n      pop\n      jump\t// out\n        /* \"#utility.yul\":1447:1549   */\n    tag_29:\n        /* \"#utility.yul\":1488:1494   */\n      0x00\n        /* \"#utility.yul\":1539:1541   */\n      0x1f\n        /* \"#utility.yul\":1535:1542   */\n      not\n        /* \"#utility.yul\":1530:1532   */\n      0x1f\n        /* \"#utility.yul\":1523:1528   */\n      dup4\n        /* \"#utility.yul\":1519:1533   */\n      add\n        /* \"#utility.yul\":1515:1543   */\n      and\n        /* \"#utility.yul\":1505:1543   */\n      swap1\n      pop\n        /* \"#utility.yul\":1447:1549   */\n      swap2\n      swap1\n      pop\n      jump\t// out\n        /* \"#utility.yul\":1555:1932   */\n    tag_30:\n        /* \"#utility.yul\":1643:1646   */\n      0x00\n        /* \"#utility.yul\":1671:1710   */\n      tag_50\n        /* \"#utility.yul\":1704:1709   */\n      dup3\n        /* \"#utility.yul\":1671:1710   */\n      tag_26\n      jump\t// in\n    tag_50:\n        /* \"#utility.yul\":1726:1797   */\n      tag_51\n        /* \"#utility.yul\":1790:1796   */\n      dup2\n        /* \"#utility.yul\":1785:1788   */\n      dup6\n        /* \"#utility.yul\":1726:1797   */\n      tag_27\n      jump\t// in\n    tag_51:\n        /* \"#utility.yul\":1719:1797   */\n      swap4\n      pop\n        /* \"#utility.yul\":1806:1871   */\n      tag_52\n        /* \"#utility.yul\":1864:1870   */\n      dup2\n        /* \"#utility.yul\":1859:1862   */\n      dup6\n        /* \"#utility.yul\":1852:1856   */\n      0x20\n        /* \"#utility.yul\":1845:1850   */\n      dup7\n        /* \"#utility.yul\":1841:1857   */\n      add\n        /* \"#utility.yul\":1806:1871   */\n      tag_28\n      jump\t// in\n    tag_52:\n        /* \"#utility.yul\":1896:1925   */\n      tag_53\n        /* \"#utility.yul\":1918:1924   */\n      dup2\n        /* \"#utility.yul\":1896:1925   */\n      tag_29\n      jump\t// in\n    tag_53:\n        /* \"#utility.yul\":1891:1894   */\n      dup5\n        /* \"#utility.yul\":1887:1926   */\n      add\n        /* \"#utility.yul\":1880:1926   */\n      swap2\n      pop\n        /* \"#utility.yul\":1647:1932   */\n      pop\n        /* \"#utility.yul\":1555:1932   */\n      swap3\n      swap2\n      pop\n      pop\n      jump\t// out\n        /* \"#utility.yul\":1938:2251   */\n    tag_12:\n        /* \"#utility.yul\":2051:2055   */\n      0x00\n        /* \"#utility.yul\":2089:2091   */\n      0x20\n        /* \"#utility.yul\":2078:2087   */\n      dup3\n        /* \"#utility.yul\":2074:2092   */\n      add\n        /* \"#utility.yul\":2066:2092   */\n      swap1\n      pop\n        /* \"#utility.yul\":2138:2147   */\n      dup2\n        /* \"#utility.yul\":2132:2136   */\n      dup2\n        /* \"#utility.yul\":2128:2148   */\n      sub\n        /* \"#utility.yul\":2124:2125   */\n      0x00\n        /* \"#utility.yul\":2113:2122   */\n      dup4\n        /* \"#utility.yul\":2109:2126   */\n      add\n        /* \"#utility.yul\":2102:2149   */\n      mstore\n        /* \"#utility.yul\":2166:2244   */\n      tag_55\n        /* \"#utility.yul\":2239:2243   */\n      dup2\n        /* \"#utility.yul\":2230:2236   */\n      dup5\n        /* \"#utility.yul\":2166:2244   */\n      tag_30\n      jump\t// in\n    tag_55:\n        /* \"#utility.yul\":2158:2244   */\n      swap1\n      pop\n        /* \"#utility.yul\":1938:2251   */\n      swap3\n      swap2\n      pop\n      pop\n      jump\t// out\n        /* \"#utility.yul\":2257:2437   */\n    tag_16:\n        /* \"#utility.yul\":2305:2382   */\n      0x4e487b7100000000000000000000000000000000000000000000000000000000\n        /* \"#utility.yul\":2302:2303   */\n      0x00\n        /* \"#utility.yul\":2295:2383   */\n      mstore\n        /* \"#utility.yul\":2402:2406   */\n      0x01\n        /* \"#utility.yul\":2399:2400   */\n      0x04\n        /* \"#utility.yul\":2392:2407   */\n      mstore\n        /* \"#utility.yul\":2426:2430   */\n      0x24\n        /* \"#utility.yul\":2423:2424   */\n      0x00\n        /* \"#utility.yul\":2416:2431   */\n      revert\n\n    auxdata: 0xa2646970667358221220eb2e9301b6142cc54916f925d335c2ecafeef92995e25295d51b4199c713eabd64736f6c634300081a0033\n}\n",
				"bytecode": {
					"linkReferences": {},
					"object": "6080604052348015600e575f80fd5b5061028e8061001c5f395ff3fe608060405234801561000f575f80fd5b5060043610610034575f3560e01c8063a05e4df014610038578063de29278914610054575b5f80fd5b610052600480360381019061004d9190610170565b610072565b005b61005c6100a3565b604051610069919061020b565b60405180910390f35b60ff8160ff1611156100875761008661022b565b5b60015f806101000a81548160ff02191690831515021790555050565b6060600115155f8054906101000a900460ff161515036100fa576040518060400160405280600b81526020017f4e6f204f766572666c6f770000000000000000000000000000000000000000008152509050610133565b6040518060400160405280600f81526020017f4f766572666c6f7720657869737473000000000000000000000000000000000081525090505b90565b5f80fd5b5f60ff82169050919050565b61014f8161013a565b8114610159575f80fd5b50565b5f8135905061016a81610146565b92915050565b5f6020828403121561018557610184610136565b5b5f6101928482850161015c565b91505092915050565b5f81519050919050565b5f82825260208201905092915050565b8281835e5f83830152505050565b5f601f19601f8301169050919050565b5f6101dd8261019b565b6101e781856101a5565b93506101f78185602086016101b5565b610200816101c3565b840191505092915050565b5f6020820190508181035f83015261022381846101d3565b905092915050565b7f4e487b71000000000000000000000000000000000000000000000000000000005f52600160045260245ffdfea2646970667358221220eb2e9301b6142cc54916f925d335c2ecafeef92995e25295d51b4199c713eabd64736f6c634300081a0033",
					"opcodes": "PUSH1 0x80 PUSH1 0x40 MSTORE CALLVALUE DUP1 ISZERO PUSH1 0xE JUMPI PUSH0 DUP1 REVERT JUMPDEST POP PUSH2 0x28E DUP1 PUSH2 0x1C PUSH0 CODECOPY PUSH0 RETURN INVALID PUSH1 0x80 PUSH1 0x40 MSTORE CALLVALUE DUP1 ISZERO PUSH2 0xF JUMPI PUSH0 DUP1 REVERT JUMPDEST POP PUSH1 0x4 CALLDATASIZE LT PUSH2 0x34 JUMPI PUSH0 CALLDATALOAD PUSH1 0xE0 SHR DUP1 PUSH4 0xA05E4DF0 EQ PUSH2 0x38 JUMPI DUP1 PUSH4 0xDE292789 EQ PUSH2 0x54 JUMPI JUMPDEST PUSH0 DUP1 REVERT JUMPDEST PUSH2 0x52 PUSH1 0x4 DUP1 CALLDATASIZE SUB DUP2 ADD SWAP1 PUSH2 0x4D SWAP2 SWAP1 PUSH2 0x170 JUMP JUMPDEST PUSH2 0x72 JUMP JUMPDEST STOP JUMPDEST PUSH2 0x5C PUSH2 0xA3 JUMP JUMPDEST PUSH1 0x40 MLOAD PUSH2 0x69 SWAP2 SWAP1 PUSH2 0x20B JUMP JUMPDEST PUSH1 0x40 MLOAD DUP1 SWAP2 SUB SWAP1 RETURN JUMPDEST PUSH1 0xFF DUP2 PUSH1 0xFF AND GT ISZERO PUSH2 0x87 JUMPI PUSH2 0x86 PUSH2 0x22B JUMP JUMPDEST JUMPDEST PUSH1 0x1 PUSH0 DUP1 PUSH2 0x100 EXP DUP2 SLOAD DUP2 PUSH1 0xFF MUL NOT AND SWAP1 DUP4 ISZERO ISZERO MUL OR SWAP1 SSTORE POP POP JUMP JUMPDEST PUSH1 0x60 PUSH1 0x1 ISZERO ISZERO PUSH0 DUP1 SLOAD SWAP1 PUSH2 0x100 EXP SWAP1 DIV PUSH1 0xFF AND ISZERO ISZERO SUB PUSH2 0xFA JUMPI PUSH1 0x40 MLOAD DUP1 PUSH1 0x40 ADD PUSH1 0x40 MSTORE DUP1 PUSH1 0xB DUP2 MSTORE PUSH1 0x20 ADD PUSH32 0x4E6F204F766572666C6F77000000000000000000000000000000000000000000 DUP2 MSTORE POP SWAP1 POP PUSH2 0x133 JUMP JUMPDEST PUSH1 0x40 MLOAD DUP1 PUSH1 0x40 ADD PUSH1 0x40 MSTORE DUP1 PUSH1 0xF DUP2 MSTORE PUSH1 0x20 ADD PUSH32 0x4F766572666C6F77206578697374730000000000000000000000000000000000 DUP2 MSTORE POP SWAP1 POP JUMPDEST SWAP1 JUMP JUMPDEST PUSH0 DUP1 REVERT JUMPDEST PUSH0 PUSH1 0xFF DUP3 AND SWAP1 POP SWAP2 SWAP1 POP JUMP JUMPDEST PUSH2 0x14F DUP2 PUSH2 0x13A JUMP JUMPDEST DUP2 EQ PUSH2 0x159 JUMPI PUSH0 DUP1 REVERT JUMPDEST POP JUMP JUMPDEST PUSH0 DUP2 CALLDATALOAD SWAP1 POP PUSH2 0x16A DUP2 PUSH2 0x146 JUMP JUMPDEST SWAP3 SWAP2 POP POP JUMP JUMPDEST PUSH0 PUSH1 0x20 DUP3 DUP5 SUB SLT ISZERO PUSH2 0x185 JUMPI PUSH2 0x184 PUSH2 0x136 JUMP JUMPDEST JUMPDEST PUSH0 PUSH2 0x192 DUP5 DUP3 DUP6 ADD PUSH2 0x15C JUMP JUMPDEST SWAP2 POP POP SWAP3 SWAP2 POP POP JUMP JUMPDEST PUSH0 DUP2 MLOAD SWAP1 POP SWAP2 SWAP1 POP JUMP JUMPDEST PUSH0 DUP3 DUP3 MSTORE PUSH1 0x20 DUP3 ADD SWAP1 POP SWAP3 SWAP2 POP POP JUMP JUMPDEST DUP3 DUP2 DUP4 MCOPY PUSH0 DUP4 DUP4 ADD MSTORE POP POP POP JUMP JUMPDEST PUSH0 PUSH1 0x1F NOT PUSH1 0x1F DUP4 ADD AND SWAP1 POP SWAP2 SWAP1 POP JUMP JUMPDEST PUSH0 PUSH2 0x1DD DUP3 PUSH2 0x19B JUMP JUMPDEST PUSH2 0x1E7 DUP2 DUP6 PUSH2 0x1A5 JUMP JUMPDEST SWAP4 POP PUSH2 0x1F7 DUP2 DUP6 PUSH1 0x20 DUP7 ADD PUSH2 0x1B5 JUMP JUMPDEST PUSH2 0x200 DUP2 PUSH2 0x1C3 JUMP JUMPDEST DUP5 ADD SWAP2 POP POP SWAP3 SWAP2 POP POP JUMP JUMPDEST PUSH0 PUSH1 0x20 DUP3 ADD SWAP1 POP DUP2 DUP2 SUB PUSH0 DUP4 ADD MSTORE PUSH2 0x223 DUP2 DUP5 PUSH2 0x1D3 JUMP JUMPDEST SWAP1 POP SWAP3 SWAP2 POP POP JUMP JUMPDEST PUSH32 0x4E487B7100000000000000000000000000000000000000000000000000000000 PUSH0 MSTORE PUSH1 0x1 PUSH1 0x4 MSTORE PUSH1 0x24 PUSH0 REVERT INVALID LOG2 PUSH5 0x6970667358 0x22 SLT KECCAK256 0xEB 0x2E SWAP4 ADD 0xB6 EQ 0x2C 0xC5 BLOBHASH AND 0xF9 0x25 0xD3 CALLDATALOAD 0xC2 0xEC 0xAF 0xEE 0xF9 0x29 SWAP6 0xE2 MSTORE SWAP6 0xD5 SHL COINBASE SWAP10 0xC7 SGT 0xEA 0xBD PUSH5 0x736F6C6343 STOP ADDMOD BYTE STOP CALLER "
				},
				"gasEstimates": {
					"creation": {
						"codeDepositCost": "130800",
						"executionCost": "175",
						"totalCost": "130975"
					},
					"external": {
						"checkOverflow(uint8)": "24683",
						"getResult()": "infinite"
					}
				},
				"methodIdentifiers": {
					"checkOverflow(uint8)": "a05e4df0",
					"getResult()": "de292789"
				}
			},
			"storageLayout": {
				"storage": [
					{
						"astId": 3,
						"contract": "assertstatement2.sol:assertStatement",
						"label": "result",
						"offset": 0,
						"slot": "0",
						"type": "t_bool"
					}
				],
				"types": {
					"t_bool": {
						"encoding": "inplace",
						"label": "bool",
						"numberOfBytes": "1"
					}
				}
			},
			"userdoc": {
				"kind": "user",
				"methods": {},
				"version": 1
			}
		}
	}
}