{
	"data": {
		"bytecode": {
			"linkReferences": {},
			"object": "6080604052348015600e575f80fd5b505f7ffffffffffffffffffffffffffffffffffffffffffffffffffffffffffffffffd90505f819050505060a58060445f395ff3fe6080604052348015600e575f80fd5b50600436106026575f3560e01c8063de29278914602a575b5f80fd5b60306032565b005b60018014604057603f6042565b5b565b7f4e487b71000000000000000000000000000000000000000000000000000000005f52600160045260245ffdfea26469706673582212207a286c16063e3a1039b2985d613ce5632c475d3bc29f3ed63f42d3058367edff64736f6c634300081a0033",
			"opcodes": "PUSH1 0x80 PUSH1 0x40 MSTORE CALLVALUE DUP1 ISZERO PUSH1 0xE JUMPI PUSH0 DUP1 REVERT JUMPDEST POP PUSH0 PUSH32 0xFFFFFFFFFFFFFFFFFFFFFFFFFFFFFFFFFFFFFFFFFFFFFFFFFFFFFFFFFFFFFFFD SWAP1 POP PUSH0 DUP2 SWAP1 POP POP POP PUSH1 0xA5 DUP1 PUSH1 0x44 PUSH0 CODECOPY PUSH0 RETURN INVALID PUSH1 0x80 PUSH1 0x40 MSTORE CALLVALUE DUP1 ISZERO PUSH1 0xE JUMPI PUSH0 DUP1 REVERT JUMPDEST POP PUSH1 0x4 CALLDATASIZE LT PUSH1 0x26 JUMPI PUSH0 CALLDATALOAD PUSH1 0xE0 SHR DUP1 PUSH4 0xDE292789 EQ PUSH1 0x2A JUMPI JUMPDEST PUSH0 DUP1 REVERT JUMPDEST PUSH1 0x30 PUSH1 0x32 JUMP JUMPDEST STOP JUMPDEST PUSH1 0x1 DUP1 EQ PUSH1 0x40 JUMPI PUSH1 0x3F PUSH1 0x42 JUMP JUMPDEST JUMPDEST JUMP JUMPDEST PUSH32 0x4E487B7100000000000000000000000000000000000000000000000000000000 PUSH0 MSTORE PUSH1 0x1 PUSH1 0x4 MSTORE PUSH1 0x24 PUSH0 REVERT INVALID LOG2 PUSH5 0x6970667358 0x22 SLT KECCAK256 PUSH27 0x286C16063E3A1039B2985D613CE5632C475D3BC29F3ED63F42D305 DUP4 PUSH8 0xEDFF64736F6C6343 STOP ADDMOD BYTE STOP CALLER "
		},
		"gasEstimates": {
			"creation": {
				"codeDepositCost": "33000",
				"executionCost": "109",
				"totalCost": "33109"
			},
			"external": {
				"getResult()": "144"
			}
		},
		"methodIdentifiers": {
			"getResult()": "de292789"
		}
	},
	"abi": [
		{
			"inputs": [],
			"stateMutability": "nonpayable",
			"type": "constructor"
		},
		{
			"inputs": [],
			"name": "getResult",
			"outputs": [],
			"stateMutability": "pure",
			"type": "function"
		}
	]
}